{
  "contractName": "Coinosis",
  "abi": [
    {
      "anonymous": false,
      "inputs": [
        {
          "indexed": false,
          "internalType": "address",
          "name": "recipient",
          "type": "address"
        },
        {
          "indexed": false,
          "internalType": "uint256",
          "name": "amount",
          "type": "uint256"
        }
      ],
      "name": "Paid",
      "type": "event"
    },
    {
      "anonymous": false,
      "inputs": [
        {
          "indexed": false,
          "internalType": "address",
          "name": "sender",
          "type": "address"
        },
        {
          "indexed": false,
          "internalType": "string",
          "name": "name",
          "type": "string"
        },
        {
          "indexed": false,
          "internalType": "uint256",
          "name": "amount",
          "type": "uint256"
        }
      ],
      "name": "Received",
      "type": "event"
    },
    {
      "constant": false,
      "inputs": [
        {
          "internalType": "string",
          "name": "name",
          "type": "string"
        }
      ],
      "name": "receive",
      "outputs": [],
      "payable": true,
      "stateMutability": "payable",
      "type": "function"
    },
    {
      "constant": false,
      "inputs": [
        {
          "internalType": "address payable[]",
          "name": "recipients",
          "type": "address[]"
        },
        {
          "internalType": "uint256[]",
          "name": "amounts",
          "type": "uint256[]"
        }
      ],
      "name": "distribute",
      "outputs": [],
      "payable": true,
      "stateMutability": "payable",
      "type": "function"
    }
  ],
  "bytecode": "0x608060405234801561001057600080fd5b50610904806100206000396000f3fe6080604052600436106100295760003560e01c80632929abe61461002e578063caa02f151461017a575b600080fd5b6101786004803603604081101561004457600080fd5b810190808035906020019064010000000081111561006157600080fd5b82018360208201111561007357600080fd5b8035906020019184602083028401116401000000008311171561009557600080fd5b919080806020026020016040519081016040528093929190818152602001838360200280828437600081840152601f19601f820116905080830192505050505050509192919290803590602001906401000000008111156100f557600080fd5b82018360208201111561010757600080fd5b8035906020019184602083028401116401000000008311171561012957600080fd5b919080806020026020016040519081016040528093929190818152602001838360200280828437600081840152601f19601f820116905080830192505050505050509192919290505050610235565b005b6102336004803603602081101561019057600080fd5b81019080803590602001906401000000008111156101ad57600080fd5b8201836020820111156101bf57600080fd5b803590602001918460018302840111640100000000831117156101e157600080fd5b91908080601f016020809104026020016040519081016040528093929190818152602001838380828437600081840152601f19601f820116905080830192505050505050509192919290505050610518565b005b80518251146040518060800160405280604f81526020016107d8604f9139906102f9576040517f08c379a00000000000000000000000000000000000000000000000000000000081526004018080602001828103825283818151815260200191508051906020019080838360005b838110156102be5780820151818401526020810190506102a3565b50505050905090810190601f1680156102eb5780820380516001836020036101000a031916815260200191505b509250505060405180910390fd5b50600080905060008090505b82518110156103335782818151811061031a57fe5b6020026020010151820191508080600101915050610305565b508034101560405180608001604052806059815260200161082760599139906103f7576040517f08c379a00000000000000000000000000000000000000000000000000000000081526004018080602001828103825283818151815260200191508051906020019080838360005b838110156103bc5780820151818401526020810190506103a1565b50505050905090810190601f1680156103e95780820380516001836020036101000a031916815260200191505b509250505060405180910390fd5b5060008090505b83518110156105125783818151811061041357fe5b602002602001015173ffffffffffffffffffffffffffffffffffffffff166108fc84838151811061044057fe5b60200260200101519081150290604051600060405180830381858888f19350505050158015610473573d6000803e3d6000fd5b507f737c69225d647e5994eab1a6c301bf6d9232beb2759ae1e27a8966b4732bc4898482815181106104a157fe5b60200260200101518483815181106104b557fe5b6020026020010151604051808373ffffffffffffffffffffffffffffffffffffffff1673ffffffffffffffffffffffffffffffffffffffff1681526020018281526020019250505060405180910390a180806001019150506103fe565b50505050565b600034116040518060600160405280602981526020016108a760299139906105db576040517f08c379a00000000000000000000000000000000000000000000000000000000081526004018080602001828103825283818151815260200191508051906020019080838360005b838110156105a0578082015181840152602081019050610585565b50505050905090810190601f1680156105cd5780820380516001836020036101000a031916815260200191505b509250505060405180910390fd5b50600081511160405180606001604052806027815260200161088060279139906106a0576040517f08c379a00000000000000000000000000000000000000000000000000000000081526004018080602001828103825283818151815260200191508051906020019080838360005b8381101561066557808201518184015260208101905061064a565b50505050905090810190601f1680156106925780820380516001836020036101000a031916815260200191505b509250505060405180910390fd5b5073e1ff19182deb2058016ae0627c1e4660a895196a73ffffffffffffffffffffffffffffffffffffffff166108fc349081150290604051600060405180830381858888f193505050501580156106fb573d6000803e3d6000fd5b507fc52d41d8e03a19f9593ca22311356c3c5ca56b7bcb547226f02f818d4db3c5a2338234604051808473ffffffffffffffffffffffffffffffffffffffff1673ffffffffffffffffffffffffffffffffffffffff16815260200180602001838152602001828103825284818151815260200191508051906020019080838360005b8381101561079857808201518184015260208101905061077d565b50505050905090810190601f1680156107c55780820380516001836020036101000a031916815260200191505b5094505050505060405180910390a15056fe546865206e756d626572206f6620726563697069656e747320646966666572732066726f6d20746865206e756d626572206f6620616d6f756e74732028646966666572656e742d6c656e67746873295468652065746865722076616c75652073656e74206973206c657373207468616e2074686520746f74616c20696e74656e64656420616d6f756e7420746f2073656e642028696e73756666696369656e742d76616c7565292e546865206e616d652070726f766964656420697320656d7074792028656d7074792d6e616d65295468652065746865722076616c75652073656e74206973207a65726f20287a65726f2d76616c756529a265627a7a723158209124914aa8aee03165314f4d3a2624e77540529ee89fcbc77cb0fe503663121764736f6c63430005100032",
  "source": "pragma solidity 0.5.16;\n\ncontract Coinosis {\n\n    address payable constant coinosis =\n        0xe1fF19182deb2058016Ae0627c1E4660A895196a;\n    string constant ZERO_VALUE = \"The ether value sent is zero (zero-value)\";\n    string constant EMPTY_NAME = \"The name provided is empty (empty-name)\";\n    string constant DIFFERENT_LENGTHS =\n        \"The number of recipients differs from the number of amounts \\\n(different-lengths)\";\n    string constant INSUFFICIENT_VALUE =\n        \"The ether value sent is less than the total intended amount to send \\\n(insufficient-value).\";\n\n    event Received(address sender, string name, uint amount);\n    event Paid(address recipient, uint amount);\n\n    function receive(string memory name) public payable {\n        require(msg.value > 0, ZERO_VALUE);\n        require(bytes(name).length > 0, EMPTY_NAME);\n        coinosis.transfer(msg.value);\n        emit Received(msg.sender, name, msg.value);\n    }\n    \n    function distribute(\n        address payable[] memory recipients,\n        uint[] memory amounts\n    ) public payable {\n        require(recipients.length == amounts.length, DIFFERENT_LENGTHS);\n        uint totalAmount = 0;\n        for (uint i = 0; i < amounts.length; i++) {\n            totalAmount += amounts[i];\n        }\n        require(msg.value >= totalAmount, INSUFFICIENT_VALUE);\n        for (uint i = 0; i < recipients.length; i++) {\n            recipients[i].transfer(amounts[i]);\n            emit Paid(recipients[i], amounts[i]);\n        }\n    }\n}\n",
  "sourcePath": "/home/e18r/code/coinosis/contracts/Coinosis.sol",
  "compiler": {
    "name": "solc",
    "version": "0.5.16+commit.9c3226ce.Emscripten.clang"
  },
  "schemaVersion": "3.0.23",
  "updatedAt": "2020-04-14T02:29:18.320Z",
  "networkType": "ethereum",
  "devdoc": {
    "methods": {}
  },
  "userdoc": {
    "methods": {}
  }
}