{
  "contractName": "Coinosis",
  "abi": [
    {
      "anonymous": false,
      "inputs": [
        {
          "indexed": false,
          "internalType": "address",
          "name": "recipient",
          "type": "address"
        },
        {
          "indexed": false,
          "internalType": "uint256",
          "name": "amount",
          "type": "uint256"
        }
      ],
      "name": "Paid",
      "type": "event"
    },
    {
      "constant": false,
      "inputs": [
        {
          "internalType": "address payable[]",
          "name": "recipients",
          "type": "address[]"
        },
        {
          "internalType": "uint256[]",
          "name": "amounts",
          "type": "uint256[]"
        }
      ],
      "name": "distribute",
      "outputs": [],
      "payable": true,
      "stateMutability": "payable",
      "type": "function"
    }
  ],
  "bytecode": "0x608060405234801561001057600080fd5b5061052f806100206000396000f3fe60806040526004361061001e5760003560e01c80632929abe614610023575b600080fd5b61016d6004803603604081101561003957600080fd5b810190808035906020019064010000000081111561005657600080fd5b82018360208201111561006857600080fd5b8035906020019184602083028401116401000000008311171561008a57600080fd5b919080806020026020016040519081016040528093929190818152602001838360200280828437600081840152601f19601f820116905080830192505050505050509192919290803590602001906401000000008111156100ea57600080fd5b8201836020820111156100fc57600080fd5b8035906020019184602083028401116401000000008311171561011e57600080fd5b919080806020026020016040519081016040528093929190818152602001838360200280828437600081840152601f19601f82011690508083019250505050505050919291929050505061016f565b005b80518251146040518060800160405280604f8152602001610453604f913990610233576040517f08c379a00000000000000000000000000000000000000000000000000000000081526004018080602001828103825283818151815260200191508051906020019080838360005b838110156101f85780820151818401526020810190506101dd565b50505050905090810190601f1680156102255780820380516001836020036101000a031916815260200191505b509250505060405180910390fd5b50600080905060008090505b825181101561026d5782818151811061025457fe5b602002602001015182019150808060010191505061023f565b50803410156040518060800160405280605981526020016104a26059913990610331576040517f08c379a00000000000000000000000000000000000000000000000000000000081526004018080602001828103825283818151815260200191508051906020019080838360005b838110156102f65780820151818401526020810190506102db565b50505050905090810190601f1680156103235780820380516001836020036101000a031916815260200191505b509250505060405180910390fd5b5060008090505b835181101561044c5783818151811061034d57fe5b602002602001015173ffffffffffffffffffffffffffffffffffffffff166108fc84838151811061037a57fe5b60200260200101519081150290604051600060405180830381858888f193505050501580156103ad573d6000803e3d6000fd5b507f737c69225d647e5994eab1a6c301bf6d9232beb2759ae1e27a8966b4732bc4898482815181106103db57fe5b60200260200101518483815181106103ef57fe5b6020026020010151604051808373ffffffffffffffffffffffffffffffffffffffff1673ffffffffffffffffffffffffffffffffffffffff1681526020018281526020019250505060405180910390a18080600101915050610338565b5050505056fe546865206e756d626572206f6620726563697069656e747320646966666572732066726f6d20746865206e756d626572206f6620616d6f756e74732028646966666572656e742d6c656e67746873295468652065746865722076616c75652073656e74206973206c657373207468616e2074686520746f74616c20696e74656e64656420616d6f756e7420746f2073656e642028696e73756666696369656e742d76616c7565292ea265627a7a72315820eae722760ffd260c554181522c5778fd65962856e60fa1f5f1b244f5f1efd7db64736f6c63430005100032",
  "source": "pragma solidity 0.5.16;\n\ncontract Coinosis {\n    \n    string constant DIFFERENT_LENGTHS =\n        \"The number of recipients differs from the number of amounts \\\n(different-lengths)\";\n    string constant INSUFFICIENT_VALUE =\n        \"The ether value sent is less than the total intended amount to send \\\n(insufficient-value).\";\n    \n    event Paid(address recipient, uint amount);\n    \n    function distribute(\n        address payable[] memory recipients,\n        uint[] memory amounts\n    ) public payable {\n        require(recipients.length == amounts.length, DIFFERENT_LENGTHS);\n        uint totalAmount = 0;\n        for (uint i = 0; i < amounts.length; i++) {\n            totalAmount += amounts[i];\n        }\n        require(msg.value >= totalAmount, INSUFFICIENT_VALUE);\n        for (uint i = 0; i < recipients.length; i++) {\n            recipients[i].transfer(amounts[i]);\n            emit Paid(recipients[i], amounts[i]);\n        }\n    }\n}\n",
  "sourcePath": "/home/e18r/code/coinosis/contracts/Coinosis.sol",
  "compiler": {
    "name": "solc",
    "version": "0.5.16+commit.9c3226ce.Emscripten.clang"
  },
  "schemaVersion": "3.0.23",
  "updatedAt": "2020-04-10T15:59:56.052Z",
  "networkType": "ethereum",
  "devdoc": {
    "methods": {}
  },
  "userdoc": {
    "methods": {}
  }
}