{
  "contractName": "Coinosis",
  "abi": [
    {
      "inputs": [],
      "payable": false,
      "stateMutability": "nonpayable",
      "type": "constructor"
    },
    {
      "anonymous": false,
      "inputs": [
        {
          "indexed": false,
          "internalType": "uint256",
          "name": "registrationPriceUSDWei",
          "type": "uint256"
        },
        {
          "indexed": false,
          "internalType": "uint256",
          "name": "ETHPriceUSDWei",
          "type": "uint256"
        },
        {
          "indexed": false,
          "internalType": "string[]",
          "name": "names",
          "type": "string[]"
        },
        {
          "indexed": false,
          "internalType": "address payable[]",
          "name": "addresses",
          "type": "address[]"
        },
        {
          "indexed": false,
          "internalType": "uint256[]",
          "name": "claps",
          "type": "uint256[]"
        },
        {
          "indexed": false,
          "internalType": "uint256",
          "name": "registrationPriceWei",
          "type": "uint256"
        },
        {
          "indexed": false,
          "internalType": "uint256",
          "name": "totalPriceWei",
          "type": "uint256"
        },
        {
          "indexed": false,
          "internalType": "uint256",
          "name": "totalClaps",
          "type": "uint256"
        },
        {
          "indexed": false,
          "internalType": "uint256[]",
          "name": "rewards",
          "type": "uint256[]"
        }
      ],
      "name": "Assessment",
      "type": "event"
    },
    {
      "anonymous": false,
      "inputs": [
        {
          "indexed": false,
          "internalType": "string",
          "name": "name",
          "type": "string"
        },
        {
          "indexed": false,
          "internalType": "address",
          "name": "addr",
          "type": "address"
        },
        {
          "indexed": false,
          "internalType": "uint256",
          "name": "registrationPriceUSDWei",
          "type": "uint256"
        },
        {
          "indexed": false,
          "internalType": "uint256",
          "name": "registrationPriceWei",
          "type": "uint256"
        },
        {
          "indexed": false,
          "internalType": "uint256",
          "name": "claps",
          "type": "uint256"
        },
        {
          "indexed": false,
          "internalType": "uint256",
          "name": "reward",
          "type": "uint256"
        }
      ],
      "name": "Transfer",
      "type": "event"
    },
    {
      "payable": true,
      "stateMutability": "payable",
      "type": "fallback"
    },
    {
      "constant": false,
      "inputs": [
        {
          "internalType": "uint256",
          "name": "registrationPriceUSDWei",
          "type": "uint256"
        },
        {
          "internalType": "uint256",
          "name": "ETHPriceUSDWei",
          "type": "uint256"
        },
        {
          "internalType": "string[]",
          "name": "names",
          "type": "string[]"
        },
        {
          "internalType": "address payable[]",
          "name": "addresses",
          "type": "address[]"
        },
        {
          "internalType": "uint256[]",
          "name": "claps",
          "type": "uint256[]"
        }
      ],
      "name": "assess",
      "outputs": [],
      "payable": false,
      "stateMutability": "nonpayable",
      "type": "function"
    }
  ],
  "bytecode": "0x608060405234801561001057600080fd5b50336000806101000a81548173ffffffffffffffffffffffffffffffffffffffff021916908373ffffffffffffffffffffffffffffffffffffffff16021790555061125c806100606000396000f3fe60806040526004361061001e5760003560e01c80635afb340514610020575b005b34801561002c57600080fd5b50610047600480360361004291908101906108b5565b610049565b005b6000809054906101000a900473ffffffffffffffffffffffffffffffffffffffff1673ffffffffffffffffffffffffffffffffffffffff163373ffffffffffffffffffffffffffffffffffffffff16146040518060600160405280602f81526020016110b3602f9139906100f3576040517f08c379a00000000000000000000000000000000000000000000000000000000081526004016100ea9190610c76565b60405180910390fd5b50600084116040518060600160405280603581526020016111e56035913990610152576040517f08c379a00000000000000000000000000000000000000000000000000000000081526004016101499190610c76565b60405180910390fd5b5081518351146040518060800160405280605181526020016110e260519139906101b2576040517f08c379a00000000000000000000000000000000000000000000000000000000081526004016101a99190610c76565b60405180910390fd5b5080518251146040518060800160405280605181526020016111336051913990610212576040517f08c379a00000000000000000000000000000000000000000000000000000000081526004016102099190610c76565b60405180910390fd5b50600061024285610234670de0b6b3a76400008961054d90919063ffffffff16565b6105bd90919063ffffffff16565b9050600061025a84518361054d90919063ffffffff16565b9050804710156040518060a001604052806061815260200161118460619139906102ba576040517f08c379a00000000000000000000000000000000000000000000000000000000081526004016102b19190610c76565b60405180910390fd5b50600080905060008090505b8451811015610312576102f58582815181106102de57fe5b60200260200101518361060790919063ffffffff16565b915061030b60018261060790919063ffffffff16565b90506102c6565b50606084516040519080825280602002602001820160405280156103455781602001602082028038833980820191505090505b50905060008090505b85518110156103c25761038f836103818689858151811061036b57fe5b602002602001015161054d90919063ffffffff16565b6105bd90919063ffffffff16565b82828151811061039b57fe5b6020026020010181815250506103bb60018261060790919063ffffffff16565b905061034e565b507f151a5d86f07e958bba7e01d5eea97bbdda8241095ca3afaea5612e3f459a198489898989898989898960405161040299989796959493929190610d62565b60405180910390a160008090505b865181101561054157600082828151811061042757fe5b6020026020010151118015610493575086818151811061044357fe5b602002602001015173ffffffffffffffffffffffffffffffffffffffff166108fc83838151811061047057fe5b60200260200101519081150290604051600060405180830381858888f193505050505b15610526577f70cc3d2d4d11510af102774a4477bfb3764c6c13a1eeb06fce821af8ed63d2bd8882815181106104c557fe5b60200260200101518883815181106104d957fe5b60200260200101518c888a86815181106104ef57fe5b602002602001015187878151811061050357fe5b602002602001015160405161051d96959493929190610cba565b60405180910390a15b61053a60018261060790919063ffffffff16565b9050610410565b50505050505050505050565b60008083141561056057600090506105b7565b600082840290508284828161057157fe5b04146105b2576040517f08c379a00000000000000000000000000000000000000000000000000000000081526004016105a990610d42565b60405180910390fd5b809150505b92915050565b60006105ff83836040518060400160405280601a81526020017f536166654d6174683a206469766973696f6e206279207a65726f00000000000081525061065c565b905092915050565b600080828401905083811015610652576040517f08c379a000000000000000000000000000000000000000000000000000000000815260040161064990610d22565b60405180910390fd5b8091505092915050565b600080831182906106a3576040517f08c379a000000000000000000000000000000000000000000000000000000000815260040161069a9190610c98565b60405180910390fd5b5060008385816106af57fe5b049050809150509392505050565b6000813590506106cc81611084565b92915050565b600082601f8301126106e357600080fd5b81356106f66106f182610e38565b610e0b565b9150818183526020840193506020810190508385602084028201111561071b57600080fd5b60005b8381101561074b578161073188826106bd565b84526020840193506020830192505060018101905061071e565b5050505092915050565b600082601f83011261076657600080fd5b813561077961077482610e60565b610e0b565b9150818183526020840193506020810190508360005b838110156107bf57813586016107a5888261084c565b84526020840193506020830192505060018101905061078f565b5050505092915050565b600082601f8301126107da57600080fd5b81356107ed6107e882610e88565b610e0b565b9150818183526020840193506020810190508385602084028201111561081257600080fd5b60005b83811015610842578161082888826108a0565b845260208401935060208301925050600181019050610815565b5050505092915050565b600082601f83011261085d57600080fd5b813561087061086b82610eb0565b610e0b565b9150808252602083016020830185838301111561088c57600080fd5b610897838284611031565b50505092915050565b6000813590506108af8161109b565b92915050565b600080600080600060a086880312156108cd57600080fd5b60006108db888289016108a0565b95505060206108ec888289016108a0565b945050604086013567ffffffffffffffff81111561090957600080fd5b61091588828901610755565b935050606086013567ffffffffffffffff81111561093257600080fd5b61093e888289016106d2565b925050608086013567ffffffffffffffff81111561095b57600080fd5b610967888289016107c9565b9150509295509295909350565b600061098083836109c7565b60208301905092915050565b60006109988383610b40565b905092915050565b60006109ac8383610c58565b60208301905092915050565b6109c181610ffb565b82525050565b6109d081610fbf565b82525050565b60006109e182610f0c565b6109eb8185610f6a565b93506109f683610edc565b8060005b83811015610a27578151610a0e8882610974565b9750610a1983610f43565b9250506001810190506109fa565b5085935050505092915050565b6000610a3f82610f17565b610a498185610f7b565b935083602082028501610a5b85610eec565b8060005b85811015610a975784840389528151610a78858261098c565b9450610a8383610f50565b925060208a01995050600181019050610a5f565b50829750879550505050505092915050565b6000610ab482610f22565b610abe8185610f8c565b9350610ac983610efc565b8060005b83811015610afa578151610ae188826109a0565b9750610aec83610f5d565b925050600181019050610acd565b5085935050505092915050565b6000610b1282610f38565b610b1c8185610fae565b9350610b2c818560208601611040565b610b3581611073565b840191505092915050565b6000610b4b82610f2d565b610b558185610f9d565b9350610b65818560208601611040565b610b6e81611073565b840191505092915050565b6000610b8482610f2d565b610b8e8185610fae565b9350610b9e818560208601611040565b610ba781611073565b840191505092915050565b6000610bbf601b83610fae565b91507f536166654d6174683a206164646974696f6e206f766572666c6f7700000000006000830152602082019050919050565b6000610bff602183610fae565b91507f536166654d6174683a206d756c7469706c69636174696f6e206f766572666c6f60008301527f77000000000000000000000000000000000000000000000000000000000000006020830152604082019050919050565b610c6181610ff1565b82525050565b610c7081610ff1565b82525050565b60006020820190508181036000830152610c908184610b79565b905092915050565b60006020820190508181036000830152610cb28184610b07565b905092915050565b600060c0820190508181036000830152610cd48189610b79565b9050610ce360208301886109b8565b610cf06040830187610c67565b610cfd6060830186610c67565b610d0a6080830185610c67565b610d1760a0830184610c67565b979650505050505050565b60006020820190508181036000830152610d3b81610bb2565b9050919050565b60006020820190508181036000830152610d5b81610bf2565b9050919050565b600061012082019050610d78600083018c610c67565b610d85602083018b610c67565b8181036040830152610d97818a610a34565b90508181036060830152610dab81896109d6565b90508181036080830152610dbf8188610aa9565b9050610dce60a0830187610c67565b610ddb60c0830186610c67565b610de860e0830185610c67565b818103610100830152610dfb8184610aa9565b90509a9950505050505050505050565b6000604051905081810181811067ffffffffffffffff82111715610e2e57600080fd5b8060405250919050565b600067ffffffffffffffff821115610e4f57600080fd5b602082029050602081019050919050565b600067ffffffffffffffff821115610e7757600080fd5b602082029050602081019050919050565b600067ffffffffffffffff821115610e9f57600080fd5b602082029050602081019050919050565b600067ffffffffffffffff821115610ec757600080fd5b601f19601f8301169050602081019050919050565b6000819050602082019050919050565b6000819050602082019050919050565b6000819050602082019050919050565b600081519050919050565b600081519050919050565b600081519050919050565b600081519050919050565b600081519050919050565b6000602082019050919050565b6000602082019050919050565b6000602082019050919050565b600082825260208201905092915050565b600082825260208201905092915050565b600082825260208201905092915050565b600082825260208201905092915050565b600082825260208201905092915050565b6000610fca82610fd1565b9050919050565b600073ffffffffffffffffffffffffffffffffffffffff82169050919050565b6000819050919050565b60006110068261100d565b9050919050565b60006110188261101f565b9050919050565b600061102a82610fd1565b9050919050565b82818337600083830152505050565b60005b8381101561105e578082015181840152602081019050611043565b8381111561106d576000848401525b50505050565b6000601f19601f8301169050919050565b61108d81610fbf565b811461109857600080fd5b50565b6110a481610ff1565b81146110af57600080fd5b5056fe5468652073656e646572206163636f756e74206973206e6f7420746865206f776e657220286e6f742d6f776e65722954686520616d6f756e74206f66206e616d657320646966666572732066726f6d2074686520616d6f756e74206f662061646472657373657320286e616d65732d6469666665722d6164647265737365732954686520616d6f756e74206f662061646472657373657320646966666572732066726f6d2074686520616d6f756e74206f6620636c61707320286164647265737365732d6469666665722d636c617073295468652065746865722076616c756520696e207468697320636f6e7472616374206973206c657373207468616e2074686520746f74616c207265776172642076616c756520746f2073656e642028696e73756666696369656e742d76616c7565295468652070726f76696465642045544820707269636520697320696e76616c69642028696e76616c69642d6574682d707269636529a365627a7a723158208c844e3b863b908438ef2b10c03cbad92d7077d4c5c3392571fb0aef5f4073316c6578706572696d656e74616cf564736f6c63430005100040",
  "source": "pragma solidity 0.5.16;\npragma experimental ABIEncoderV2;\n\nimport \"@openzeppelin/contracts/math/SafeMath.sol\";\n\ncontract Coinosis {\n\n    using SafeMath for uint;\n\n    string constant NOT_OWNER = \"The sender account is not the owner \\\n(not-owner)\";\n    string constant INVALID_ETH_PRICE = \"The provided ETH price is invalid \\\n(invalid-eth-price)\";\n    string constant NAMES_DIFFER_ADDRESSES =\n        \"The amount of names differs from the amount of addresses \\\n(names-differ-addresses)\";\n    string constant ADDRESSES_DIFFER_CLAPS =\n        \"The amount of addresses differs from the amount of claps \\\n(addresses-differ-claps)\";\n    string constant INSUFFICIENT_VALUE =\n        \"The ether value in this contract is less than the total reward value \\\nto send (insufficient-value)\";\n\n    address private owner;\n\n    event Assessment(\n        uint registrationPriceUSDWei,\n        uint ETHPriceUSDWei,\n        string[] names,\n        address payable[] addresses,\n        uint[] claps,\n        uint registrationPriceWei,\n        uint totalPriceWei,\n        uint totalClaps,\n        uint[] rewards\n    );\n    event Transfer(\n        string name,\n        address addr,\n        uint registrationPriceUSDWei,\n        uint registrationPriceWei,\n        uint claps,\n        uint reward\n    );\n\n    constructor () public {\n        owner = msg.sender;\n    }\n\n    function () external payable {}\n\n    function assess(\n        uint registrationPriceUSDWei,\n        uint ETHPriceUSDWei,\n        string[] memory names,\n        address payable[] memory addresses,\n        uint[] memory claps\n    ) public {\n        require(msg.sender == owner, NOT_OWNER);\n        require(ETHPriceUSDWei > 0, INVALID_ETH_PRICE);\n        require(names.length == addresses.length, NAMES_DIFFER_ADDRESSES);\n        require(addresses.length == claps.length, ADDRESSES_DIFFER_CLAPS);\n        uint registrationPriceWei =\n            registrationPriceUSDWei.mul(1 ether).div(ETHPriceUSDWei);\n        uint totalPriceWei = registrationPriceWei.mul(addresses.length);\n        require(address(this).balance >= totalPriceWei, INSUFFICIENT_VALUE);\n        uint totalClaps = 0;\n        for (uint i = 0; i < claps.length; i = i.add(1)) {\n            totalClaps = totalClaps.add(claps[i]);\n        }\n        uint[] memory rewards = new uint[](claps.length);\n        for (uint i = 0; i < claps.length; i = i.add(1)) {\n            rewards[i] = claps[i].mul(totalPriceWei).div(totalClaps);\n        }\n        emit Assessment(\n            registrationPriceUSDWei,\n            ETHPriceUSDWei,\n            names,\n            addresses,\n            claps,\n            registrationPriceWei,\n            totalPriceWei,\n            totalClaps,\n            rewards\n        );\n        for (uint i = 0; i < addresses.length; i = i.add(1)) {\n            if (rewards[i] > 0 && addresses[i].send(rewards[i])) {\n                emit Transfer(\n                    names[i],\n                    addresses[i],\n                    registrationPriceUSDWei,\n                    registrationPriceWei,\n                    claps[i],\n                    rewards[i]\n                );\n            }\n        }\n    }\n}\n",
  "sourcePath": "/home/e18r/code/coinosis/contracts/Coinosis.sol",
  "compiler": {
    "name": "solc",
    "version": "0.5.16+commit.9c3226ce.Emscripten.clang"
  },
  "schemaVersion": "3.0.23",
  "updatedAt": "2020-04-20T01:39:24.688Z",
  "networkType": "ethereum",
  "devdoc": {
    "methods": {}
  },
  "userdoc": {
    "methods": {}
  }
}