{
  "contractName": "Coinosis",
  "abi": [
    {
      "inputs": [],
      "payable": false,
      "stateMutability": "nonpayable",
      "type": "constructor"
    },
    {
      "anonymous": false,
      "inputs": [
        {
          "indexed": false,
          "internalType": "uint256",
          "name": "timestamp",
          "type": "uint256"
        },
        {
          "indexed": true,
          "internalType": "string",
          "name": "eventURL",
          "type": "string"
        },
        {
          "indexed": false,
          "internalType": "uint256",
          "name": "registrationFeeUSDWei",
          "type": "uint256"
        },
        {
          "indexed": false,
          "internalType": "uint256",
          "name": "ETHPriceUSDWei",
          "type": "uint256"
        },
        {
          "indexed": false,
          "internalType": "string[]",
          "name": "names",
          "type": "string[]"
        },
        {
          "indexed": false,
          "internalType": "address payable[]",
          "name": "addresses",
          "type": "address[]"
        },
        {
          "indexed": false,
          "internalType": "uint256[]",
          "name": "claps",
          "type": "uint256[]"
        },
        {
          "indexed": false,
          "internalType": "uint256",
          "name": "registrationFeeWei",
          "type": "uint256"
        },
        {
          "indexed": false,
          "internalType": "uint256",
          "name": "totalFeesWei",
          "type": "uint256"
        },
        {
          "indexed": false,
          "internalType": "uint256",
          "name": "totalClaps",
          "type": "uint256"
        },
        {
          "indexed": false,
          "internalType": "uint256[]",
          "name": "rewards",
          "type": "uint256[]"
        }
      ],
      "name": "Assessment",
      "type": "event"
    },
    {
      "anonymous": false,
      "inputs": [
        {
          "indexed": false,
          "internalType": "uint256",
          "name": "rewardedAmount",
          "type": "uint256"
        }
      ],
      "name": "RewardedAmount",
      "type": "event"
    },
    {
      "anonymous": false,
      "inputs": [
        {
          "indexed": false,
          "internalType": "string",
          "name": "name",
          "type": "string"
        },
        {
          "indexed": true,
          "internalType": "address",
          "name": "addr",
          "type": "address"
        },
        {
          "indexed": false,
          "internalType": "uint256",
          "name": "registrationFeeUSDWei",
          "type": "uint256"
        },
        {
          "indexed": false,
          "internalType": "uint256",
          "name": "registrationFeeWei",
          "type": "uint256"
        },
        {
          "indexed": false,
          "internalType": "uint256",
          "name": "claps",
          "type": "uint256"
        },
        {
          "indexed": false,
          "internalType": "uint256",
          "name": "reward",
          "type": "uint256"
        }
      ],
      "name": "Transfer",
      "type": "event"
    },
    {
      "payable": true,
      "stateMutability": "payable",
      "type": "fallback"
    },
    {
      "constant": true,
      "inputs": [],
      "name": "version",
      "outputs": [
        {
          "internalType": "string",
          "name": "",
          "type": "string"
        }
      ],
      "payable": false,
      "stateMutability": "view",
      "type": "function"
    },
    {
      "constant": false,
      "inputs": [],
      "name": "decommission",
      "outputs": [],
      "payable": false,
      "stateMutability": "nonpayable",
      "type": "function"
    },
    {
      "constant": false,
      "inputs": [
        {
          "internalType": "string",
          "name": "eventURL",
          "type": "string"
        },
        {
          "internalType": "uint256",
          "name": "registrationFeeUSDWei",
          "type": "uint256"
        },
        {
          "internalType": "uint256",
          "name": "ETHPriceUSDWei",
          "type": "uint256"
        },
        {
          "internalType": "string[]",
          "name": "names",
          "type": "string[]"
        },
        {
          "internalType": "address payable[]",
          "name": "addresses",
          "type": "address[]"
        },
        {
          "internalType": "uint256[]",
          "name": "claps",
          "type": "uint256[]"
        }
      ],
      "name": "assess",
      "outputs": [],
      "payable": false,
      "stateMutability": "nonpayable",
      "type": "function"
    }
  ],
  "bytecode": "0x60806040526040518060400160405280600581526020017f312e332e310000000000000000000000000000000000000000000000000000008152506000908051906020019062000051929190620000a7565b503480156200005f57600080fd5b5033600160006101000a81548173ffffffffffffffffffffffffffffffffffffffff021916908373ffffffffffffffffffffffffffffffffffffffff16021790555062000156565b828054600181600116156101000203166002900490600052602060002090601f016020900481019282601f10620000ea57805160ff19168380011785556200011b565b828001600101855582156200011b579182015b828111156200011a578251825591602001919060010190620000fd565b5b5090506200012a91906200012e565b5090565b6200015391905b808211156200014f57600081600090555060010162000135565b5090565b90565b61161180620001666000396000f3fe6080604052600436106100345760003560e01c8063293071051461003657806354fd4d501461005f5780637f068c0f1461008a575b005b34801561004257600080fd5b5061005d60048036036100589190810190610bc9565b6100a1565b005b34801561006b57600080fd5b50610074610688565b6040516100819190610fed565b60405180910390f35b34801561009657600080fd5b5061009f610726565b005b600160009054906101000a900473ffffffffffffffffffffffffffffffffffffffff1673ffffffffffffffffffffffffffffffffffffffff163373ffffffffffffffffffffffffffffffffffffffff16146040518060600160405280602f8152602001611447602f91399061014c576040517f08c379a00000000000000000000000000000000000000000000000000000000081526004016101439190610fed565b60405180910390fd5b506000841160405180606001604052806035815260200161159a60359139906101ab576040517f08c379a00000000000000000000000000000000000000000000000000000000081526004016101a29190610fed565b60405180910390fd5b508151835114604051806080016040528060518152602001611476605191399061020b576040517f08c379a00000000000000000000000000000000000000000000000000000000081526004016102029190610fed565b60405180910390fd5b5080518251146040518060800160405280605181526020016114e8605191399061026b576040517f08c379a00000000000000000000000000000000000000000000000000000000081526004016102629190610fed565b60405180910390fd5b50600061029b8561028d670de0b6b3a76400008961080d90919063ffffffff16565b61087d90919063ffffffff16565b905060006102b384518361080d90919063ffffffff16565b9050804710156040518060a00160405280606181526020016115396061913990610313576040517f08c379a000000000000000000000000000000000000000000000000000000000815260040161030a9190610fed565b60405180910390fd5b50600080905060008090505b845181101561036b5761034e85828151811061033757fe5b6020026020010151836108c790919063ffffffff16565b91506103646001826108c790919063ffffffff16565b905061031f565b50600081116040518060600160405280602181526020016114c760219139906103ca576040517f08c379a00000000000000000000000000000000000000000000000000000000081526004016103c19190610fed565b60405180910390fd5b50606084516040519080825280602002602001820160405280156103fd5781602001602082028038833980820191505090505b50905060008090505b855181101561047a57610447836104398689858151811061042357fe5b602002602001015161080d90919063ffffffff16565b61087d90919063ffffffff16565b82828151811061045357fe5b6020026020010181815250506104736001826108c790919063ffffffff16565b9050610406565b50896040516104899190610fd6565b60405180910390207f5e59a8025184c1608567a405f6ce99185bf136419d33deb04d2d822957d294c5428b8b8b8b8b8b8b8b8b6040516104d29a999897969594939291906110e6565b60405180910390a2600080905060008090505b87518110156106435760008382815181106104fc57fe5b6020026020010151118015610568575087818151811061051857fe5b602002602001015173ffffffffffffffffffffffffffffffffffffffff166108fc84838151811061054557fe5b60200260200101519081150290604051600060405180830381858888f193505050505b156106285787818151811061057957fe5b602002602001015173ffffffffffffffffffffffffffffffffffffffff167f70cc3d2d4d11510af102774a4477bfb3764c6c13a1eeb06fce821af8ed63d2bd8a83815181106105c457fe5b60200260200101518d898b86815181106105da57fe5b60200260200101518887815181106105ee57fe5b6020026020010151604051610607959493929190611031565b60405180910390a282818151811061061b57fe5b6020026020010151820191505b61063c6001826108c790919063ffffffff16565b90506104e5565b507ff45ef13729b4b44bf31cfc593a8c10a2f431141062af083154b2737f808cc56f8160405161067391906110cb565b60405180910390a15050505050505050505050565b60008054600181600116156101000203166002900480601f01602080910402602001604051908101604052809291908181526020018280546001816001161561010002031660029004801561071e5780601f106106f35761010080835404028352916020019161071e565b820191906000526020600020905b81548152906001019060200180831161070157829003601f168201915b505050505081565b600160009054906101000a900473ffffffffffffffffffffffffffffffffffffffff1673ffffffffffffffffffffffffffffffffffffffff163373ffffffffffffffffffffffffffffffffffffffff16146040518060600160405280602f8152602001611447602f9139906107d1576040517f08c379a00000000000000000000000000000000000000000000000000000000081526004016107c89190610fed565b60405180910390fd5b50600160009054906101000a900473ffffffffffffffffffffffffffffffffffffffff1673ffffffffffffffffffffffffffffffffffffffff16ff5b6000808314156108205760009050610877565b600082840290508284828161083157fe5b0414610872576040517f08c379a0000000000000000000000000000000000000000000000000000000008152600401610869906110ab565b60405180910390fd5b809150505b92915050565b60006108bf83836040518060400160405280601a81526020017f536166654d6174683a206469766973696f6e206279207a65726f00000000000081525061091c565b905092915050565b600080828401905083811015610912576040517f08c379a00000000000000000000000000000000000000000000000000000000081526004016109099061108b565b60405180910390fd5b8091505092915050565b60008083118290610963576040517f08c379a000000000000000000000000000000000000000000000000000000000815260040161095a919061100f565b60405180910390fd5b50600083858161096f57fe5b049050809150509392505050565b60008135905061098c81611418565b92915050565b600082601f8301126109a357600080fd5b81356109b66109b1826111cb565b61119e565b915081818352602084019350602081019050838560208402820111156109db57600080fd5b60005b83811015610a0b57816109f1888261097d565b8452602084019350602083019250506001810190506109de565b5050505092915050565b600082601f830112610a2657600080fd5b8135610a39610a34826111f3565b61119e565b9150818183526020840193506020810190508360005b83811015610a7f5781358601610a658882610b0c565b845260208401935060208301925050600181019050610a4f565b5050505092915050565b600082601f830112610a9a57600080fd5b8135610aad610aa88261121b565b61119e565b91508181835260208401935060208101905083856020840282011115610ad257600080fd5b60005b83811015610b025781610ae88882610bb4565b845260208401935060208301925050600181019050610ad5565b5050505092915050565b600082601f830112610b1d57600080fd5b8135610b30610b2b82611243565b61119e565b91508082526020830160208301858383011115610b4c57600080fd5b610b578382846113c5565b50505092915050565b600082601f830112610b7157600080fd5b8135610b84610b7f8261126f565b61119e565b91508082526020830160208301858383011115610ba057600080fd5b610bab8382846113c5565b50505092915050565b600081359050610bc38161142f565b92915050565b60008060008060008060c08789031215610be257600080fd5b600087013567ffffffffffffffff811115610bfc57600080fd5b610c0889828a01610b60565b9650506020610c1989828a01610bb4565b9550506040610c2a89828a01610bb4565b945050606087013567ffffffffffffffff811115610c4757600080fd5b610c5389828a01610a15565b935050608087013567ffffffffffffffff811115610c7057600080fd5b610c7c89828a01610992565b92505060a087013567ffffffffffffffff811115610c9957600080fd5b610ca589828a01610a89565b9150509295509295509295565b6000610cbe8383610cf6565b60208301905092915050565b6000610cd68383610ea0565b905092915050565b6000610cea8383610fb8565b60208301905092915050565b610cff81611389565b82525050565b6000610d10826112cb565b610d1a8185611329565b9350610d258361129b565b8060005b83811015610d56578151610d3d8882610cb2565b9750610d4883611302565b925050600181019050610d29565b5085935050505092915050565b6000610d6e826112d6565b610d78818561133a565b935083602082028501610d8a856112ab565b8060005b85811015610dc65784840389528151610da78582610cca565b9450610db28361130f565b925060208a01995050600181019050610d8e565b50829750879550505050505092915050565b6000610de3826112e1565b610ded818561134b565b9350610df8836112bb565b8060005b83811015610e29578151610e108882610cde565b9750610e1b8361131c565b925050600181019050610dfc565b5085935050505092915050565b6000610e41826112f7565b610e4b818561136d565b9350610e5b8185602086016113d4565b610e6481611407565b840191505092915050565b6000610e7a826112f7565b610e84818561137e565b9350610e948185602086016113d4565b80840191505092915050565b6000610eab826112ec565b610eb5818561135c565b9350610ec58185602086016113d4565b610ece81611407565b840191505092915050565b6000610ee4826112ec565b610eee818561136d565b9350610efe8185602086016113d4565b610f0781611407565b840191505092915050565b6000610f1f601b8361136d565b91507f536166654d6174683a206164646974696f6e206f766572666c6f7700000000006000830152602082019050919050565b6000610f5f60218361136d565b91507f536166654d6174683a206d756c7469706c69636174696f6e206f766572666c6f60008301527f77000000000000000000000000000000000000000000000000000000000000006020830152604082019050919050565b610fc1816113bb565b82525050565b610fd0816113bb565b82525050565b6000610fe28284610e6f565b915081905092915050565b600060208201905081810360008301526110078184610ed9565b905092915050565b600060208201905081810360008301526110298184610e36565b905092915050565b600060a082019050818103600083015261104b8188610ed9565b905061105a6020830187610fc7565b6110676040830186610fc7565b6110746060830185610fc7565b6110816080830184610fc7565b9695505050505050565b600060208201905081810360008301526110a481610f12565b9050919050565b600060208201905081810360008301526110c481610f52565b9050919050565b60006020820190506110e06000830184610fc7565b92915050565b6000610140820190506110fc600083018d610fc7565b611109602083018c610fc7565b611116604083018b610fc7565b8181036060830152611128818a610d63565b9050818103608083015261113c8189610d05565b905081810360a08301526111508188610dd8565b905061115f60c0830187610fc7565b61116c60e0830186610fc7565b61117a610100830185610fc7565b81810361012083015261118d8184610dd8565b90509b9a5050505050505050505050565b6000604051905081810181811067ffffffffffffffff821117156111c157600080fd5b8060405250919050565b600067ffffffffffffffff8211156111e257600080fd5b602082029050602081019050919050565b600067ffffffffffffffff82111561120a57600080fd5b602082029050602081019050919050565b600067ffffffffffffffff82111561123257600080fd5b602082029050602081019050919050565b600067ffffffffffffffff82111561125a57600080fd5b601f19601f8301169050602081019050919050565b600067ffffffffffffffff82111561128657600080fd5b601f19601f8301169050602081019050919050565b6000819050602082019050919050565b6000819050602082019050919050565b6000819050602082019050919050565b600081519050919050565b600081519050919050565b600081519050919050565b600081519050919050565b600081519050919050565b6000602082019050919050565b6000602082019050919050565b6000602082019050919050565b600082825260208201905092915050565b600082825260208201905092915050565b600082825260208201905092915050565b600082825260208201905092915050565b600082825260208201905092915050565b600081905092915050565b60006113948261139b565b9050919050565b600073ffffffffffffffffffffffffffffffffffffffff82169050919050565b6000819050919050565b82818337600083830152505050565b60005b838110156113f25780820151818401526020810190506113d7565b83811115611401576000848401525b50505050565b6000601f19601f8301169050919050565b61142181611389565b811461142c57600080fd5b50565b611438816113bb565b811461144357600080fd5b5056fe5468652073656e646572206163636f756e74206973206e6f7420746865206f776e657220286e6f742d6f776e65722954686520616d6f756e74206f66206e616d657320646966666572732066726f6d2074686520616d6f756e74206f662061646472657373657320286e616d65732d6469666665722d61646472657373657329416c6c2074686520636c61707320617265207a65726f20286e6f2d636c6170732954686520616d6f756e74206f662061646472657373657320646966666572732066726f6d2074686520616d6f756e74206f6620636c61707320286164647265737365732d6469666665722d636c617073295468652065746865722076616c756520696e207468697320636f6e7472616374206973206c657373207468616e2074686520746f74616c207265776172642076616c756520746f2073656e642028696e73756666696369656e742d76616c7565295468652070726f76696465642045544820707269636520697320696e76616c69642028696e76616c69642d6574682d707269636529a365627a7a723158208aa3b86c36266896ded1769e855b319889042288d62f5032c07336d71f36518e6c6578706572696d656e74616cf564736f6c63430005100040",
  "source": "pragma solidity 0.5.16;\npragma experimental ABIEncoderV2;\n\nimport \"@openzeppelin/contracts/math/SafeMath.sol\";\n\ncontract Coinosis {\n\n    using SafeMath for uint;\n\n    string constant NOT_OWNER = \"The sender account is not the owner \\\n(not-owner)\";\n    string constant INVALID_ETH_PRICE = \"The provided ETH price is invalid \\\n(invalid-eth-price)\";\n    string constant NAMES_DIFFER_ADDRESSES =\n        \"The amount of names differs from the amount of addresses \\\n(names-differ-addresses)\";\n    string constant ADDRESSES_DIFFER_CLAPS =\n        \"The amount of addresses differs from the amount of claps \\\n(addresses-differ-claps)\";\n    string constant INSUFFICIENT_VALUE =\n        \"The ether value in this contract is less than the total reward value \\\nto send (insufficient-value)\";\n    string constant NO_CLAPS = \"All the claps are zero (no-claps)\";\n\n    string public version = \"1.3.1\";\n    address payable private owner;\n\n    event Assessment(\n        uint timestamp,\n        string indexed eventURL,\n        uint registrationFeeUSDWei,\n        uint ETHPriceUSDWei,\n        string[] names,\n        address payable[] addresses,\n        uint[] claps,\n        uint registrationFeeWei,\n        uint totalFeesWei,\n        uint totalClaps,\n        uint[] rewards\n    );\n    event Transfer(\n        string name,\n        address indexed addr,\n        uint registrationFeeUSDWei,\n        uint registrationFeeWei,\n        uint claps,\n        uint reward\n    );\n    event RewardedAmount(uint rewardedAmount);\n\n    constructor () public {\n        owner = msg.sender;\n    }\n\n    function () external payable {}\n\n    function decommission() public {\n        require(msg.sender == owner, NOT_OWNER);\n        selfdestruct(owner);\n    }\n\n    function assess(\n        string memory eventURL,\n        uint registrationFeeUSDWei,\n        uint ETHPriceUSDWei,\n        string[] memory names,\n        address payable[] memory addresses,\n        uint[] memory claps\n    ) public {\n        require(msg.sender == owner, NOT_OWNER);\n        require(ETHPriceUSDWei > 0, INVALID_ETH_PRICE);\n        require(names.length == addresses.length, NAMES_DIFFER_ADDRESSES);\n        require(addresses.length == claps.length, ADDRESSES_DIFFER_CLAPS);\n        uint registrationFeeWei =\n            registrationFeeUSDWei.mul(1 ether).div(ETHPriceUSDWei);\n        uint totalFeesWei = registrationFeeWei.mul(addresses.length);\n        require(address(this).balance >= totalFeesWei, INSUFFICIENT_VALUE);\n        uint totalClaps = 0;\n        for (uint i = 0; i < claps.length; i = i.add(1)) {\n            totalClaps = totalClaps.add(claps[i]);\n        }\n        require(totalClaps > 0, NO_CLAPS);\n        uint[] memory rewards = new uint[](claps.length);\n        for (uint i = 0; i < claps.length; i = i.add(1)) {\n            rewards[i] = claps[i].mul(totalFeesWei).div(totalClaps);\n        }\n        emit Assessment(\n            now,\n            eventURL,\n            registrationFeeUSDWei,\n            ETHPriceUSDWei,\n            names,\n            addresses,\n            claps,\n            registrationFeeWei,\n            totalFeesWei,\n            totalClaps,\n            rewards\n        );\n        uint rewardedAmount = 0;\n        for (uint i = 0; i < addresses.length; i = i.add(1)) {\n            if (rewards[i] > 0 && addresses[i].send(rewards[i])) {\n                emit Transfer(\n                    names[i],\n                    addresses[i],\n                    registrationFeeUSDWei,\n                    registrationFeeWei,\n                    claps[i],\n                    rewards[i]\n                );\n                rewardedAmount += rewards[i];\n            }\n        }\n        emit RewardedAmount(rewardedAmount);\n    }\n}\n",
  "sourcePath": "/home/e18r/code/coinosis/contracts/Coinosis.sol",
  "compiler": {
    "name": "solc",
    "version": "0.5.16+commit.9c3226ce.Emscripten.clang"
  },
  "schemaVersion": "3.2.0",
  "updatedAt": "2020-06-05T18:45:51.297Z",
  "networkType": "ethereum",
  "devdoc": {
    "methods": {}
  },
  "userdoc": {
    "methods": {}
  }
}