{
  "contractName": "Coinosis",
  "abi": [
    {
      "inputs": [],
      "payable": false,
      "stateMutability": "nonpayable",
      "type": "constructor"
    },
    {
      "anonymous": false,
      "inputs": [
        {
          "indexed": false,
          "internalType": "uint256",
          "name": "timestamp",
          "type": "uint256"
        },
        {
          "indexed": false,
          "internalType": "uint256",
          "name": "registrationFeeUSDWei",
          "type": "uint256"
        },
        {
          "indexed": false,
          "internalType": "uint256",
          "name": "ETHPriceUSDWei",
          "type": "uint256"
        },
        {
          "indexed": false,
          "internalType": "string[]",
          "name": "names",
          "type": "string[]"
        },
        {
          "indexed": false,
          "internalType": "address payable[]",
          "name": "addresses",
          "type": "address[]"
        },
        {
          "indexed": false,
          "internalType": "uint256[]",
          "name": "claps",
          "type": "uint256[]"
        },
        {
          "indexed": false,
          "internalType": "uint256",
          "name": "registrationFeeWei",
          "type": "uint256"
        },
        {
          "indexed": false,
          "internalType": "uint256",
          "name": "totalFeesWei",
          "type": "uint256"
        },
        {
          "indexed": false,
          "internalType": "uint256",
          "name": "totalClaps",
          "type": "uint256"
        },
        {
          "indexed": false,
          "internalType": "uint256[]",
          "name": "rewards",
          "type": "uint256[]"
        }
      ],
      "name": "Assessment",
      "type": "event"
    },
    {
      "anonymous": false,
      "inputs": [
        {
          "indexed": false,
          "internalType": "uint256",
          "name": "rewardedAmount",
          "type": "uint256"
        }
      ],
      "name": "RewardedAmount",
      "type": "event"
    },
    {
      "anonymous": false,
      "inputs": [
        {
          "indexed": false,
          "internalType": "string",
          "name": "name",
          "type": "string"
        },
        {
          "indexed": true,
          "internalType": "address",
          "name": "addr",
          "type": "address"
        },
        {
          "indexed": false,
          "internalType": "uint256",
          "name": "registrationFeeUSDWei",
          "type": "uint256"
        },
        {
          "indexed": false,
          "internalType": "uint256",
          "name": "registrationFeeWei",
          "type": "uint256"
        },
        {
          "indexed": false,
          "internalType": "uint256",
          "name": "claps",
          "type": "uint256"
        },
        {
          "indexed": false,
          "internalType": "uint256",
          "name": "reward",
          "type": "uint256"
        }
      ],
      "name": "Transfer",
      "type": "event"
    },
    {
      "payable": true,
      "stateMutability": "payable",
      "type": "fallback"
    },
    {
      "constant": true,
      "inputs": [],
      "name": "version",
      "outputs": [
        {
          "internalType": "string",
          "name": "",
          "type": "string"
        }
      ],
      "payable": false,
      "stateMutability": "view",
      "type": "function"
    },
    {
      "constant": false,
      "inputs": [],
      "name": "decommission",
      "outputs": [],
      "payable": false,
      "stateMutability": "nonpayable",
      "type": "function"
    },
    {
      "constant": false,
      "inputs": [
        {
          "internalType": "uint256",
          "name": "registrationFeeUSDWei",
          "type": "uint256"
        },
        {
          "internalType": "uint256",
          "name": "ETHPriceUSDWei",
          "type": "uint256"
        },
        {
          "internalType": "string[]",
          "name": "names",
          "type": "string[]"
        },
        {
          "internalType": "address payable[]",
          "name": "addresses",
          "type": "address[]"
        },
        {
          "internalType": "uint256[]",
          "name": "claps",
          "type": "uint256[]"
        }
      ],
      "name": "assess",
      "outputs": [],
      "payable": false,
      "stateMutability": "nonpayable",
      "type": "function"
    }
  ],
  "bytecode": "0x60806040526040518060400160405280600581526020017f312e322e310000000000000000000000000000000000000000000000000000008152506000908051906020019062000051929190620000a7565b503480156200005f57600080fd5b5033600160006101000a81548173ffffffffffffffffffffffffffffffffffffffff021916908373ffffffffffffffffffffffffffffffffffffffff16021790555062000156565b828054600181600116156101000203166002900490600052602060002090601f016020900481019282601f10620000ea57805160ff19168380011785556200011b565b828001600101855582156200011b579182015b828111156200011a578251825591602001919060010190620000fd565b5b5090506200012a91906200012e565b5090565b6200015391905b808211156200014f57600081600090555060010162000135565b5090565b90565b6114fd80620001666000396000f3fe6080604052600436106100345760003560e01c806354fd4d50146100365780635afb3405146100615780637f068c0f1461008a575b005b34801561004257600080fd5b5061004b6100a1565b6040516100589190610f10565b60405180910390f35b34801561006d57600080fd5b5061008860048036036100839190810190610b5e565b61013f565b005b34801561009657600080fd5b5061009f61070f565b005b60008054600181600116156101000203166002900480601f0160208091040260200160405190810160405280929190818152602001828054600181600116156101000203166002900480156101375780601f1061010c57610100808354040283529160200191610137565b820191906000526020600020905b81548152906001019060200180831161011a57829003601f168201915b505050505081565b600160009054906101000a900473ffffffffffffffffffffffffffffffffffffffff1673ffffffffffffffffffffffffffffffffffffffff163373ffffffffffffffffffffffffffffffffffffffff16146040518060600160405280602f8152602001611333602f9139906101ea576040517f08c379a00000000000000000000000000000000000000000000000000000000081526004016101e19190610f10565b60405180910390fd5b50600084116040518060600160405280603581526020016114866035913990610249576040517f08c379a00000000000000000000000000000000000000000000000000000000081526004016102409190610f10565b60405180910390fd5b50815183511460405180608001604052806051815260200161136260519139906102a9576040517f08c379a00000000000000000000000000000000000000000000000000000000081526004016102a09190610f10565b60405180910390fd5b5080518251146040518060800160405280605181526020016113d46051913990610309576040517f08c379a00000000000000000000000000000000000000000000000000000000081526004016103009190610f10565b60405180910390fd5b5060006103398561032b670de0b6b3a7640000896107f690919063ffffffff16565b61086690919063ffffffff16565b905060006103518451836107f690919063ffffffff16565b9050804710156040518060a001604052806061815260200161142560619139906103b1576040517f08c379a00000000000000000000000000000000000000000000000000000000081526004016103a89190610f10565b60405180910390fd5b50600080905060008090505b8451811015610409576103ec8582815181106103d557fe5b6020026020010151836108b090919063ffffffff16565b91506104026001826108b090919063ffffffff16565b90506103bd565b50600081116040518060600160405280602181526020016113b36021913990610468576040517f08c379a000000000000000000000000000000000000000000000000000000000815260040161045f9190610f10565b60405180910390fd5b506060845160405190808252806020026020018201604052801561049b5781602001602082028038833980820191505090505b50905060008090505b8551811015610518576104e5836104d7868985815181106104c157fe5b60200260200101516107f690919063ffffffff16565b61086690919063ffffffff16565b8282815181106104f157fe5b6020026020010181815250506105116001826108b090919063ffffffff16565b90506104a4565b507f279c363658f0b65a16575110be97793651e216426bbbe2fe354cf8c48d7c757d428a8a8a8a8a8a8a8a8a60405161055a9a99989796959493929190611009565b60405180910390a1600080905060008090505b87518110156106cb57600083828151811061058457fe5b60200260200101511180156105f057508781815181106105a057fe5b602002602001015173ffffffffffffffffffffffffffffffffffffffff166108fc8483815181106105cd57fe5b60200260200101519081150290604051600060405180830381858888f193505050505b156106b05787818151811061060157fe5b602002602001015173ffffffffffffffffffffffffffffffffffffffff167f70cc3d2d4d11510af102774a4477bfb3764c6c13a1eeb06fce821af8ed63d2bd8a838151811061064c57fe5b60200260200101518d898b868151811061066257fe5b602002602001015188878151811061067657fe5b602002602001015160405161068f959493929190610f54565b60405180910390a28281815181106106a357fe5b6020026020010151820191505b6106c46001826108b090919063ffffffff16565b905061056d565b507ff45ef13729b4b44bf31cfc593a8c10a2f431141062af083154b2737f808cc56f816040516106fb9190610fee565b60405180910390a150505050505050505050565b600160009054906101000a900473ffffffffffffffffffffffffffffffffffffffff1673ffffffffffffffffffffffffffffffffffffffff163373ffffffffffffffffffffffffffffffffffffffff16146040518060600160405280602f8152602001611333602f9139906107ba576040517f08c379a00000000000000000000000000000000000000000000000000000000081526004016107b19190610f10565b60405180910390fd5b50600160009054906101000a900473ffffffffffffffffffffffffffffffffffffffff1673ffffffffffffffffffffffffffffffffffffffff16ff5b6000808314156108095760009050610860565b600082840290508284828161081a57fe5b041461085b576040517f08c379a000000000000000000000000000000000000000000000000000000000815260040161085290610fce565b60405180910390fd5b809150505b92915050565b60006108a883836040518060400160405280601a81526020017f536166654d6174683a206469766973696f6e206279207a65726f000000000000815250610905565b905092915050565b6000808284019050838110156108fb576040517f08c379a00000000000000000000000000000000000000000000000000000000081526004016108f290610fae565b60405180910390fd5b8091505092915050565b6000808311829061094c576040517f08c379a00000000000000000000000000000000000000000000000000000000081526004016109439190610f32565b60405180910390fd5b50600083858161095857fe5b049050809150509392505050565b60008135905061097581611304565b92915050565b600082601f83011261098c57600080fd5b813561099f61099a826110ee565b6110c1565b915081818352602084019350602081019050838560208402820111156109c457600080fd5b60005b838110156109f457816109da8882610966565b8452602084019350602083019250506001810190506109c7565b5050505092915050565b600082601f830112610a0f57600080fd5b8135610a22610a1d82611116565b6110c1565b9150818183526020840193506020810190508360005b83811015610a685781358601610a4e8882610af5565b845260208401935060208301925050600181019050610a38565b5050505092915050565b600082601f830112610a8357600080fd5b8135610a96610a918261113e565b6110c1565b91508181835260208401935060208101905083856020840282011115610abb57600080fd5b60005b83811015610aeb5781610ad18882610b49565b845260208401935060208301925050600181019050610abe565b5050505092915050565b600082601f830112610b0657600080fd5b8135610b19610b1482611166565b6110c1565b91508082526020830160208301858383011115610b3557600080fd5b610b408382846112b1565b50505092915050565b600081359050610b588161131b565b92915050565b600080600080600060a08688031215610b7657600080fd5b6000610b8488828901610b49565b9550506020610b9588828901610b49565b945050604086013567ffffffffffffffff811115610bb257600080fd5b610bbe888289016109fe565b935050606086013567ffffffffffffffff811115610bdb57600080fd5b610be78882890161097b565b925050608086013567ffffffffffffffff811115610c0457600080fd5b610c1088828901610a72565b9150509295509295909350565b6000610c298383610c61565b60208301905092915050565b6000610c418383610dda565b905092915050565b6000610c558383610ef2565b60208301905092915050565b610c6a81611275565b82525050565b6000610c7b826111c2565b610c858185611220565b9350610c9083611192565b8060005b83811015610cc1578151610ca88882610c1d565b9750610cb3836111f9565b925050600181019050610c94565b5085935050505092915050565b6000610cd9826111cd565b610ce38185611231565b935083602082028501610cf5856111a2565b8060005b85811015610d315784840389528151610d128582610c35565b9450610d1d83611206565b925060208a01995050600181019050610cf9565b50829750879550505050505092915050565b6000610d4e826111d8565b610d588185611242565b9350610d63836111b2565b8060005b83811015610d94578151610d7b8882610c49565b9750610d8683611213565b925050600181019050610d67565b5085935050505092915050565b6000610dac826111ee565b610db68185611264565b9350610dc68185602086016112c0565b610dcf816112f3565b840191505092915050565b6000610de5826111e3565b610def8185611253565b9350610dff8185602086016112c0565b610e08816112f3565b840191505092915050565b6000610e1e826111e3565b610e288185611264565b9350610e388185602086016112c0565b610e41816112f3565b840191505092915050565b6000610e59601b83611264565b91507f536166654d6174683a206164646974696f6e206f766572666c6f7700000000006000830152602082019050919050565b6000610e99602183611264565b91507f536166654d6174683a206d756c7469706c69636174696f6e206f766572666c6f60008301527f77000000000000000000000000000000000000000000000000000000000000006020830152604082019050919050565b610efb816112a7565b82525050565b610f0a816112a7565b82525050565b60006020820190508181036000830152610f2a8184610e13565b905092915050565b60006020820190508181036000830152610f4c8184610da1565b905092915050565b600060a0820190508181036000830152610f6e8188610e13565b9050610f7d6020830187610f01565b610f8a6040830186610f01565b610f976060830185610f01565b610fa46080830184610f01565b9695505050505050565b60006020820190508181036000830152610fc781610e4c565b9050919050565b60006020820190508181036000830152610fe781610e8c565b9050919050565b60006020820190506110036000830184610f01565b92915050565b60006101408201905061101f600083018d610f01565b61102c602083018c610f01565b611039604083018b610f01565b818103606083015261104b818a610cce565b9050818103608083015261105f8189610c70565b905081810360a08301526110738188610d43565b905061108260c0830187610f01565b61108f60e0830186610f01565b61109d610100830185610f01565b8181036101208301526110b08184610d43565b90509b9a5050505050505050505050565b6000604051905081810181811067ffffffffffffffff821117156110e457600080fd5b8060405250919050565b600067ffffffffffffffff82111561110557600080fd5b602082029050602081019050919050565b600067ffffffffffffffff82111561112d57600080fd5b602082029050602081019050919050565b600067ffffffffffffffff82111561115557600080fd5b602082029050602081019050919050565b600067ffffffffffffffff82111561117d57600080fd5b601f19601f8301169050602081019050919050565b6000819050602082019050919050565b6000819050602082019050919050565b6000819050602082019050919050565b600081519050919050565b600081519050919050565b600081519050919050565b600081519050919050565b600081519050919050565b6000602082019050919050565b6000602082019050919050565b6000602082019050919050565b600082825260208201905092915050565b600082825260208201905092915050565b600082825260208201905092915050565b600082825260208201905092915050565b600082825260208201905092915050565b600061128082611287565b9050919050565b600073ffffffffffffffffffffffffffffffffffffffff82169050919050565b6000819050919050565b82818337600083830152505050565b60005b838110156112de5780820151818401526020810190506112c3565b838111156112ed576000848401525b50505050565b6000601f19601f8301169050919050565b61130d81611275565b811461131857600080fd5b50565b611324816112a7565b811461132f57600080fd5b5056fe5468652073656e646572206163636f756e74206973206e6f7420746865206f776e657220286e6f742d6f776e65722954686520616d6f756e74206f66206e616d657320646966666572732066726f6d2074686520616d6f756e74206f662061646472657373657320286e616d65732d6469666665722d61646472657373657329416c6c2074686520636c61707320617265207a65726f20286e6f2d636c6170732954686520616d6f756e74206f662061646472657373657320646966666572732066726f6d2074686520616d6f756e74206f6620636c61707320286164647265737365732d6469666665722d636c617073295468652065746865722076616c756520696e207468697320636f6e7472616374206973206c657373207468616e2074686520746f74616c207265776172642076616c756520746f2073656e642028696e73756666696369656e742d76616c7565295468652070726f76696465642045544820707269636520697320696e76616c69642028696e76616c69642d6574682d707269636529a365627a7a72315820e6a6564e28328ae3beb921afe939bbb96239581d98e0be2d6a292bf0ca88d8846c6578706572696d656e74616cf564736f6c63430005100040",
  "source": "pragma solidity 0.5.16;\npragma experimental ABIEncoderV2;\n\nimport \"@openzeppelin/contracts/math/SafeMath.sol\";\n\ncontract Coinosis {\n\n    using SafeMath for uint;\n\n    string constant NOT_OWNER = \"The sender account is not the owner \\\n(not-owner)\";\n    string constant INVALID_ETH_PRICE = \"The provided ETH price is invalid \\\n(invalid-eth-price)\";\n    string constant NAMES_DIFFER_ADDRESSES =\n        \"The amount of names differs from the amount of addresses \\\n(names-differ-addresses)\";\n    string constant ADDRESSES_DIFFER_CLAPS =\n        \"The amount of addresses differs from the amount of claps \\\n(addresses-differ-claps)\";\n    string constant INSUFFICIENT_VALUE =\n        \"The ether value in this contract is less than the total reward value \\\nto send (insufficient-value)\";\n    string constant NO_CLAPS = \"All the claps are zero (no-claps)\";\n\n    string public version = \"1.2.1\";\n    address payable private owner;\n\n    event Assessment(\n        uint timestamp,\n        uint registrationFeeUSDWei,\n        uint ETHPriceUSDWei,\n        string[] names,\n        address payable[] addresses,\n        uint[] claps,\n        uint registrationFeeWei,\n        uint totalFeesWei,\n        uint totalClaps,\n        uint[] rewards\n    );\n    event Transfer(\n        string name,\n        address indexed addr,\n        uint registrationFeeUSDWei,\n        uint registrationFeeWei,\n        uint claps,\n        uint reward\n    );\n    event RewardedAmount(uint rewardedAmount);\n\n    constructor () public {\n        owner = msg.sender;\n    }\n\n    function () external payable {}\n\n    function decommission() public {\n        require(msg.sender == owner, NOT_OWNER);\n        selfdestruct(owner);\n    }\n\n    function assess(\n        uint registrationFeeUSDWei,\n        uint ETHPriceUSDWei,\n        string[] memory names,\n        address payable[] memory addresses,\n        uint[] memory claps\n    ) public {\n        require(msg.sender == owner, NOT_OWNER);\n        require(ETHPriceUSDWei > 0, INVALID_ETH_PRICE);\n        require(names.length == addresses.length, NAMES_DIFFER_ADDRESSES);\n        require(addresses.length == claps.length, ADDRESSES_DIFFER_CLAPS);\n        uint registrationFeeWei =\n            registrationFeeUSDWei.mul(1 ether).div(ETHPriceUSDWei);\n        uint totalFeesWei = registrationFeeWei.mul(addresses.length);\n        require(address(this).balance >= totalFeesWei, INSUFFICIENT_VALUE);\n        uint totalClaps = 0;\n        for (uint i = 0; i < claps.length; i = i.add(1)) {\n            totalClaps = totalClaps.add(claps[i]);\n        }\n        require(totalClaps > 0, NO_CLAPS);\n        uint[] memory rewards = new uint[](claps.length);\n        for (uint i = 0; i < claps.length; i = i.add(1)) {\n            rewards[i] = claps[i].mul(totalFeesWei).div(totalClaps);\n        }\n        emit Assessment(\n            now,\n            registrationFeeUSDWei,\n            ETHPriceUSDWei,\n            names,\n            addresses,\n            claps,\n            registrationFeeWei,\n            totalFeesWei,\n            totalClaps,\n            rewards\n        );\n        uint rewardedAmount = 0;\n        for (uint i = 0; i < addresses.length; i = i.add(1)) {\n            if (rewards[i] > 0 && addresses[i].send(rewards[i])) {\n                emit Transfer(\n                    names[i],\n                    addresses[i],\n                    registrationFeeUSDWei,\n                    registrationFeeWei,\n                    claps[i],\n                    rewards[i]\n                );\n                rewardedAmount += rewards[i];\n            }\n        }\n        emit RewardedAmount(rewardedAmount);\n    }\n}\n",
  "sourcePath": "/home/e18r/code/coinosis/contracts/Coinosis.sol",
  "compiler": {
    "name": "solc",
    "version": "0.5.16+commit.9c3226ce.Emscripten.clang"
  },
  "schemaVersion": "3.0.23",
  "updatedAt": "2020-04-23T16:33:43.979Z",
  "networkType": "ethereum",
  "devdoc": {
    "methods": {}
  },
  "userdoc": {
    "methods": {}
  }
}