{
  "contractName": "Coinosis",
  "abi": [
    {
      "inputs": [],
      "payable": false,
      "stateMutability": "nonpayable",
      "type": "constructor"
    },
    {
      "anonymous": false,
      "inputs": [
        {
          "indexed": false,
          "internalType": "uint256",
          "name": "registrationPriceUSDWei",
          "type": "uint256"
        },
        {
          "indexed": false,
          "internalType": "uint256",
          "name": "ETHPriceUSDWei",
          "type": "uint256"
        },
        {
          "indexed": false,
          "internalType": "string[]",
          "name": "names",
          "type": "string[]"
        },
        {
          "indexed": false,
          "internalType": "address payable[]",
          "name": "addresses",
          "type": "address[]"
        },
        {
          "indexed": false,
          "internalType": "uint256[]",
          "name": "claps",
          "type": "uint256[]"
        },
        {
          "indexed": false,
          "internalType": "uint256",
          "name": "registrationPriceWei",
          "type": "uint256"
        },
        {
          "indexed": false,
          "internalType": "uint256",
          "name": "totalPriceWei",
          "type": "uint256"
        },
        {
          "indexed": false,
          "internalType": "uint256",
          "name": "totalClaps",
          "type": "uint256"
        },
        {
          "indexed": false,
          "internalType": "uint256[]",
          "name": "rewards",
          "type": "uint256[]"
        }
      ],
      "name": "Assessment",
      "type": "event"
    },
    {
      "anonymous": false,
      "inputs": [
        {
          "indexed": false,
          "internalType": "string",
          "name": "name",
          "type": "string"
        },
        {
          "indexed": false,
          "internalType": "address",
          "name": "addr",
          "type": "address"
        },
        {
          "indexed": false,
          "internalType": "uint256",
          "name": "registrationPriceUSDWei",
          "type": "uint256"
        },
        {
          "indexed": false,
          "internalType": "uint256",
          "name": "registrationPriceWei",
          "type": "uint256"
        },
        {
          "indexed": false,
          "internalType": "uint256",
          "name": "claps",
          "type": "uint256"
        },
        {
          "indexed": false,
          "internalType": "uint256",
          "name": "reward",
          "type": "uint256"
        }
      ],
      "name": "Transfer",
      "type": "event"
    },
    {
      "payable": true,
      "stateMutability": "payable",
      "type": "fallback"
    },
    {
      "constant": false,
      "inputs": [
        {
          "internalType": "uint256",
          "name": "registrationPriceUSDWei",
          "type": "uint256"
        },
        {
          "internalType": "uint256",
          "name": "ETHPriceUSDWei",
          "type": "uint256"
        },
        {
          "internalType": "string[]",
          "name": "names",
          "type": "string[]"
        },
        {
          "internalType": "address payable[]",
          "name": "addresses",
          "type": "address[]"
        },
        {
          "internalType": "uint256[]",
          "name": "claps",
          "type": "uint256[]"
        }
      ],
      "name": "assess",
      "outputs": [],
      "payable": false,
      "stateMutability": "nonpayable",
      "type": "function"
    }
  ],
  "bytecode": "0x608060405234801561001057600080fd5b50336000806101000a81548173ffffffffffffffffffffffffffffffffffffffff021916908373ffffffffffffffffffffffffffffffffffffffff160217905550610f24806100606000396000f3fe60806040526004361061001e5760003560e01c80635afb340514610020575b005b34801561002c57600080fd5b50610047600480360361004291908101906106c9565b610049565b005b6000809054906101000a900473ffffffffffffffffffffffffffffffffffffffff1673ffffffffffffffffffffffffffffffffffffffff163373ffffffffffffffffffffffffffffffffffffffff16146040518060600160405280602f8152602001610dcc602f9139906100f3576040517f08c379a00000000000000000000000000000000000000000000000000000000081526004016100ea91906109ab565b60405180910390fd5b5060008411604051806060016040528060358152602001610ead6035913990610152576040517f08c379a000000000000000000000000000000000000000000000000000000000815260040161014991906109ab565b60405180910390fd5b508151835114604051806080016040528060518152602001610d7b60519139906101b2576040517f08c379a00000000000000000000000000000000000000000000000000000000081526004016101a991906109ab565b60405180910390fd5b508051825114604051806080016040528060518152602001610dfb6051913990610212576040517f08c379a000000000000000000000000000000000000000000000000000000000815260040161020991906109ab565b60405180910390fd5b50600084670de0b6b3a764000087028161022857fe5b0490506000835182029050804710156040518060a0016040528060618152602001610e4c6061913990610291576040517f08c379a000000000000000000000000000000000000000000000000000000000815260040161028891906109ab565b60405180910390fd5b50600080905060008090505b84518110156102cb578481815181106102b257fe5b602002602001015182019150808060010191505061029d565b50606084516040519080825280602002602001820160405280156102fe5781602001602082028038833980820191505090505b50905060008090505b855181101561035457828487838151811061031e57fe5b6020026020010151028161032e57fe5b0482828151811061033b57fe5b6020026020010181815250508080600101915050610307565b507f151a5d86f07e958bba7e01d5eea97bbdda8241095ca3afaea5612e3f459a198489898989898989898960405161039499989796959493929190610a35565b60405180910390a160008090505b86518110156104c55760008282815181106103b957fe5b602002602001015111801561042557508681815181106103d557fe5b602002602001015173ffffffffffffffffffffffffffffffffffffffff166108fc83838151811061040257fe5b60200260200101519081150290604051600060405180830381858888f193505050505b156104b8577f70cc3d2d4d11510af102774a4477bfb3764c6c13a1eeb06fce821af8ed63d2bd88828151811061045757fe5b602002602001015188838151811061046b57fe5b60200260200101518c888a868151811061048157fe5b602002602001015187878151811061049557fe5b60200260200101516040516104af969594939291906109cd565b60405180910390a15b80806001019150506103a2565b50505050505050505050565b6000813590506104e081610d4c565b92915050565b600082601f8301126104f757600080fd5b813561050a61050582610b0b565b610ade565b9150818183526020840193506020810190508385602084028201111561052f57600080fd5b60005b8381101561055f578161054588826104d1565b845260208401935060208301925050600181019050610532565b5050505092915050565b600082601f83011261057a57600080fd5b813561058d61058882610b33565b610ade565b9150818183526020840193506020810190508360005b838110156105d357813586016105b98882610660565b8452602084019350602083019250506001810190506105a3565b5050505092915050565b600082601f8301126105ee57600080fd5b81356106016105fc82610b5b565b610ade565b9150818183526020840193506020810190508385602084028201111561062657600080fd5b60005b83811015610656578161063c88826106b4565b845260208401935060208301925050600181019050610629565b5050505092915050565b600082601f83011261067157600080fd5b813561068461067f82610b83565b610ade565b915080825260208301602083018583830111156106a057600080fd5b6106ab838284610cf9565b50505092915050565b6000813590506106c381610d63565b92915050565b600080600080600060a086880312156106e157600080fd5b60006106ef888289016106b4565b9550506020610700888289016106b4565b945050604086013567ffffffffffffffff81111561071d57600080fd5b61072988828901610569565b935050606086013567ffffffffffffffff81111561074657600080fd5b610752888289016104e6565b925050608086013567ffffffffffffffff81111561076f57600080fd5b61077b888289016105dd565b9150509295509295909350565b600061079483836107db565b60208301905092915050565b60006107ac838361091b565b905092915050565b60006107c0838361098d565b60208301905092915050565b6107d581610cc3565b82525050565b6107e481610c87565b82525050565b60006107f582610bdf565b6107ff8185610c32565b935061080a83610baf565b8060005b8381101561083b5781516108228882610788565b975061082d83610c0b565b92505060018101905061080e565b5085935050505092915050565b600061085382610bea565b61085d8185610c43565b93508360208202850161086f85610bbf565b8060005b858110156108ab578484038952815161088c85826107a0565b945061089783610c18565b925060208a01995050600181019050610873565b50829750879550505050505092915050565b60006108c882610bf5565b6108d28185610c54565b93506108dd83610bcf565b8060005b8381101561090e5781516108f588826107b4565b975061090083610c25565b9250506001810190506108e1565b5085935050505092915050565b600061092682610c00565b6109308185610c65565b9350610940818560208601610d08565b61094981610d3b565b840191505092915050565b600061095f82610c00565b6109698185610c76565b9350610979818560208601610d08565b61098281610d3b565b840191505092915050565b61099681610cb9565b82525050565b6109a581610cb9565b82525050565b600060208201905081810360008301526109c58184610954565b905092915050565b600060c08201905081810360008301526109e78189610954565b90506109f660208301886107cc565b610a03604083018761099c565b610a10606083018661099c565b610a1d608083018561099c565b610a2a60a083018461099c565b979650505050505050565b600061012082019050610a4b600083018c61099c565b610a58602083018b61099c565b8181036040830152610a6a818a610848565b90508181036060830152610a7e81896107ea565b90508181036080830152610a9281886108bd565b9050610aa160a083018761099c565b610aae60c083018661099c565b610abb60e083018561099c565b818103610100830152610ace81846108bd565b90509a9950505050505050505050565b6000604051905081810181811067ffffffffffffffff82111715610b0157600080fd5b8060405250919050565b600067ffffffffffffffff821115610b2257600080fd5b602082029050602081019050919050565b600067ffffffffffffffff821115610b4a57600080fd5b602082029050602081019050919050565b600067ffffffffffffffff821115610b7257600080fd5b602082029050602081019050919050565b600067ffffffffffffffff821115610b9a57600080fd5b601f19601f8301169050602081019050919050565b6000819050602082019050919050565b6000819050602082019050919050565b6000819050602082019050919050565b600081519050919050565b600081519050919050565b600081519050919050565b600081519050919050565b6000602082019050919050565b6000602082019050919050565b6000602082019050919050565b600082825260208201905092915050565b600082825260208201905092915050565b600082825260208201905092915050565b600082825260208201905092915050565b600082825260208201905092915050565b6000610c9282610c99565b9050919050565b600073ffffffffffffffffffffffffffffffffffffffff82169050919050565b6000819050919050565b6000610cce82610cd5565b9050919050565b6000610ce082610ce7565b9050919050565b6000610cf282610c99565b9050919050565b82818337600083830152505050565b60005b83811015610d26578082015181840152602081019050610d0b565b83811115610d35576000848401525b50505050565b6000601f19601f8301169050919050565b610d5581610c87565b8114610d6057600080fd5b50565b610d6c81610cb9565b8114610d7757600080fd5b5056fe546865206e756d626572206f66206e616d657320646966666572732066726f6d20746865206e756d626572206f662061646472657373657320286e616d65732d6469666665722d616464726573736573295468652073656e646572206163636f756e74206973206e6f7420746865206f776e657220286e6f742d6f776e657229546865206e756d626572206f662061646472657373657320646966666572732066726f6d20746865206e756d626572206f6620636c61707320286164647265737365732d6469666665722d636c617073295468652065746865722076616c756520696e207468697320636f6e7472616374206973206c657373207468616e2074686520746f74616c207265776172642076616c756520746f2073656e642028696e73756666696369656e742d76616c7565295468652070726f76696465642045544820707269636520697320696e76616c69642028696e76616c69642d6574682d707269636529a365627a7a72315820559a7eec95cb0743941524b54dcf582ff6ba33d0f13a6aa60fc0e2416b88b6326c6578706572696d656e74616cf564736f6c63430005100040",
  "source": "pragma solidity 0.5.16;\npragma experimental ABIEncoderV2;\n\ncontract Coinosis {\n\n    string constant NOT_OWNER = \"The sender account is not the owner \\\n(not-owner)\";\n    string constant INVALID_ETH_PRICE = \"The provided ETH price is invalid \\\n(invalid-eth-price)\";\n    string constant NAMES_DIFFER_ADDRESSES =\n        \"The number of names differs from the number of addresses \\\n(names-differ-addresses)\";\n    string constant ADDRESSES_DIFFER_CLAPS =\n        \"The number of addresses differs from the number of claps \\\n(addresses-differ-claps)\";\n    string constant INSUFFICIENT_VALUE =\n        \"The ether value in this contract is less than the total reward value \\\nto send (insufficient-value)\";\n    address private owner;\n\n    event Assessment(\n        uint registrationPriceUSDWei,\n        uint ETHPriceUSDWei,\n        string[] names,\n        address payable[] addresses,\n        uint[] claps,\n        uint registrationPriceWei,\n        uint totalPriceWei,\n        uint totalClaps,\n        uint[] rewards\n    );\n    event Transfer(\n        string name,\n        address addr,\n        uint registrationPriceUSDWei,\n        uint registrationPriceWei,\n        uint claps,\n        uint reward\n    );\n\n    constructor () public {\n        owner = msg.sender;\n    }\n\n    function () external payable {}\n\n    function assess(\n        uint registrationPriceUSDWei,\n        uint ETHPriceUSDWei,\n        string[] memory names,\n        address payable[] memory addresses,\n        uint[] memory claps\n    ) public { // TODO: use SafeMath\n        require(msg.sender == owner, NOT_OWNER);\n        require(ETHPriceUSDWei > 0, INVALID_ETH_PRICE);\n        require(names.length == addresses.length, NAMES_DIFFER_ADDRESSES);\n        require(addresses.length == claps.length, ADDRESSES_DIFFER_CLAPS);\n        uint registrationPriceWei =\n            registrationPriceUSDWei * 1 ether / ETHPriceUSDWei;\n        uint totalPriceWei = registrationPriceWei * addresses.length;\n        require(address(this).balance >= totalPriceWei, INSUFFICIENT_VALUE);\n        uint totalClaps = 0;\n        for (uint i = 0; i < claps.length; i++) {\n            totalClaps += claps[i];\n        }\n        uint[] memory rewards = new uint[](claps.length);\n        for (uint i = 0; i < claps.length; i++) {\n            rewards[i] = claps[i] * totalPriceWei / totalClaps;\n        }\n        emit Assessment(\n            registrationPriceUSDWei,\n            ETHPriceUSDWei,\n            names,\n            addresses,\n            claps,\n            registrationPriceWei,\n            totalPriceWei,\n            totalClaps,\n            rewards\n        );\n        for (uint i = 0; i < addresses.length; i++) {\n            if (rewards[i] > 0 && addresses[i].send(rewards[i])) {\n                emit Transfer(\n                    names[i],\n                    addresses[i],\n                    registrationPriceUSDWei,\n                    registrationPriceWei,\n                    claps[i],\n                    rewards[i]\n                );\n            }\n        }\n    }\n}\n",
  "sourcePath": "/home/e18r/code/coinosis/contracts/Coinosis.sol",
  "compiler": {
    "name": "solc",
    "version": "0.5.16+commit.9c3226ce.Emscripten.clang"
  },
  "schemaVersion": "3.0.23",
  "updatedAt": "2020-04-19T21:19:31.063Z",
  "networkType": "ethereum",
  "devdoc": {
    "methods": {}
  },
  "userdoc": {
    "methods": {}
  }
}