{
  "contractName": "CoinosisV0",
  "abi": [
    {
      "inputs": [],
      "payable": false,
      "stateMutability": "nonpayable",
      "type": "constructor"
    },
    {
      "anonymous": false,
      "inputs": [
        {
          "indexed": false,
          "internalType": "uint256",
          "name": "timestamp",
          "type": "uint256"
        },
        {
          "indexed": false,
          "internalType": "uint256",
          "name": "registrationFeeUSDWei",
          "type": "uint256"
        },
        {
          "indexed": false,
          "internalType": "uint256",
          "name": "ETHPriceUSDWei",
          "type": "uint256"
        },
        {
          "indexed": false,
          "internalType": "string[]",
          "name": "names",
          "type": "string[]"
        },
        {
          "indexed": false,
          "internalType": "address payable[]",
          "name": "addresses",
          "type": "address[]"
        },
        {
          "indexed": false,
          "internalType": "uint256[]",
          "name": "claps",
          "type": "uint256[]"
        },
        {
          "indexed": false,
          "internalType": "uint256",
          "name": "registrationFeeWei",
          "type": "uint256"
        },
        {
          "indexed": false,
          "internalType": "uint256",
          "name": "totalFeesWei",
          "type": "uint256"
        },
        {
          "indexed": false,
          "internalType": "uint256",
          "name": "totalClaps",
          "type": "uint256"
        },
        {
          "indexed": false,
          "internalType": "uint256[]",
          "name": "rewards",
          "type": "uint256[]"
        }
      ],
      "name": "Assessment",
      "type": "event"
    },
    {
      "anonymous": false,
      "inputs": [
        {
          "indexed": false,
          "internalType": "string",
          "name": "name",
          "type": "string"
        },
        {
          "indexed": false,
          "internalType": "address",
          "name": "addr",
          "type": "address"
        },
        {
          "indexed": false,
          "internalType": "uint256",
          "name": "registrationFeeUSDWei",
          "type": "uint256"
        },
        {
          "indexed": false,
          "internalType": "uint256",
          "name": "registrationFeeWei",
          "type": "uint256"
        },
        {
          "indexed": false,
          "internalType": "uint256",
          "name": "claps",
          "type": "uint256"
        },
        {
          "indexed": false,
          "internalType": "uint256",
          "name": "reward",
          "type": "uint256"
        }
      ],
      "name": "Transfer",
      "type": "event"
    },
    {
      "payable": true,
      "stateMutability": "payable",
      "type": "fallback"
    },
    {
      "constant": false,
      "inputs": [],
      "name": "decommission",
      "outputs": [],
      "payable": false,
      "stateMutability": "nonpayable",
      "type": "function"
    },
    {
      "constant": false,
      "inputs": [
        {
          "internalType": "uint256",
          "name": "registrationFeeUSDWei",
          "type": "uint256"
        },
        {
          "internalType": "uint256",
          "name": "ETHPriceUSDWei",
          "type": "uint256"
        },
        {
          "internalType": "string[]",
          "name": "names",
          "type": "string[]"
        },
        {
          "internalType": "address payable[]",
          "name": "addresses",
          "type": "address[]"
        },
        {
          "internalType": "uint256[]",
          "name": "claps",
          "type": "uint256[]"
        }
      ],
      "name": "assess",
      "outputs": [],
      "payable": false,
      "stateMutability": "nonpayable",
      "type": "function"
    }
  ],
  "bytecode": "0x608060405234801561001057600080fd5b50600080546001600160a01b03191633179055610dec806100326000396000f3fe6080604052600436106100295760003560e01c80635afb34051461002b5780637f068c0f1461004b575b005b34801561003757600080fd5b50610029610046366004610729565b610060565b34801561005757600080fd5b50610029610444565b6000546040805160608101909152602f8082526001600160a01b03909216331491610c436020830139906100b05760405162461bcd60e51b81526004016100a791906109f7565b60405180910390fd5b5060008411604051806060016040528060358152602001610d7560359139906100ec5760405162461bcd60e51b81526004016100a791906109f7565b508151835114604051806080016040528060518152602001610c7260519139906101295760405162461bcd60e51b81526004016100a791906109f7565b508051825114604051806080016040528060518152602001610cc360519139906101665760405162461bcd60e51b81526004016100a791906109f7565b5060006101918561018588670de0b6b3a764000063ffffffff61049a16565b9063ffffffff6104dd16565b905060006101a984518361049a90919063ffffffff16565b9050804710156040518060a0016040528060618152602001610d1460619139906101e65760405162461bcd60e51b81526004016100a791906109f7565b506000805b84518110156102345761021a85828151811061020357fe5b60200260200101518361051c90919063ffffffff16565b915061022d81600163ffffffff61051c16565b90506101eb565b5060608451604051908082528060200260200182016040528015610262578160200160208202803883390190505b50905060005b85518110156102ca5761029b836101858689858151811061028557fe5b602002602001015161049a90919063ffffffff16565b8282815181106102a757fe5b60209081029190910101526102c381600163ffffffff61051c16565b9050610268565b507f279c363658f0b65a16575110be97793651e216426bbbe2fe354cf8c48d7c757d428a8a8a8a8a8a8a8a8a60405161030c9a99989796959493929190610a87565b60405180910390a160005b865181101561043857600082828151811061032e57fe5b602002602001015111801561038d575086818151811061034a57fe5b60200260200101516001600160a01b03166108fc83838151811061036a57fe5b60200260200101519081150290604051600060405180830381858888f193505050505b15610420577f70cc3d2d4d11510af102774a4477bfb3764c6c13a1eeb06fce821af8ed63d2bd8882815181106103bf57fe5b60200260200101518883815181106103d357fe5b60200260200101518c888a86815181106103e957fe5b60200260200101518787815181106103fd57fe5b602002602001015160405161041796959493929190610a08565b60405180910390a15b61043181600163ffffffff61051c16565b9050610317565b50505050505050505050565b6000546040805160608101909152602f8082526001600160a01b03909216331491610c4360208301399061048b5760405162461bcd60e51b81526004016100a791906109f7565b506000546001600160a01b0316ff5b6000826104a9575060006104d7565b828202828482816104b657fe5b04146104d45760405162461bcd60e51b81526004016100a790610a77565b90505b92915050565b60006104d483836040518060400160405280601a815260200179536166654d6174683a206469766973696f6e206279207a65726f60301b815250610541565b6000828201838110156104d45760405162461bcd60e51b81526004016100a790610a67565b600081836105625760405162461bcd60e51b81526004016100a791906109f7565b50600083858161056e57fe5b0495945050505050565b80356104d781610c22565b600082601f83011261059457600080fd5b81356105a76105a282610b5d565b610b37565b915081818352602084019350602081019050838560208402820111156105cc57600080fd5b60005b838110156105f857816105e28882610578565b84525060209283019291909101906001016105cf565b5050505092915050565b600082601f83011261061357600080fd5b81356106216105a282610b5d565b81815260209384019390925082018360005b838110156105f8578135860161064988826106cf565b8452506020928301929190910190600101610633565b600082601f83011261067057600080fd5b813561067e6105a282610b5d565b915081818352602084019350602081019050838560208402820111156106a357600080fd5b60005b838110156105f857816106b9888261071e565b84525060209283019291909101906001016106a6565b600082601f8301126106e057600080fd5b81356106ee6105a282610b7d565b9150808252602083016020830185838301111561070a57600080fd5b610715838284610bdc565b50505092915050565b80356104d781610c39565b600080600080600060a0868803121561074157600080fd5b600061074d888861071e565b955050602061075e8882890161071e565b94505060408601356001600160401b0381111561077a57600080fd5b61078688828901610602565b93505060608601356001600160401b038111156107a257600080fd5b6107ae88828901610583565b92505060808601356001600160401b038111156107ca57600080fd5b6107d68882890161065f565b9150509295509295909350565b60006107ef838361081e565b505060200190565b60006104d4838361093c565b60006107ef83836109ee565b61081881610bcb565b82525050565b61081881610bb7565b600061083282610baa565b61083c8185610bae565b935061084783610ba4565b8060005b8381101561087557815161085f88826107e3565b975061086a83610ba4565b92505060010161084b565b509495945050505050565b600061088b82610baa565b6108958185610bae565b9350836020820285016108a785610ba4565b8060005b858110156108e157848403895281516108c485826107f7565b94506108cf83610ba4565b60209a909a01999250506001016108ab565b5091979650505050505050565b60006108f982610baa565b6109038185610bae565b935061090e83610ba4565b8060005b838110156108755781516109268882610803565b975061093183610ba4565b925050600101610912565b600061094782610baa565b6109518185610bae565b9350610961818560208601610be8565b61096a81610c18565b9093019392505050565b6000610981601b83610bae565b7a536166654d6174683a206164646974696f6e206f766572666c6f7760281b815260200192915050565b60006109b8602183610bae565b7f536166654d6174683a206d756c7469706c69636174696f6e206f766572666c6f8152607760f81b602082015260400192915050565b61081881610bc8565b602080825281016104d4818461093c565b60c08082528101610a19818961093c565b9050610a28602083018861080f565b610a3560408301876109ee565b610a4260608301866109ee565b610a4f60808301856109ee565b610a5c60a08301846109ee565b979650505050505050565b602080825281016104d781610974565b602080825281016104d7816109ab565b6101408101610a96828d6109ee565b610aa3602083018c6109ee565b610ab0604083018b6109ee565b8181036060830152610ac2818a610880565b90508181036080830152610ad68189610827565b905081810360a0830152610aea81886108ee565b9050610af960c08301876109ee565b610b0660e08301866109ee565b610b146101008301856109ee565b818103610120830152610b2781846108ee565b9c9b505050505050505050505050565b6040518181016001600160401b0381118282101715610b5557600080fd5b604052919050565b60006001600160401b03821115610b7357600080fd5b5060209081020190565b60006001600160401b03821115610b9357600080fd5b506020601f91909101601f19160190565b60200190565b5190565b90815260200190565b60006001600160a01b0382166104d7565b90565b60006104d78260006104d782610bb7565b82818337506000910152565b60005b83811015610c03578181015183820152602001610beb565b83811115610c12576000848401525b50505050565b601f01601f191690565b610c2b81610bb7565b8114610c3657600080fd5b50565b610c2b81610bc856fe5468652073656e646572206163636f756e74206973206e6f7420746865206f776e657220286e6f742d6f776e65722954686520616d6f756e74206f66206e616d657320646966666572732066726f6d2074686520616d6f756e74206f662061646472657373657320286e616d65732d6469666665722d6164647265737365732954686520616d6f756e74206f662061646472657373657320646966666572732066726f6d2074686520616d6f756e74206f6620636c61707320286164647265737365732d6469666665722d636c617073295468652065746865722076616c756520696e207468697320636f6e7472616374206973206c657373207468616e2074686520746f74616c207265776172642076616c756520746f2073656e642028696e73756666696369656e742d76616c7565295468652070726f76696465642045544820707269636520697320696e76616c69642028696e76616c69642d6574682d707269636529a365627a7a723158200c7a809e0f1eb143f3a921041eb2a1ae546047071f8b5e2364e9edf6a047db3a6c6578706572696d656e74616cf564736f6c63430005100040",
  "source": "/**\n *Submitted for verification at Etherscan.io on 2020-04-23\n*/\n\n// File: @openzeppelin/contracts/math/SafeMath.sol\n\npragma solidity ^0.5.0;\n\n/**\n * @dev Wrappers over Solidity's arithmetic operations with added overflow\n * checks.\n *\n * Arithmetic operations in Solidity wrap on overflow. This can easily result\n * in bugs, because programmers usually assume that an overflow raises an\n * error, which is the standard behavior in high level programming languages.\n * `SafeMath` restores this intuition by reverting the transaction when an\n * operation overflows.\n *\n * Using this library instead of the unchecked operations eliminates an entire\n * class of bugs, so it's recommended to use it always.\n */\nlibrary SafeMath {\n    /**\n     * @dev Returns the addition of two unsigned integers, reverting on\n     * overflow.\n     *\n     * Counterpart to Solidity's `+` operator.\n     *\n     * Requirements:\n     * - Addition cannot overflow.\n     */\n    function add(uint256 a, uint256 b) internal pure returns (uint256) {\n        uint256 c = a + b;\n        require(c >= a, \"SafeMath: addition overflow\");\n\n        return c;\n    }\n\n    /**\n     * @dev Returns the subtraction of two unsigned integers, reverting on\n     * overflow (when the result is negative).\n     *\n     * Counterpart to Solidity's `-` operator.\n     *\n     * Requirements:\n     * - Subtraction cannot overflow.\n     */\n    function sub(uint256 a, uint256 b) internal pure returns (uint256) {\n        return sub(a, b, \"SafeMath: subtraction overflow\");\n    }\n\n    /**\n     * @dev Returns the subtraction of two unsigned integers, reverting with custom message on\n     * overflow (when the result is negative).\n     *\n     * Counterpart to Solidity's `-` operator.\n     *\n     * Requirements:\n     * - Subtraction cannot overflow.\n     *\n     * _Available since v2.4.0._\n     */\n    function sub(uint256 a, uint256 b, string memory errorMessage) internal pure returns (uint256) {\n        require(b <= a, errorMessage);\n        uint256 c = a - b;\n\n        return c;\n    }\n\n    /**\n     * @dev Returns the multiplication of two unsigned integers, reverting on\n     * overflow.\n     *\n     * Counterpart to Solidity's `*` operator.\n     *\n     * Requirements:\n     * - Multiplication cannot overflow.\n     */\n    function mul(uint256 a, uint256 b) internal pure returns (uint256) {\n        // Gas optimization: this is cheaper than requiring 'a' not being zero, but the\n        // benefit is lost if 'b' is also tested.\n        // See: https://github.com/OpenZeppelin/openzeppelin-contracts/pull/522\n        if (a == 0) {\n            return 0;\n        }\n\n        uint256 c = a * b;\n        require(c / a == b, \"SafeMath: multiplication overflow\");\n\n        return c;\n    }\n\n    /**\n     * @dev Returns the integer division of two unsigned integers. Reverts on\n     * division by zero. The result is rounded towards zero.\n     *\n     * Counterpart to Solidity's `/` operator. Note: this function uses a\n     * `revert` opcode (which leaves remaining gas untouched) while Solidity\n     * uses an invalid opcode to revert (consuming all remaining gas).\n     *\n     * Requirements:\n     * - The divisor cannot be zero.\n     */\n    function div(uint256 a, uint256 b) internal pure returns (uint256) {\n        return div(a, b, \"SafeMath: division by zero\");\n    }\n\n    /**\n     * @dev Returns the integer division of two unsigned integers. Reverts with custom message on\n     * division by zero. The result is rounded towards zero.\n     *\n     * Counterpart to Solidity's `/` operator. Note: this function uses a\n     * `revert` opcode (which leaves remaining gas untouched) while Solidity\n     * uses an invalid opcode to revert (consuming all remaining gas).\n     *\n     * Requirements:\n     * - The divisor cannot be zero.\n     *\n     * _Available since v2.4.0._\n     */\n    function div(uint256 a, uint256 b, string memory errorMessage) internal pure returns (uint256) {\n        // Solidity only automatically asserts when dividing by 0\n        require(b > 0, errorMessage);\n        uint256 c = a / b;\n        // assert(a == b * c + a % b); // There is no case in which this doesn't hold\n\n        return c;\n    }\n\n    /**\n     * @dev Returns the remainder of dividing two unsigned integers. (unsigned integer modulo),\n     * Reverts when dividing by zero.\n     *\n     * Counterpart to Solidity's `%` operator. This function uses a `revert`\n     * opcode (which leaves remaining gas untouched) while Solidity uses an\n     * invalid opcode to revert (consuming all remaining gas).\n     *\n     * Requirements:\n     * - The divisor cannot be zero.\n     */\n    function mod(uint256 a, uint256 b) internal pure returns (uint256) {\n        return mod(a, b, \"SafeMath: modulo by zero\");\n    }\n\n    /**\n     * @dev Returns the remainder of dividing two unsigned integers. (unsigned integer modulo),\n     * Reverts with custom message when dividing by zero.\n     *\n     * Counterpart to Solidity's `%` operator. This function uses a `revert`\n     * opcode (which leaves remaining gas untouched) while Solidity uses an\n     * invalid opcode to revert (consuming all remaining gas).\n     *\n     * Requirements:\n     * - The divisor cannot be zero.\n     *\n     * _Available since v2.4.0._\n     */\n    function mod(uint256 a, uint256 b, string memory errorMessage) internal pure returns (uint256) {\n        require(b != 0, errorMessage);\n        return a % b;\n    }\n}\n\n// File: contracts/Coinosis.sol\n\npragma solidity 0.5.16;\npragma experimental ABIEncoderV2;\n\n\ncontract CoinosisV0 {\n\n    using SafeMath for uint;\n\n    string constant NOT_OWNER = \"The sender account is not the owner \\\n(not-owner)\";\n    string constant INVALID_ETH_PRICE = \"The provided ETH price is invalid \\\n(invalid-eth-price)\";\n    string constant NAMES_DIFFER_ADDRESSES =\n        \"The amount of names differs from the amount of addresses \\\n(names-differ-addresses)\";\n    string constant ADDRESSES_DIFFER_CLAPS =\n        \"The amount of addresses differs from the amount of claps \\\n(addresses-differ-claps)\";\n    string constant INSUFFICIENT_VALUE =\n        \"The ether value in this contract is less than the total reward value \\\nto send (insufficient-value)\";\n\n    address payable private owner;\n\n    event Assessment(\n        uint timestamp,\n        uint registrationFeeUSDWei,\n        uint ETHPriceUSDWei,\n        string[] names,\n        address payable[] addresses,\n        uint[] claps,\n        uint registrationFeeWei,\n        uint totalFeesWei,\n        uint totalClaps,\n        uint[] rewards\n    );\n    event Transfer(\n        string name,\n        address addr,\n        uint registrationFeeUSDWei,\n        uint registrationFeeWei,\n        uint claps,\n        uint reward\n    );\n\n    constructor () public {\n        owner = msg.sender;\n    }\n\n    function () external payable {}\n\n    function decommission() public {\n        require(msg.sender == owner, NOT_OWNER);\n        selfdestruct(owner);\n    }\n\n    function assess(\n        uint registrationFeeUSDWei,\n        uint ETHPriceUSDWei,\n        string[] memory names,\n        address payable[] memory addresses,\n        uint[] memory claps\n    ) public {\n        require(msg.sender == owner, NOT_OWNER);\n        require(ETHPriceUSDWei > 0, INVALID_ETH_PRICE);\n        require(names.length == addresses.length, NAMES_DIFFER_ADDRESSES);\n        require(addresses.length == claps.length, ADDRESSES_DIFFER_CLAPS);\n        uint registrationFeeWei =\n            registrationFeeUSDWei.mul(1 ether).div(ETHPriceUSDWei);\n        uint totalFeesWei = registrationFeeWei.mul(addresses.length);\n        require(address(this).balance >= totalFeesWei, INSUFFICIENT_VALUE);\n        uint totalClaps = 0;\n        for (uint i = 0; i < claps.length; i = i.add(1)) {\n            totalClaps = totalClaps.add(claps[i]);\n        }\n        uint[] memory rewards = new uint[](claps.length);\n        for (uint i = 0; i < claps.length; i = i.add(1)) {\n            rewards[i] = claps[i].mul(totalFeesWei).div(totalClaps);\n        }\n        emit Assessment(\n            now,\n            registrationFeeUSDWei,\n            ETHPriceUSDWei,\n            names,\n            addresses,\n            claps,\n            registrationFeeWei,\n            totalFeesWei,\n            totalClaps,\n            rewards\n        );\n        for (uint i = 0; i < addresses.length; i = i.add(1)) {\n            if (rewards[i] > 0 && addresses[i].send(rewards[i])) {\n                emit Transfer(\n                    names[i],\n                    addresses[i],\n                    registrationFeeUSDWei,\n                    registrationFeeWei,\n                    claps[i],\n                    rewards[i]\n                );\n            }\n        }\n    }\n}\n",
  "sourcePath": "/home/e18r/code/coinosis/contracts/CoinosisV0.sol",
  "compiler": {
    "name": "solc",
    "version": "0.5.16+commit.9c3226ce.Emscripten.clang"
  },
  "schemaVersion": "3.2.0",
  "updatedAt": "2020-06-10T01:43:44.535Z",
  "devdoc": {
    "methods": {}
  },
  "userdoc": {
    "methods": {}
  }
}