{
  "contractName": "Coinosis",
  "abi": [
    {
      "anonymous": false,
      "inputs": [
        {
          "indexed": false,
          "internalType": "address",
          "name": "recipient",
          "type": "address"
        },
        {
          "indexed": false,
          "internalType": "uint256",
          "name": "amount",
          "type": "uint256"
        }
      ],
      "name": "Paid",
      "type": "event"
    },
    {
      "anonymous": false,
      "inputs": [
        {
          "indexed": false,
          "internalType": "address",
          "name": "sender",
          "type": "address"
        },
        {
          "indexed": false,
          "internalType": "string",
          "name": "name",
          "type": "string"
        },
        {
          "indexed": false,
          "internalType": "uint256",
          "name": "amount",
          "type": "uint256"
        }
      ],
      "name": "Received",
      "type": "event"
    },
    {
      "constant": false,
      "inputs": [
        {
          "internalType": "string",
          "name": "name",
          "type": "string"
        }
      ],
      "name": "receive",
      "outputs": [],
      "payable": true,
      "stateMutability": "payable",
      "type": "function"
    },
    {
      "constant": false,
      "inputs": [
        {
          "internalType": "address payable[]",
          "name": "recipients",
          "type": "address[]"
        },
        {
          "internalType": "uint256[]",
          "name": "claps",
          "type": "uint256[]"
        },
        {
          "internalType": "uint256",
          "name": "registrationPriceUSDWei",
          "type": "uint256"
        },
        {
          "internalType": "uint256",
          "name": "ETHPriceUSDWei",
          "type": "uint256"
        }
      ],
      "name": "assess",
      "outputs": [],
      "payable": true,
      "stateMutability": "payable",
      "type": "function"
    },
    {
      "constant": false,
      "inputs": [
        {
          "internalType": "address payable[]",
          "name": "recipients",
          "type": "address[]"
        },
        {
          "internalType": "uint256[]",
          "name": "amounts",
          "type": "uint256[]"
        }
      ],
      "name": "distribute",
      "outputs": [],
      "payable": true,
      "stateMutability": "payable",
      "type": "function"
    }
  ],
  "bytecode": "0x608060405234801561001057600080fd5b50610b66806100206000396000f3fe6080604052600436106100345760003560e01c80630457ad24146100395780632929abe614610199578063caa02f15146102e5575b600080fd5b6101976004803603608081101561004f57600080fd5b810190808035906020019064010000000081111561006c57600080fd5b82018360208201111561007e57600080fd5b803590602001918460208302840111640100000000831117156100a057600080fd5b919080806020026020016040519081016040528093929190818152602001838360200280828437600081840152601f19601f8201169050808301925050505050505091929192908035906020019064010000000081111561010057600080fd5b82018360208201111561011257600080fd5b8035906020019184602083028401116401000000008311171561013457600080fd5b919080806020026020016040519081016040528093929190818152602001838360200280828437600081840152601f19601f82011690508083019250505050505050919291929080359060200190929190803590602001909291905050506103a0565b005b6102e3600480360360408110156101af57600080fd5b81019080803590602001906401000000008111156101cc57600080fd5b8201836020820111156101de57600080fd5b8035906020019184602083028401116401000000008311171561020057600080fd5b919080806020026020016040519081016040528093929190818152602001838360200280828437600081840152601f19601f8201169050808301925050505050505091929192908035906020019064010000000081111561026057600080fd5b82018360208201111561027257600080fd5b8035906020019184602083028401116401000000008311171561029457600080fd5b919080806020026020016040519081016040528093929190818152602001838360200280828437600081840152601f19601f820116905080830192505050505050509192919290505050610497565b005b61039e600480360360208110156102fb57600080fd5b810190808035906020019064010000000081111561031857600080fd5b82018360208201111561032a57600080fd5b8035906020019184600183028401116401000000008311171561034c57600080fd5b91908080601f016020809104026020016040519081016040528093929190818152602001838380828437600081840152601f19601f82011690508083019250505050505050919291929050505061077a565b005b6000845183029050600082670de0b6b3a76400008302816103bd57fe5b049050600080905060008090505b86518110156103f9578681815181106103e057fe5b60200260200101518201915080806001019150506103cb565b506060865160405190808252806020026020018201604052801561042c5781602001602082028038833980820191505090505b50905060008090505b875181101561048257828489838151811061044c57fe5b6020026020010151028161045c57fe5b0482828151811061046957fe5b6020026020010181815250508080600101915050610435565b5061048d8882610497565b5050505050505050565b80518251146040518060800160405280604f8152602001610a3a604f91399061055b576040517f08c379a00000000000000000000000000000000000000000000000000000000081526004018080602001828103825283818151815260200191508051906020019080838360005b83811015610520578082015181840152602081019050610505565b50505050905090810190601f16801561054d5780820380516001836020036101000a031916815260200191505b509250505060405180910390fd5b50600080905060008090505b82518110156105955782818151811061057c57fe5b6020026020010151820191508080600101915050610567565b5080341015604051806080016040528060598152602001610a896059913990610659576040517f08c379a00000000000000000000000000000000000000000000000000000000081526004018080602001828103825283818151815260200191508051906020019080838360005b8381101561061e578082015181840152602081019050610603565b50505050905090810190601f16801561064b5780820380516001836020036101000a031916815260200191505b509250505060405180910390fd5b5060008090505b83518110156107745783818151811061067557fe5b602002602001015173ffffffffffffffffffffffffffffffffffffffff166108fc8483815181106106a257fe5b60200260200101519081150290604051600060405180830381858888f193505050501580156106d5573d6000803e3d6000fd5b507f737c69225d647e5994eab1a6c301bf6d9232beb2759ae1e27a8966b4732bc48984828151811061070357fe5b602002602001015184838151811061071757fe5b6020026020010151604051808373ffffffffffffffffffffffffffffffffffffffff1673ffffffffffffffffffffffffffffffffffffffff1681526020018281526020019250505060405180910390a18080600101915050610660565b50505050565b60003411604051806060016040528060298152602001610b09602991399061083d576040517f08c379a00000000000000000000000000000000000000000000000000000000081526004018080602001828103825283818151815260200191508051906020019080838360005b838110156108025780820151818401526020810190506107e7565b50505050905090810190601f16801561082f5780820380516001836020036101000a031916815260200191505b509250505060405180910390fd5b506000815111604051806060016040528060278152602001610ae26027913990610902576040517f08c379a00000000000000000000000000000000000000000000000000000000081526004018080602001828103825283818151815260200191508051906020019080838360005b838110156108c75780820151818401526020810190506108ac565b50505050905090810190601f1680156108f45780820380516001836020036101000a031916815260200191505b509250505060405180910390fd5b5073e1ff19182deb2058016ae0627c1e4660a895196a73ffffffffffffffffffffffffffffffffffffffff166108fc349081150290604051600060405180830381858888f1935050505015801561095d573d6000803e3d6000fd5b507fc52d41d8e03a19f9593ca22311356c3c5ca56b7bcb547226f02f818d4db3c5a2338234604051808473ffffffffffffffffffffffffffffffffffffffff1673ffffffffffffffffffffffffffffffffffffffff16815260200180602001838152602001828103825284818151815260200191508051906020019080838360005b838110156109fa5780820151818401526020810190506109df565b50505050905090810190601f168015610a275780820380516001836020036101000a031916815260200191505b5094505050505060405180910390a15056fe546865206e756d626572206f6620726563697069656e747320646966666572732066726f6d20746865206e756d626572206f6620616d6f756e74732028646966666572656e742d6c656e67746873295468652065746865722076616c75652073656e74206973206c657373207468616e2074686520746f74616c20696e74656e64656420616d6f756e7420746f2073656e642028696e73756666696369656e742d76616c7565292e546865206e616d652070726f766964656420697320656d7074792028656d7074792d6e616d65295468652065746865722076616c75652073656e74206973207a65726f20287a65726f2d76616c756529a265627a7a72315820c2423977a168adfe65e6ca029596f861c2e436cd338df34320e8ad45b30eed3c64736f6c63430005100032",
  "source": "pragma solidity 0.5.16;\n\ncontract Coinosis {\n\n    address payable constant coinosis =\n        0xe1fF19182deb2058016Ae0627c1E4660A895196a;\n    string constant ZERO_VALUE = \"The ether value sent is zero (zero-value)\";\n    string constant EMPTY_NAME = \"The name provided is empty (empty-name)\";\n    string constant DIFFERENT_LENGTHS =\n        \"The number of recipients differs from the number of amounts \\\n(different-lengths)\";\n    string constant INSUFFICIENT_VALUE =\n        \"The ether value sent is less than the total intended amount to send \\\n(insufficient-value).\";\n\n    event Received(address sender, string name, uint amount);\n    event Paid(address recipient, uint amount);\n\n    function receive(string memory name) public payable {\n        require(msg.value > 0, ZERO_VALUE);\n        require(bytes(name).length > 0, EMPTY_NAME);\n        coinosis.transfer(msg.value);\n        emit Received(msg.sender, name, msg.value);\n    }\n\n    function assess(\n        address payable[] memory recipients,\n        uint[] memory claps,\n        uint registrationPriceUSDWei,\n        uint ETHPriceUSDWei\n    ) public payable {\n        uint totalPriceUSDWei = registrationPriceUSDWei * recipients.length;\n        uint totalPriceWei = totalPriceUSDWei * 1 ether / ETHPriceUSDWei;\n        uint totalClaps = 0;\n        for (uint i = 0; i < claps.length; i++) {\n            totalClaps += claps[i];\n        }\n        uint[] memory amounts = new uint[](claps.length);\n        for (uint i = 0; i < claps.length; i++) {\n            amounts[i] = claps[i] * totalPriceWei / totalClaps;\n        }\n        distribute(recipients, amounts);\n    }\n    \n    function distribute(\n        address payable[] memory recipients,\n        uint[] memory amounts\n    ) public payable {\n        require(recipients.length == amounts.length, DIFFERENT_LENGTHS);\n        uint totalAmount = 0;\n        for (uint i = 0; i < amounts.length; i++) {\n            totalAmount += amounts[i];\n        }\n        require(msg.value >= totalAmount, INSUFFICIENT_VALUE);\n        for (uint i = 0; i < recipients.length; i++) {\n            recipients[i].transfer(amounts[i]);\n            emit Paid(recipients[i], amounts[i]);\n        }\n    }\n}\n",
  "sourcePath": "/home/e18r/code/coinosis/contracts/Coinosis.sol",
  "compiler": {
    "name": "solc",
    "version": "0.5.16+commit.9c3226ce.Emscripten.clang"
  },
  "schemaVersion": "3.0.23",
  "updatedAt": "2020-04-17T22:23:48.026Z",
  "networkType": "ethereum",
  "devdoc": {
    "methods": {}
  },
  "userdoc": {
    "methods": {}
  }
}