{
  "contractName": "Coinosis",
  "abi": [
    {
      "inputs": [],
      "payable": false,
      "stateMutability": "nonpayable",
      "type": "constructor"
    },
    {
      "anonymous": false,
      "inputs": [
        {
          "indexed": false,
          "internalType": "uint256",
          "name": "timestamp",
          "type": "uint256"
        },
        {
          "indexed": false,
          "internalType": "uint256",
          "name": "registrationFeeUSDWei",
          "type": "uint256"
        },
        {
          "indexed": false,
          "internalType": "uint256",
          "name": "ETHPriceUSDWei",
          "type": "uint256"
        },
        {
          "indexed": false,
          "internalType": "string[]",
          "name": "names",
          "type": "string[]"
        },
        {
          "indexed": false,
          "internalType": "address payable[]",
          "name": "addresses",
          "type": "address[]"
        },
        {
          "indexed": false,
          "internalType": "uint256[]",
          "name": "claps",
          "type": "uint256[]"
        },
        {
          "indexed": false,
          "internalType": "uint256",
          "name": "registrationFeeWei",
          "type": "uint256"
        },
        {
          "indexed": false,
          "internalType": "uint256",
          "name": "totalFeesWei",
          "type": "uint256"
        },
        {
          "indexed": false,
          "internalType": "uint256",
          "name": "totalClaps",
          "type": "uint256"
        },
        {
          "indexed": false,
          "internalType": "uint256[]",
          "name": "rewards",
          "type": "uint256[]"
        }
      ],
      "name": "Assessment",
      "type": "event"
    },
    {
      "anonymous": false,
      "inputs": [
        {
          "indexed": false,
          "internalType": "uint256",
          "name": "rewardedAmount",
          "type": "uint256"
        }
      ],
      "name": "RewardedAmount",
      "type": "event"
    },
    {
      "anonymous": false,
      "inputs": [
        {
          "indexed": false,
          "internalType": "string",
          "name": "name",
          "type": "string"
        },
        {
          "indexed": false,
          "internalType": "address",
          "name": "addr",
          "type": "address"
        },
        {
          "indexed": false,
          "internalType": "uint256",
          "name": "registrationFeeUSDWei",
          "type": "uint256"
        },
        {
          "indexed": false,
          "internalType": "uint256",
          "name": "registrationFeeWei",
          "type": "uint256"
        },
        {
          "indexed": false,
          "internalType": "uint256",
          "name": "claps",
          "type": "uint256"
        },
        {
          "indexed": false,
          "internalType": "uint256",
          "name": "reward",
          "type": "uint256"
        }
      ],
      "name": "Transfer",
      "type": "event"
    },
    {
      "payable": true,
      "stateMutability": "payable",
      "type": "fallback"
    },
    {
      "constant": true,
      "inputs": [],
      "name": "version",
      "outputs": [
        {
          "internalType": "string",
          "name": "",
          "type": "string"
        }
      ],
      "payable": false,
      "stateMutability": "view",
      "type": "function"
    },
    {
      "constant": false,
      "inputs": [],
      "name": "decommission",
      "outputs": [],
      "payable": false,
      "stateMutability": "nonpayable",
      "type": "function"
    },
    {
      "constant": false,
      "inputs": [
        {
          "internalType": "uint256",
          "name": "registrationFeeUSDWei",
          "type": "uint256"
        },
        {
          "internalType": "uint256",
          "name": "ETHPriceUSDWei",
          "type": "uint256"
        },
        {
          "internalType": "string[]",
          "name": "names",
          "type": "string[]"
        },
        {
          "internalType": "address payable[]",
          "name": "addresses",
          "type": "address[]"
        },
        {
          "internalType": "uint256[]",
          "name": "claps",
          "type": "uint256[]"
        }
      ],
      "name": "assess",
      "outputs": [],
      "payable": false,
      "stateMutability": "nonpayable",
      "type": "function"
    }
  ],
  "bytecode": "0x60806040526040518060400160405280600581526020017f312e312e300000000000000000000000000000000000000000000000000000008152506000908051906020019062000051929190620000a7565b503480156200005f57600080fd5b5033600160006101000a81548173ffffffffffffffffffffffffffffffffffffffff021916908373ffffffffffffffffffffffffffffffffffffffff16021790555062000156565b828054600181600116156101000203166002900490600052602060002090601f016020900481019282601f10620000ea57805160ff19168380011785556200011b565b828001600101855582156200011b579182015b828111156200011a578251825591602001919060010190620000fd565b5b5090506200012a91906200012e565b5090565b6200015391905b808211156200014f57600081600090555060010162000135565b5090565b90565b6114bb80620001666000396000f3fe6080604052600436106100345760003560e01c806354fd4d50146100365780635afb3405146100615780637f068c0f1461008a575b005b34801561004257600080fd5b5061004b6100a1565b6040516100589190610eab565b60405180910390f35b34801561006d57600080fd5b5061008860048036036100839190810190610aea565b61013f565b005b34801561009657600080fd5b5061009f61069b565b005b60008054600181600116156101000203166002900480601f0160208091040260200160405190810160405280929190818152602001828054600181600116156101000203166002900480156101375780601f1061010c57610100808354040283529160200191610137565b820191906000526020600020905b81548152906001019060200180831161011a57829003601f168201915b505050505081565b600160009054906101000a900473ffffffffffffffffffffffffffffffffffffffff1673ffffffffffffffffffffffffffffffffffffffff163373ffffffffffffffffffffffffffffffffffffffff16146040518060600160405280602f8152602001611312602f9139906101ea576040517f08c379a00000000000000000000000000000000000000000000000000000000081526004016101e19190610eab565b60405180910390fd5b50600084116040518060600160405280603581526020016114446035913990610249576040517f08c379a00000000000000000000000000000000000000000000000000000000081526004016102409190610eab565b60405180910390fd5b50815183511460405180608001604052806051815260200161134160519139906102a9576040517f08c379a00000000000000000000000000000000000000000000000000000000081526004016102a09190610eab565b60405180910390fd5b5080518251146040518060800160405280605181526020016113926051913990610309576040517f08c379a00000000000000000000000000000000000000000000000000000000081526004016103009190610eab565b60405180910390fd5b5060006103398561032b670de0b6b3a76400008961078290919063ffffffff16565b6107f290919063ffffffff16565b9050600061035184518361078290919063ffffffff16565b9050804710156040518060a00160405280606181526020016113e360619139906103b1576040517f08c379a00000000000000000000000000000000000000000000000000000000081526004016103a89190610eab565b60405180910390fd5b50600080905060008090505b8451811015610409576103ec8582815181106103d557fe5b60200260200101518361083c90919063ffffffff16565b915061040260018261083c90919063ffffffff16565b90506103bd565b506060845160405190808252806020026020018201604052801561043c5781602001602082028038833980820191505090505b50905060008090505b85518110156104b957610486836104788689858151811061046257fe5b602002602001015161078290919063ffffffff16565b6107f290919063ffffffff16565b82828151811061049257fe5b6020026020010181815250506104b260018261083c90919063ffffffff16565b9050610445565b507f279c363658f0b65a16575110be97793651e216426bbbe2fe354cf8c48d7c757d428a8a8a8a8a8a8a8a8a6040516104fb9a99989796959493929190610fb2565b60405180910390a1600080905060008090505b875181101561065757600083828151811061052557fe5b6020026020010151118015610591575087818151811061054157fe5b602002602001015173ffffffffffffffffffffffffffffffffffffffff166108fc84838151811061056e57fe5b60200260200101519081150290604051600060405180830381858888f193505050505b1561063c577f70cc3d2d4d11510af102774a4477bfb3764c6c13a1eeb06fce821af8ed63d2bd8982815181106105c357fe5b60200260200101518983815181106105d757fe5b60200260200101518d898b86815181106105ed57fe5b602002602001015188878151811061060157fe5b602002602001015160405161061b96959493929190610eef565b60405180910390a182818151811061062f57fe5b6020026020010151820191505b61065060018261083c90919063ffffffff16565b905061050e565b507ff45ef13729b4b44bf31cfc593a8c10a2f431141062af083154b2737f808cc56f816040516106879190610f97565b60405180910390a150505050505050505050565b600160009054906101000a900473ffffffffffffffffffffffffffffffffffffffff1673ffffffffffffffffffffffffffffffffffffffff163373ffffffffffffffffffffffffffffffffffffffff16146040518060600160405280602f8152602001611312602f913990610746576040517f08c379a000000000000000000000000000000000000000000000000000000000815260040161073d9190610eab565b60405180910390fd5b50600160009054906101000a900473ffffffffffffffffffffffffffffffffffffffff1673ffffffffffffffffffffffffffffffffffffffff16ff5b60008083141561079557600090506107ec565b60008284029050828482816107a657fe5b04146107e7576040517f08c379a00000000000000000000000000000000000000000000000000000000081526004016107de90610f77565b60405180910390fd5b809150505b92915050565b600061083483836040518060400160405280601a81526020017f536166654d6174683a206469766973696f6e206279207a65726f000000000000815250610891565b905092915050565b600080828401905083811015610887576040517f08c379a000000000000000000000000000000000000000000000000000000000815260040161087e90610f57565b60405180910390fd5b8091505092915050565b600080831182906108d8576040517f08c379a00000000000000000000000000000000000000000000000000000000081526004016108cf9190610ecd565b60405180910390fd5b5060008385816108e457fe5b049050809150509392505050565b600081359050610901816112e3565b92915050565b600082601f83011261091857600080fd5b813561092b61092682611097565b61106a565b9150818183526020840193506020810190508385602084028201111561095057600080fd5b60005b83811015610980578161096688826108f2565b845260208401935060208301925050600181019050610953565b5050505092915050565b600082601f83011261099b57600080fd5b81356109ae6109a9826110bf565b61106a565b9150818183526020840193506020810190508360005b838110156109f457813586016109da8882610a81565b8452602084019350602083019250506001810190506109c4565b5050505092915050565b600082601f830112610a0f57600080fd5b8135610a22610a1d826110e7565b61106a565b91508181835260208401935060208101905083856020840282011115610a4757600080fd5b60005b83811015610a775781610a5d8882610ad5565b845260208401935060208301925050600181019050610a4a565b5050505092915050565b600082601f830112610a9257600080fd5b8135610aa5610aa08261110f565b61106a565b91508082526020830160208301858383011115610ac157600080fd5b610acc838284611290565b50505092915050565b600081359050610ae4816112fa565b92915050565b600080600080600060a08688031215610b0257600080fd5b6000610b1088828901610ad5565b9550506020610b2188828901610ad5565b945050604086013567ffffffffffffffff811115610b3e57600080fd5b610b4a8882890161098a565b935050606086013567ffffffffffffffff811115610b6757600080fd5b610b7388828901610907565b925050608086013567ffffffffffffffff811115610b9057600080fd5b610b9c888289016109fe565b9150509295509295909350565b6000610bb58383610bfc565b60208301905092915050565b6000610bcd8383610d75565b905092915050565b6000610be18383610e8d565b60208301905092915050565b610bf68161125a565b82525050565b610c058161121e565b82525050565b6000610c168261116b565b610c2081856111c9565b9350610c2b8361113b565b8060005b83811015610c5c578151610c438882610ba9565b9750610c4e836111a2565b925050600181019050610c2f565b5085935050505092915050565b6000610c7482611176565b610c7e81856111da565b935083602082028501610c908561114b565b8060005b85811015610ccc5784840389528151610cad8582610bc1565b9450610cb8836111af565b925060208a01995050600181019050610c94565b50829750879550505050505092915050565b6000610ce982611181565b610cf381856111eb565b9350610cfe8361115b565b8060005b83811015610d2f578151610d168882610bd5565b9750610d21836111bc565b925050600181019050610d02565b5085935050505092915050565b6000610d4782611197565b610d51818561120d565b9350610d6181856020860161129f565b610d6a816112d2565b840191505092915050565b6000610d808261118c565b610d8a81856111fc565b9350610d9a81856020860161129f565b610da3816112d2565b840191505092915050565b6000610db98261118c565b610dc3818561120d565b9350610dd381856020860161129f565b610ddc816112d2565b840191505092915050565b6000610df4601b8361120d565b91507f536166654d6174683a206164646974696f6e206f766572666c6f7700000000006000830152602082019050919050565b6000610e3460218361120d565b91507f536166654d6174683a206d756c7469706c69636174696f6e206f766572666c6f60008301527f77000000000000000000000000000000000000000000000000000000000000006020830152604082019050919050565b610e9681611250565b82525050565b610ea581611250565b82525050565b60006020820190508181036000830152610ec58184610dae565b905092915050565b60006020820190508181036000830152610ee78184610d3c565b905092915050565b600060c0820190508181036000830152610f098189610dae565b9050610f186020830188610bed565b610f256040830187610e9c565b610f326060830186610e9c565b610f3f6080830185610e9c565b610f4c60a0830184610e9c565b979650505050505050565b60006020820190508181036000830152610f7081610de7565b9050919050565b60006020820190508181036000830152610f9081610e27565b9050919050565b6000602082019050610fac6000830184610e9c565b92915050565b600061014082019050610fc8600083018d610e9c565b610fd5602083018c610e9c565b610fe2604083018b610e9c565b8181036060830152610ff4818a610c69565b905081810360808301526110088189610c0b565b905081810360a083015261101c8188610cde565b905061102b60c0830187610e9c565b61103860e0830186610e9c565b611046610100830185610e9c565b8181036101208301526110598184610cde565b90509b9a5050505050505050505050565b6000604051905081810181811067ffffffffffffffff8211171561108d57600080fd5b8060405250919050565b600067ffffffffffffffff8211156110ae57600080fd5b602082029050602081019050919050565b600067ffffffffffffffff8211156110d657600080fd5b602082029050602081019050919050565b600067ffffffffffffffff8211156110fe57600080fd5b602082029050602081019050919050565b600067ffffffffffffffff82111561112657600080fd5b601f19601f8301169050602081019050919050565b6000819050602082019050919050565b6000819050602082019050919050565b6000819050602082019050919050565b600081519050919050565b600081519050919050565b600081519050919050565b600081519050919050565b600081519050919050565b6000602082019050919050565b6000602082019050919050565b6000602082019050919050565b600082825260208201905092915050565b600082825260208201905092915050565b600082825260208201905092915050565b600082825260208201905092915050565b600082825260208201905092915050565b600061122982611230565b9050919050565b600073ffffffffffffffffffffffffffffffffffffffff82169050919050565b6000819050919050565b60006112658261126c565b9050919050565b60006112778261127e565b9050919050565b600061128982611230565b9050919050565b82818337600083830152505050565b60005b838110156112bd5780820151818401526020810190506112a2565b838111156112cc576000848401525b50505050565b6000601f19601f8301169050919050565b6112ec8161121e565b81146112f757600080fd5b50565b61130381611250565b811461130e57600080fd5b5056fe5468652073656e646572206163636f756e74206973206e6f7420746865206f776e657220286e6f742d6f776e65722954686520616d6f756e74206f66206e616d657320646966666572732066726f6d2074686520616d6f756e74206f662061646472657373657320286e616d65732d6469666665722d6164647265737365732954686520616d6f756e74206f662061646472657373657320646966666572732066726f6d2074686520616d6f756e74206f6620636c61707320286164647265737365732d6469666665722d636c617073295468652065746865722076616c756520696e207468697320636f6e7472616374206973206c657373207468616e2074686520746f74616c207265776172642076616c756520746f2073656e642028696e73756666696369656e742d76616c7565295468652070726f76696465642045544820707269636520697320696e76616c69642028696e76616c69642d6574682d707269636529a365627a7a72315820ee5dc3af99a58900832a85d8f2053c12b6cb4d7c4e0184550a0ce1a71f6177c96c6578706572696d656e74616cf564736f6c63430005100040",
  "source": "pragma solidity 0.5.16;\npragma experimental ABIEncoderV2;\n\nimport \"@openzeppelin/contracts/math/SafeMath.sol\";\n\ncontract Coinosis {\n\n    using SafeMath for uint;\n\n    string constant NOT_OWNER = \"The sender account is not the owner \\\n(not-owner)\";\n    string constant INVALID_ETH_PRICE = \"The provided ETH price is invalid \\\n(invalid-eth-price)\";\n    string constant NAMES_DIFFER_ADDRESSES =\n        \"The amount of names differs from the amount of addresses \\\n(names-differ-addresses)\";\n    string constant ADDRESSES_DIFFER_CLAPS =\n        \"The amount of addresses differs from the amount of claps \\\n(addresses-differ-claps)\";\n    string constant INSUFFICIENT_VALUE =\n        \"The ether value in this contract is less than the total reward value \\\nto send (insufficient-value)\";\n\n    string public version = \"1.1.0\";\n    address payable private owner;\n\n    event Assessment(\n        uint timestamp,\n        uint registrationFeeUSDWei,\n        uint ETHPriceUSDWei,\n        string[] names,\n        address payable[] addresses,\n        uint[] claps,\n        uint registrationFeeWei,\n        uint totalFeesWei,\n        uint totalClaps,\n        uint[] rewards\n    );\n    event Transfer(\n        string name,\n        address addr,\n        uint registrationFeeUSDWei,\n        uint registrationFeeWei,\n        uint claps,\n        uint reward\n    );\n    event RewardedAmount(uint rewardedAmount);\n\n    constructor () public {\n        owner = msg.sender;\n    }\n\n    function () external payable {}\n\n    function decommission() public {\n        require(msg.sender == owner, NOT_OWNER);\n        selfdestruct(owner);\n    }\n\n    function assess(\n        uint registrationFeeUSDWei,\n        uint ETHPriceUSDWei,\n        string[] memory names,\n        address payable[] memory addresses,\n        uint[] memory claps\n    ) public {\n        require(msg.sender == owner, NOT_OWNER);\n        require(ETHPriceUSDWei > 0, INVALID_ETH_PRICE);\n        require(names.length == addresses.length, NAMES_DIFFER_ADDRESSES);\n        require(addresses.length == claps.length, ADDRESSES_DIFFER_CLAPS);\n        uint registrationFeeWei =\n            registrationFeeUSDWei.mul(1 ether).div(ETHPriceUSDWei);\n        uint totalFeesWei = registrationFeeWei.mul(addresses.length);\n        require(address(this).balance >= totalFeesWei, INSUFFICIENT_VALUE);\n        uint totalClaps = 0;\n        for (uint i = 0; i < claps.length; i = i.add(1)) {\n            totalClaps = totalClaps.add(claps[i]);\n        }\n        uint[] memory rewards = new uint[](claps.length);\n        for (uint i = 0; i < claps.length; i = i.add(1)) {\n            rewards[i] = claps[i].mul(totalFeesWei).div(totalClaps);\n        }\n        emit Assessment(\n            now,\n            registrationFeeUSDWei,\n            ETHPriceUSDWei,\n            names,\n            addresses,\n            claps,\n            registrationFeeWei,\n            totalFeesWei,\n            totalClaps,\n            rewards\n        );\n        uint rewardedAmount = 0;\n        for (uint i = 0; i < addresses.length; i = i.add(1)) {\n            if (rewards[i] > 0 && addresses[i].send(rewards[i])) {\n                emit Transfer(\n                    names[i],\n                    addresses[i],\n                    registrationFeeUSDWei,\n                    registrationFeeWei,\n                    claps[i],\n                    rewards[i]\n                );\n                rewardedAmount += rewards[i];\n            }\n        }\n        emit RewardedAmount(rewardedAmount);\n    }\n}\n",
  "sourcePath": "/home/e18r/code/coinosis/contracts/Coinosis.sol",
  "compiler": {
    "name": "solc",
    "version": "0.5.16+commit.9c3226ce.Emscripten.clang"
  },
  "schemaVersion": "3.0.23",
  "updatedAt": "2020-04-23T16:33:43.979Z",
  "networkType": "ethereum",
  "devdoc": {
    "methods": {}
  },
  "userdoc": {
    "methods": {}
  }
}