{
  "contractName": "CoinosisV0",
  "abi": [
    {
      "inputs": [],
      "payable": false,
      "stateMutability": "nonpayable",
      "type": "constructor"
    },
    {
      "anonymous": false,
      "inputs": [
        {
          "indexed": false,
          "internalType": "uint256",
          "name": "timestamp",
          "type": "uint256"
        },
        {
          "indexed": false,
          "internalType": "uint256",
          "name": "registrationFeeUSDWei",
          "type": "uint256"
        },
        {
          "indexed": false,
          "internalType": "uint256",
          "name": "ETHPriceUSDWei",
          "type": "uint256"
        },
        {
          "indexed": false,
          "internalType": "string[]",
          "name": "names",
          "type": "string[]"
        },
        {
          "indexed": false,
          "internalType": "address payable[]",
          "name": "addresses",
          "type": "address[]"
        },
        {
          "indexed": false,
          "internalType": "uint256[]",
          "name": "claps",
          "type": "uint256[]"
        },
        {
          "indexed": false,
          "internalType": "uint256",
          "name": "registrationFeeWei",
          "type": "uint256"
        },
        {
          "indexed": false,
          "internalType": "uint256",
          "name": "totalFeesWei",
          "type": "uint256"
        },
        {
          "indexed": false,
          "internalType": "uint256",
          "name": "totalClaps",
          "type": "uint256"
        },
        {
          "indexed": false,
          "internalType": "uint256[]",
          "name": "rewards",
          "type": "uint256[]"
        }
      ],
      "name": "Assessment",
      "type": "event"
    },
    {
      "anonymous": false,
      "inputs": [
        {
          "indexed": false,
          "internalType": "string",
          "name": "name",
          "type": "string"
        },
        {
          "indexed": false,
          "internalType": "address",
          "name": "addr",
          "type": "address"
        },
        {
          "indexed": false,
          "internalType": "uint256",
          "name": "registrationFeeUSDWei",
          "type": "uint256"
        },
        {
          "indexed": false,
          "internalType": "uint256",
          "name": "registrationFeeWei",
          "type": "uint256"
        },
        {
          "indexed": false,
          "internalType": "uint256",
          "name": "claps",
          "type": "uint256"
        },
        {
          "indexed": false,
          "internalType": "uint256",
          "name": "reward",
          "type": "uint256"
        }
      ],
      "name": "Transfer",
      "type": "event"
    },
    {
      "payable": true,
      "stateMutability": "payable",
      "type": "fallback"
    },
    {
      "constant": false,
      "inputs": [],
      "name": "decommission",
      "outputs": [],
      "payable": false,
      "stateMutability": "nonpayable",
      "type": "function"
    },
    {
      "constant": false,
      "inputs": [
        {
          "internalType": "uint256",
          "name": "registrationFeeUSDWei",
          "type": "uint256"
        },
        {
          "internalType": "uint256",
          "name": "ETHPriceUSDWei",
          "type": "uint256"
        },
        {
          "internalType": "string[]",
          "name": "names",
          "type": "string[]"
        },
        {
          "internalType": "address payable[]",
          "name": "addresses",
          "type": "address[]"
        },
        {
          "internalType": "uint256[]",
          "name": "claps",
          "type": "uint256[]"
        }
      ],
      "name": "assess",
      "outputs": [],
      "payable": false,
      "stateMutability": "nonpayable",
      "type": "function"
    }
  ],
  "bytecode": "0x608060405234801561001057600080fd5b50336000806101000a81548173ffffffffffffffffffffffffffffffffffffffff021916908373ffffffffffffffffffffffffffffffffffffffff160217905550611374806100606000396000f3fe6080604052600436106100295760003560e01c80635afb34051461002b5780637f068c0f14610054575b005b34801561003757600080fd5b50610052600480360361004d91908101906109be565b61006b565b005b34801561006057600080fd5b50610069610571565b005b6000809054906101000a900473ffffffffffffffffffffffffffffffffffffffff1673ffffffffffffffffffffffffffffffffffffffff163373ffffffffffffffffffffffffffffffffffffffff16146040518060600160405280602f81526020016111cb602f913990610115576040517f08c379a000000000000000000000000000000000000000000000000000000000815260040161010c9190610d7f565b60405180910390fd5b50600084116040518060600160405280603581526020016112fd6035913990610174576040517f08c379a000000000000000000000000000000000000000000000000000000000815260040161016b9190610d7f565b60405180910390fd5b5081518351146040518060800160405280605181526020016111fa60519139906101d4576040517f08c379a00000000000000000000000000000000000000000000000000000000081526004016101cb9190610d7f565b60405180910390fd5b50805182511460405180608001604052806051815260200161124b6051913990610234576040517f08c379a000000000000000000000000000000000000000000000000000000000815260040161022b9190610d7f565b60405180910390fd5b50600061026485610256670de0b6b3a76400008961065690919063ffffffff16565b6106c690919063ffffffff16565b9050600061027c84518361065690919063ffffffff16565b9050804710156040518060a001604052806061815260200161129c60619139906102dc576040517f08c379a00000000000000000000000000000000000000000000000000000000081526004016102d39190610d7f565b60405180910390fd5b50600080905060008090505b84518110156103345761031785828151811061030057fe5b60200260200101518361071090919063ffffffff16565b915061032d60018261071090919063ffffffff16565b90506102e8565b50606084516040519080825280602002602001820160405280156103675781602001602082028038833980820191505090505b50905060008090505b85518110156103e4576103b1836103a38689858151811061038d57fe5b602002602001015161065690919063ffffffff16565b6106c690919063ffffffff16565b8282815181106103bd57fe5b6020026020010181815250506103dd60018261071090919063ffffffff16565b9050610370565b507f279c363658f0b65a16575110be97793651e216426bbbe2fe354cf8c48d7c757d428a8a8a8a8a8a8a8a8a6040516104269a99989796959493929190610e6b565b60405180910390a160008090505b865181101561056557600082828151811061044b57fe5b60200260200101511180156104b7575086818151811061046757fe5b602002602001015173ffffffffffffffffffffffffffffffffffffffff166108fc83838151811061049457fe5b60200260200101519081150290604051600060405180830381858888f193505050505b1561054a577f70cc3d2d4d11510af102774a4477bfb3764c6c13a1eeb06fce821af8ed63d2bd8882815181106104e957fe5b60200260200101518883815181106104fd57fe5b60200260200101518c888a868151811061051357fe5b602002602001015187878151811061052757fe5b602002602001015160405161054196959493929190610dc3565b60405180910390a15b61055e60018261071090919063ffffffff16565b9050610434565b50505050505050505050565b6000809054906101000a900473ffffffffffffffffffffffffffffffffffffffff1673ffffffffffffffffffffffffffffffffffffffff163373ffffffffffffffffffffffffffffffffffffffff16146040518060600160405280602f81526020016111cb602f91399061061b576040517f08c379a00000000000000000000000000000000000000000000000000000000081526004016106129190610d7f565b60405180910390fd5b506000809054906101000a900473ffffffffffffffffffffffffffffffffffffffff1673ffffffffffffffffffffffffffffffffffffffff16ff5b60008083141561066957600090506106c0565b600082840290508284828161067a57fe5b04146106bb576040517f08c379a00000000000000000000000000000000000000000000000000000000081526004016106b290610e4b565b60405180910390fd5b809150505b92915050565b600061070883836040518060400160405280601a81526020017f536166654d6174683a206469766973696f6e206279207a65726f000000000000815250610765565b905092915050565b60008082840190508381101561075b576040517f08c379a000000000000000000000000000000000000000000000000000000000815260040161075290610e2b565b60405180910390fd5b8091505092915050565b600080831182906107ac576040517f08c379a00000000000000000000000000000000000000000000000000000000081526004016107a39190610da1565b60405180910390fd5b5060008385816107b857fe5b049050809150509392505050565b6000813590506107d58161119c565b92915050565b600082601f8301126107ec57600080fd5b81356107ff6107fa82610f50565b610f23565b9150818183526020840193506020810190508385602084028201111561082457600080fd5b60005b83811015610854578161083a88826107c6565b845260208401935060208301925050600181019050610827565b5050505092915050565b600082601f83011261086f57600080fd5b813561088261087d82610f78565b610f23565b9150818183526020840193506020810190508360005b838110156108c857813586016108ae8882610955565b845260208401935060208301925050600181019050610898565b5050505092915050565b600082601f8301126108e357600080fd5b81356108f66108f182610fa0565b610f23565b9150818183526020840193506020810190508385602084028201111561091b57600080fd5b60005b8381101561094b578161093188826109a9565b84526020840193506020830192505060018101905061091e565b5050505092915050565b600082601f83011261096657600080fd5b813561097961097482610fc8565b610f23565b9150808252602083016020830185838301111561099557600080fd5b6109a0838284611149565b50505092915050565b6000813590506109b8816111b3565b92915050565b600080600080600060a086880312156109d657600080fd5b60006109e4888289016109a9565b95505060206109f5888289016109a9565b945050604086013567ffffffffffffffff811115610a1257600080fd5b610a1e8882890161085e565b935050606086013567ffffffffffffffff811115610a3b57600080fd5b610a47888289016107db565b925050608086013567ffffffffffffffff811115610a6457600080fd5b610a70888289016108d2565b9150509295509295909350565b6000610a898383610ad0565b60208301905092915050565b6000610aa18383610c49565b905092915050565b6000610ab58383610d61565b60208301905092915050565b610aca81611113565b82525050565b610ad9816110d7565b82525050565b6000610aea82611024565b610af48185611082565b9350610aff83610ff4565b8060005b83811015610b30578151610b178882610a7d565b9750610b228361105b565b925050600181019050610b03565b5085935050505092915050565b6000610b488261102f565b610b528185611093565b935083602082028501610b6485611004565b8060005b85811015610ba05784840389528151610b818582610a95565b9450610b8c83611068565b925060208a01995050600181019050610b68565b50829750879550505050505092915050565b6000610bbd8261103a565b610bc781856110a4565b9350610bd283611014565b8060005b83811015610c03578151610bea8882610aa9565b9750610bf583611075565b925050600181019050610bd6565b5085935050505092915050565b6000610c1b82611050565b610c2581856110c6565b9350610c35818560208601611158565b610c3e8161118b565b840191505092915050565b6000610c5482611045565b610c5e81856110b5565b9350610c6e818560208601611158565b610c778161118b565b840191505092915050565b6000610c8d82611045565b610c9781856110c6565b9350610ca7818560208601611158565b610cb08161118b565b840191505092915050565b6000610cc8601b836110c6565b91507f536166654d6174683a206164646974696f6e206f766572666c6f7700000000006000830152602082019050919050565b6000610d086021836110c6565b91507f536166654d6174683a206d756c7469706c69636174696f6e206f766572666c6f60008301527f77000000000000000000000000000000000000000000000000000000000000006020830152604082019050919050565b610d6a81611109565b82525050565b610d7981611109565b82525050565b60006020820190508181036000830152610d998184610c82565b905092915050565b60006020820190508181036000830152610dbb8184610c10565b905092915050565b600060c0820190508181036000830152610ddd8189610c82565b9050610dec6020830188610ac1565b610df96040830187610d70565b610e066060830186610d70565b610e136080830185610d70565b610e2060a0830184610d70565b979650505050505050565b60006020820190508181036000830152610e4481610cbb565b9050919050565b60006020820190508181036000830152610e6481610cfb565b9050919050565b600061014082019050610e81600083018d610d70565b610e8e602083018c610d70565b610e9b604083018b610d70565b8181036060830152610ead818a610b3d565b90508181036080830152610ec18189610adf565b905081810360a0830152610ed58188610bb2565b9050610ee460c0830187610d70565b610ef160e0830186610d70565b610eff610100830185610d70565b818103610120830152610f128184610bb2565b90509b9a5050505050505050505050565b6000604051905081810181811067ffffffffffffffff82111715610f4657600080fd5b8060405250919050565b600067ffffffffffffffff821115610f6757600080fd5b602082029050602081019050919050565b600067ffffffffffffffff821115610f8f57600080fd5b602082029050602081019050919050565b600067ffffffffffffffff821115610fb757600080fd5b602082029050602081019050919050565b600067ffffffffffffffff821115610fdf57600080fd5b601f19601f8301169050602081019050919050565b6000819050602082019050919050565b6000819050602082019050919050565b6000819050602082019050919050565b600081519050919050565b600081519050919050565b600081519050919050565b600081519050919050565b600081519050919050565b6000602082019050919050565b6000602082019050919050565b6000602082019050919050565b600082825260208201905092915050565b600082825260208201905092915050565b600082825260208201905092915050565b600082825260208201905092915050565b600082825260208201905092915050565b60006110e2826110e9565b9050919050565b600073ffffffffffffffffffffffffffffffffffffffff82169050919050565b6000819050919050565b600061111e82611125565b9050919050565b600061113082611137565b9050919050565b6000611142826110e9565b9050919050565b82818337600083830152505050565b60005b8381101561117657808201518184015260208101905061115b565b83811115611185576000848401525b50505050565b6000601f19601f8301169050919050565b6111a5816110d7565b81146111b057600080fd5b50565b6111bc81611109565b81146111c757600080fd5b5056fe5468652073656e646572206163636f756e74206973206e6f7420746865206f776e657220286e6f742d6f776e65722954686520616d6f756e74206f66206e616d657320646966666572732066726f6d2074686520616d6f756e74206f662061646472657373657320286e616d65732d6469666665722d6164647265737365732954686520616d6f756e74206f662061646472657373657320646966666572732066726f6d2074686520616d6f756e74206f6620636c61707320286164647265737365732d6469666665722d636c617073295468652065746865722076616c756520696e207468697320636f6e7472616374206973206c657373207468616e2074686520746f74616c207265776172642076616c756520746f2073656e642028696e73756666696369656e742d76616c7565295468652070726f76696465642045544820707269636520697320696e76616c69642028696e76616c69642d6574682d707269636529a365627a7a72315820714504985b2d822d7b12f0f8b067596018a06b31035e65970a7096b04067e34d6c6578706572696d656e74616cf564736f6c63430005100040",
  "source": "/**\n *Submitted for verification at Etherscan.io on 2020-04-23\n*/\n\n// File: @openzeppelin/contracts/math/SafeMath.sol\n\npragma solidity ^0.5.0;\n\n/**\n * @dev Wrappers over Solidity's arithmetic operations with added overflow\n * checks.\n *\n * Arithmetic operations in Solidity wrap on overflow. This can easily result\n * in bugs, because programmers usually assume that an overflow raises an\n * error, which is the standard behavior in high level programming languages.\n * `SafeMath` restores this intuition by reverting the transaction when an\n * operation overflows.\n *\n * Using this library instead of the unchecked operations eliminates an entire\n * class of bugs, so it's recommended to use it always.\n */\nlibrary SafeMath {\n    /**\n     * @dev Returns the addition of two unsigned integers, reverting on\n     * overflow.\n     *\n     * Counterpart to Solidity's `+` operator.\n     *\n     * Requirements:\n     * - Addition cannot overflow.\n     */\n    function add(uint256 a, uint256 b) internal pure returns (uint256) {\n        uint256 c = a + b;\n        require(c >= a, \"SafeMath: addition overflow\");\n\n        return c;\n    }\n\n    /**\n     * @dev Returns the subtraction of two unsigned integers, reverting on\n     * overflow (when the result is negative).\n     *\n     * Counterpart to Solidity's `-` operator.\n     *\n     * Requirements:\n     * - Subtraction cannot overflow.\n     */\n    function sub(uint256 a, uint256 b) internal pure returns (uint256) {\n        return sub(a, b, \"SafeMath: subtraction overflow\");\n    }\n\n    /**\n     * @dev Returns the subtraction of two unsigned integers, reverting with custom message on\n     * overflow (when the result is negative).\n     *\n     * Counterpart to Solidity's `-` operator.\n     *\n     * Requirements:\n     * - Subtraction cannot overflow.\n     *\n     * _Available since v2.4.0._\n     */\n    function sub(uint256 a, uint256 b, string memory errorMessage) internal pure returns (uint256) {\n        require(b <= a, errorMessage);\n        uint256 c = a - b;\n\n        return c;\n    }\n\n    /**\n     * @dev Returns the multiplication of two unsigned integers, reverting on\n     * overflow.\n     *\n     * Counterpart to Solidity's `*` operator.\n     *\n     * Requirements:\n     * - Multiplication cannot overflow.\n     */\n    function mul(uint256 a, uint256 b) internal pure returns (uint256) {\n        // Gas optimization: this is cheaper than requiring 'a' not being zero, but the\n        // benefit is lost if 'b' is also tested.\n        // See: https://github.com/OpenZeppelin/openzeppelin-contracts/pull/522\n        if (a == 0) {\n            return 0;\n        }\n\n        uint256 c = a * b;\n        require(c / a == b, \"SafeMath: multiplication overflow\");\n\n        return c;\n    }\n\n    /**\n     * @dev Returns the integer division of two unsigned integers. Reverts on\n     * division by zero. The result is rounded towards zero.\n     *\n     * Counterpart to Solidity's `/` operator. Note: this function uses a\n     * `revert` opcode (which leaves remaining gas untouched) while Solidity\n     * uses an invalid opcode to revert (consuming all remaining gas).\n     *\n     * Requirements:\n     * - The divisor cannot be zero.\n     */\n    function div(uint256 a, uint256 b) internal pure returns (uint256) {\n        return div(a, b, \"SafeMath: division by zero\");\n    }\n\n    /**\n     * @dev Returns the integer division of two unsigned integers. Reverts with custom message on\n     * division by zero. The result is rounded towards zero.\n     *\n     * Counterpart to Solidity's `/` operator. Note: this function uses a\n     * `revert` opcode (which leaves remaining gas untouched) while Solidity\n     * uses an invalid opcode to revert (consuming all remaining gas).\n     *\n     * Requirements:\n     * - The divisor cannot be zero.\n     *\n     * _Available since v2.4.0._\n     */\n    function div(uint256 a, uint256 b, string memory errorMessage) internal pure returns (uint256) {\n        // Solidity only automatically asserts when dividing by 0\n        require(b > 0, errorMessage);\n        uint256 c = a / b;\n        // assert(a == b * c + a % b); // There is no case in which this doesn't hold\n\n        return c;\n    }\n\n    /**\n     * @dev Returns the remainder of dividing two unsigned integers. (unsigned integer modulo),\n     * Reverts when dividing by zero.\n     *\n     * Counterpart to Solidity's `%` operator. This function uses a `revert`\n     * opcode (which leaves remaining gas untouched) while Solidity uses an\n     * invalid opcode to revert (consuming all remaining gas).\n     *\n     * Requirements:\n     * - The divisor cannot be zero.\n     */\n    function mod(uint256 a, uint256 b) internal pure returns (uint256) {\n        return mod(a, b, \"SafeMath: modulo by zero\");\n    }\n\n    /**\n     * @dev Returns the remainder of dividing two unsigned integers. (unsigned integer modulo),\n     * Reverts with custom message when dividing by zero.\n     *\n     * Counterpart to Solidity's `%` operator. This function uses a `revert`\n     * opcode (which leaves remaining gas untouched) while Solidity uses an\n     * invalid opcode to revert (consuming all remaining gas).\n     *\n     * Requirements:\n     * - The divisor cannot be zero.\n     *\n     * _Available since v2.4.0._\n     */\n    function mod(uint256 a, uint256 b, string memory errorMessage) internal pure returns (uint256) {\n        require(b != 0, errorMessage);\n        return a % b;\n    }\n}\n\n// File: contracts/Coinosis.sol\n\npragma solidity 0.5.16;\npragma experimental ABIEncoderV2;\n\n\ncontract CoinosisV0 {\n\n    using SafeMath for uint;\n\n    string constant NOT_OWNER = \"The sender account is not the owner \\\n(not-owner)\";\n    string constant INVALID_ETH_PRICE = \"The provided ETH price is invalid \\\n(invalid-eth-price)\";\n    string constant NAMES_DIFFER_ADDRESSES =\n        \"The amount of names differs from the amount of addresses \\\n(names-differ-addresses)\";\n    string constant ADDRESSES_DIFFER_CLAPS =\n        \"The amount of addresses differs from the amount of claps \\\n(addresses-differ-claps)\";\n    string constant INSUFFICIENT_VALUE =\n        \"The ether value in this contract is less than the total reward value \\\nto send (insufficient-value)\";\n\n    address payable private owner;\n\n    event Assessment(\n        uint timestamp,\n        uint registrationFeeUSDWei,\n        uint ETHPriceUSDWei,\n        string[] names,\n        address payable[] addresses,\n        uint[] claps,\n        uint registrationFeeWei,\n        uint totalFeesWei,\n        uint totalClaps,\n        uint[] rewards\n    );\n    event Transfer(\n        string name,\n        address addr,\n        uint registrationFeeUSDWei,\n        uint registrationFeeWei,\n        uint claps,\n        uint reward\n    );\n\n    constructor () public {\n        owner = msg.sender;\n    }\n\n    function () external payable {}\n\n    function decommission() public {\n        require(msg.sender == owner, NOT_OWNER);\n        selfdestruct(owner);\n    }\n\n    function assess(\n        uint registrationFeeUSDWei,\n        uint ETHPriceUSDWei,\n        string[] memory names,\n        address payable[] memory addresses,\n        uint[] memory claps\n    ) public {\n        require(msg.sender == owner, NOT_OWNER);\n        require(ETHPriceUSDWei > 0, INVALID_ETH_PRICE);\n        require(names.length == addresses.length, NAMES_DIFFER_ADDRESSES);\n        require(addresses.length == claps.length, ADDRESSES_DIFFER_CLAPS);\n        uint registrationFeeWei =\n            registrationFeeUSDWei.mul(1 ether).div(ETHPriceUSDWei);\n        uint totalFeesWei = registrationFeeWei.mul(addresses.length);\n        require(address(this).balance >= totalFeesWei, INSUFFICIENT_VALUE);\n        uint totalClaps = 0;\n        for (uint i = 0; i < claps.length; i = i.add(1)) {\n            totalClaps = totalClaps.add(claps[i]);\n        }\n        uint[] memory rewards = new uint[](claps.length);\n        for (uint i = 0; i < claps.length; i = i.add(1)) {\n            rewards[i] = claps[i].mul(totalFeesWei).div(totalClaps);\n        }\n        emit Assessment(\n            now,\n            registrationFeeUSDWei,\n            ETHPriceUSDWei,\n            names,\n            addresses,\n            claps,\n            registrationFeeWei,\n            totalFeesWei,\n            totalClaps,\n            rewards\n        );\n        for (uint i = 0; i < addresses.length; i = i.add(1)) {\n            if (rewards[i] > 0 && addresses[i].send(rewards[i])) {\n                emit Transfer(\n                    names[i],\n                    addresses[i],\n                    registrationFeeUSDWei,\n                    registrationFeeWei,\n                    claps[i],\n                    rewards[i]\n                );\n            }\n        }\n    }\n}\n",
  "sourcePath": "/home/e18r/code/coinosis/contracts/CoinosisV0.sol",
  "compiler": {
    "name": "solc",
    "version": "0.5.16+commit.9c3226ce.Emscripten.clang"
  },
  "schemaVersion": "3.2.0",
  "updatedAt": "2020-06-09T23:59:21.667Z",
  "devdoc": {
    "methods": {}
  },
  "userdoc": {
    "methods": {}
  }
}