{
  "contractName": "Coinosis",
  "abi": [
    {
      "inputs": [],
      "payable": false,
      "stateMutability": "nonpayable",
      "type": "constructor"
    },
    {
      "anonymous": false,
      "inputs": [
        {
          "indexed": false,
          "internalType": "uint256",
          "name": "timestamp",
          "type": "uint256"
        },
        {
          "indexed": true,
          "internalType": "string",
          "name": "eventURL",
          "type": "string"
        },
        {
          "indexed": false,
          "internalType": "uint256",
          "name": "registrationFeeUSDWei",
          "type": "uint256"
        },
        {
          "indexed": false,
          "internalType": "uint256",
          "name": "ETHPriceUSDWei",
          "type": "uint256"
        },
        {
          "indexed": false,
          "internalType": "string[]",
          "name": "names",
          "type": "string[]"
        },
        {
          "indexed": false,
          "internalType": "address payable[]",
          "name": "addresses",
          "type": "address[]"
        },
        {
          "indexed": false,
          "internalType": "uint256[]",
          "name": "claps",
          "type": "uint256[]"
        },
        {
          "indexed": false,
          "internalType": "uint256",
          "name": "registrationFeeWei",
          "type": "uint256"
        },
        {
          "indexed": false,
          "internalType": "uint256",
          "name": "totalFeesWei",
          "type": "uint256"
        },
        {
          "indexed": false,
          "internalType": "uint256",
          "name": "totalClaps",
          "type": "uint256"
        },
        {
          "indexed": false,
          "internalType": "uint256[]",
          "name": "rewards",
          "type": "uint256[]"
        }
      ],
      "name": "Assessment",
      "type": "event"
    },
    {
      "anonymous": false,
      "inputs": [
        {
          "indexed": false,
          "internalType": "uint256",
          "name": "rewardedAmount",
          "type": "uint256"
        }
      ],
      "name": "RewardedAmount",
      "type": "event"
    },
    {
      "anonymous": false,
      "inputs": [
        {
          "indexed": false,
          "internalType": "string",
          "name": "name",
          "type": "string"
        },
        {
          "indexed": true,
          "internalType": "address",
          "name": "addr",
          "type": "address"
        },
        {
          "indexed": false,
          "internalType": "uint256",
          "name": "registrationFeeUSDWei",
          "type": "uint256"
        },
        {
          "indexed": false,
          "internalType": "uint256",
          "name": "registrationFeeWei",
          "type": "uint256"
        },
        {
          "indexed": false,
          "internalType": "uint256",
          "name": "claps",
          "type": "uint256"
        },
        {
          "indexed": false,
          "internalType": "uint256",
          "name": "reward",
          "type": "uint256"
        }
      ],
      "name": "Transfer",
      "type": "event"
    },
    {
      "payable": true,
      "stateMutability": "payable",
      "type": "fallback"
    },
    {
      "constant": true,
      "inputs": [],
      "name": "version",
      "outputs": [
        {
          "internalType": "string",
          "name": "",
          "type": "string"
        }
      ],
      "payable": false,
      "stateMutability": "view",
      "type": "function"
    },
    {
      "constant": false,
      "inputs": [],
      "name": "decommission",
      "outputs": [],
      "payable": false,
      "stateMutability": "nonpayable",
      "type": "function"
    },
    {
      "constant": false,
      "inputs": [
        {
          "internalType": "string",
          "name": "eventURL",
          "type": "string"
        },
        {
          "internalType": "uint256",
          "name": "registrationFeeUSDWei",
          "type": "uint256"
        },
        {
          "internalType": "uint256",
          "name": "ETHPriceUSDWei",
          "type": "uint256"
        },
        {
          "internalType": "string[]",
          "name": "names",
          "type": "string[]"
        },
        {
          "internalType": "address payable[]",
          "name": "addresses",
          "type": "address[]"
        },
        {
          "internalType": "uint256[]",
          "name": "claps",
          "type": "uint256[]"
        }
      ],
      "name": "assess",
      "outputs": [],
      "payable": false,
      "stateMutability": "nonpayable",
      "type": "function"
    }
  ],
  "bytecode": "0x60c06040526005608081905264312e332e3160d81b60a0908152610026916000919061004b565b5034801561003357600080fd5b50600180546001600160a01b031916331790556100e6565b828054600181600116156101000203166002900490600052602060002090601f016020900481019282601f1061008c57805160ff19168380011785556100b9565b828001600101855582156100b9579182015b828111156100b957825182559160200191906001019061009e565b506100c59291506100c9565b5090565b6100e391905b808211156100c557600081556001016100cf565b90565b610fd2806100f56000396000f3fe6080604052600436106100345760003560e01c8063293071051461003657806354fd4d50146100565780637f068c0f14610081575b005b34801561004257600080fd5b50610034610051366004610899565b610096565b34801561006257600080fd5b5061006b610526565b6040516100789190610bc8565b60405180910390f35b34801561008d57600080fd5b506100346105b4565b6001546040805160608101909152602f8082526001600160a01b03909216331491610e086020830139906100e65760405162461bcd60e51b81526004016100dd9190610bc8565b60405180910390fd5b5060008411604051806060016040528060358152602001610f5b60359139906101225760405162461bcd60e51b81526004016100dd9190610bc8565b508151835114604051806080016040528060518152602001610e37605191399061015f5760405162461bcd60e51b81526004016100dd9190610bc8565b508051825114604051806080016040528060518152602001610ea9605191399061019c5760405162461bcd60e51b81526004016100dd9190610bc8565b5060006101c7856101bb88670de0b6b3a764000063ffffffff61060a16565b9063ffffffff61064d16565b905060006101df84518361060a90919063ffffffff16565b9050804710156040518060a0016040528060618152602001610efa606191399061021c5760405162461bcd60e51b81526004016100dd9190610bc8565b506000805b845181101561026a5761025085828151811061023957fe5b60200260200101518361068c90919063ffffffff16565b915061026381600163ffffffff61068c16565b9050610221565b5060008111604051806060016040528060218152602001610e8860219139906102a65760405162461bcd60e51b81526004016100dd9190610bc8565b50606084516040519080825280602002602001820160405280156102d4578160200160208202803883390190505b50905060005b855181101561033c5761030d836101bb868985815181106102f757fe5b602002602001015161060a90919063ffffffff16565b82828151811061031957fe5b602090810291909101015261033581600163ffffffff61068c16565b90506102da565b508960405161034b9190610bb5565b60405180910390207f5e59a8025184c1608567a405f6ce99185bf136419d33deb04d2d822957d294c5428b8b8b8b8b8b8b8b8b6040516103949a99989796959493929190610c58565b60405180910390a26000805b87518110156104e15760008382815181106103b757fe5b602002602001015111801561041657508781815181106103d357fe5b60200260200101516001600160a01b03166108fc8483815181106103f357fe5b60200260200101519081150290604051600060405180830381858888f193505050505b156104c95787818151811061042757fe5b60200260200101516001600160a01b03167f70cc3d2d4d11510af102774a4477bfb3764c6c13a1eeb06fce821af8ed63d2bd8a838151811061046557fe5b60200260200101518d898b868151811061047b57fe5b602002602001015188878151811061048f57fe5b60200260200101516040516104a8959493929190610bd9565b60405180910390a28281815181106104bc57fe5b6020026020010151820191505b6104da81600163ffffffff61068c16565b90506103a0565b507ff45ef13729b4b44bf31cfc593a8c10a2f431141062af083154b2737f808cc56f816040516105119190610c4a565b60405180910390a15050505050505050505050565b6000805460408051602060026001851615610100026000190190941693909304601f810184900484028201840190925281815292918301828280156105ac5780601f10610581576101008083540402835291602001916105ac565b820191906000526020600020905b81548152906001019060200180831161058f57829003601f168201915b505050505081565b6001546040805160608101909152602f8082526001600160a01b03909216331491610e086020830139906105fb5760405162461bcd60e51b81526004016100dd9190610bc8565b506001546001600160a01b0316ff5b60008261061957506000610647565b8282028284828161062657fe5b04146106445760405162461bcd60e51b81526004016100dd90610c3a565b90505b92915050565b600061064483836040518060400160405280601a815260200179536166654d6174683a206469766973696f6e206279207a65726f60301b8152506106b1565b6000828201838110156106445760405162461bcd60e51b81526004016100dd90610c2a565b600081836106d25760405162461bcd60e51b81526004016100dd9190610bc8565b5060008385816106de57fe5b0495945050505050565b803561064781610de7565b600082601f83011261070457600080fd5b813561071761071282610d2e565b610d08565b9150818183526020840193506020810190508385602084028201111561073c57600080fd5b60005b83811015610768578161075288826106e8565b845250602092830192919091019060010161073f565b5050505092915050565b600082601f83011261078357600080fd5b813561079161071282610d2e565b81815260209384019390925082018360005b8381101561076857813586016107b9888261083f565b84525060209283019291909101906001016107a3565b600082601f8301126107e057600080fd5b81356107ee61071282610d2e565b9150818183526020840193506020810190508385602084028201111561081357600080fd5b60005b838110156107685781610829888261088e565b8452506020928301929190910190600101610816565b600082601f83011261085057600080fd5b813561085e61071282610d4e565b9150808252602083016020830185838301111561087a57600080fd5b610885838284610da1565b50505092915050565b803561064781610dfe565b60008060008060008060c087890312156108b257600080fd5b86356001600160401b038111156108c857600080fd5b6108d489828a0161083f565b96505060206108e589828a0161088e565b95505060406108f689828a0161088e565b94505060608701356001600160401b0381111561091257600080fd5b61091e89828a01610772565b93505060808701356001600160401b0381111561093a57600080fd5b61094689828a016106f3565b92505060a08701356001600160401b0381111561096257600080fd5b61096e89828a016107cf565b9150509295509295509295565b600061098783836109a7565b505060200190565b60006106448383610acb565b60006109878383610bac565b6109b081610d8d565b82525050565b60006109c182610d7b565b6109cb8185610d7f565b93506109d683610d75565b8060005b83811015610a045781516109ee888261097b565b97506109f983610d75565b9250506001016109da565b509495945050505050565b6000610a1a82610d7b565b610a248185610d7f565b935083602082028501610a3685610d75565b8060005b85811015610a705784840389528151610a53858261098f565b9450610a5e83610d75565b60209a909a0199925050600101610a3a565b5091979650505050505050565b6000610a8882610d7b565b610a928185610d7f565b9350610a9d83610d75565b8060005b83811015610a04578151610ab5888261099b565b9750610ac083610d75565b925050600101610aa1565b6000610ad682610d7b565b610ae08185610d7f565b9350610af0818560208601610dad565b610af981610ddd565b9093019392505050565b6000610b0e82610d7b565b610b188185610d88565b9350610b28818560208601610dad565b9290920192915050565b6000610b3f601b83610d7f565b7a536166654d6174683a206164646974696f6e206f766572666c6f7760281b815260200192915050565b6000610b76602183610d7f565b7f536166654d6174683a206d756c7469706c69636174696f6e206f766572666c6f8152607760f81b602082015260400192915050565b6109b081610d9e565b6000610bc18284610b03565b9392505050565b602080825281016106448184610acb565b60a08082528101610bea8188610acb565b9050610bf96020830187610bac565b610c066040830186610bac565b610c136060830185610bac565b610c206080830184610bac565b9695505050505050565b6020808252810161064781610b32565b6020808252810161064781610b69565b602081016106478284610bac565b6101408101610c67828d610bac565b610c74602083018c610bac565b610c81604083018b610bac565b8181036060830152610c93818a610a0f565b90508181036080830152610ca781896109b6565b905081810360a0830152610cbb8188610a7d565b9050610cca60c0830187610bac565b610cd760e0830186610bac565b610ce5610100830185610bac565b818103610120830152610cf88184610a7d565b9c9b505050505050505050505050565b6040518181016001600160401b0381118282101715610d2657600080fd5b604052919050565b60006001600160401b03821115610d4457600080fd5b5060209081020190565b60006001600160401b03821115610d6457600080fd5b506020601f91909101601f19160190565b60200190565b5190565b90815260200190565b919050565b60006001600160a01b038216610647565b90565b82818337506000910152565b60005b83811015610dc8578181015183820152602001610db0565b83811115610dd7576000848401525b50505050565b601f01601f191690565b610df081610d8d565b8114610dfb57600080fd5b50565b610df081610d9e56fe5468652073656e646572206163636f756e74206973206e6f7420746865206f776e657220286e6f742d6f776e65722954686520616d6f756e74206f66206e616d657320646966666572732066726f6d2074686520616d6f756e74206f662061646472657373657320286e616d65732d6469666665722d61646472657373657329416c6c2074686520636c61707320617265207a65726f20286e6f2d636c6170732954686520616d6f756e74206f662061646472657373657320646966666572732066726f6d2074686520616d6f756e74206f6620636c61707320286164647265737365732d6469666665722d636c617073295468652065746865722076616c756520696e207468697320636f6e7472616374206973206c657373207468616e2074686520746f74616c207265776172642076616c756520746f2073656e642028696e73756666696369656e742d76616c7565295468652070726f76696465642045544820707269636520697320696e76616c69642028696e76616c69642d6574682d707269636529a365627a7a72315820dc499f87394fbdd07ff9c3e3d5a9c25f3f671791cc88acc51080db91d50169e06c6578706572696d656e74616cf564736f6c63430005100040",
  "source": "pragma solidity 0.5.16;\npragma experimental ABIEncoderV2;\n\nimport \"@openzeppelin/contracts/math/SafeMath.sol\";\n\ncontract Coinosis {\n\n    using SafeMath for uint;\n\n    string constant NOT_OWNER = \"The sender account is not the owner \\\n(not-owner)\";\n    string constant INVALID_ETH_PRICE = \"The provided ETH price is invalid \\\n(invalid-eth-price)\";\n    string constant NAMES_DIFFER_ADDRESSES =\n        \"The amount of names differs from the amount of addresses \\\n(names-differ-addresses)\";\n    string constant ADDRESSES_DIFFER_CLAPS =\n        \"The amount of addresses differs from the amount of claps \\\n(addresses-differ-claps)\";\n    string constant INSUFFICIENT_VALUE =\n        \"The ether value in this contract is less than the total reward value \\\nto send (insufficient-value)\";\n    string constant NO_CLAPS = \"All the claps are zero (no-claps)\";\n\n    string public version = \"1.3.1\";\n    address payable private owner;\n\n    event Assessment(\n        uint timestamp,\n        string indexed eventURL,\n        uint registrationFeeUSDWei,\n        uint ETHPriceUSDWei,\n        string[] names,\n        address payable[] addresses,\n        uint[] claps,\n        uint registrationFeeWei,\n        uint totalFeesWei,\n        uint totalClaps,\n        uint[] rewards\n    );\n    event Transfer(\n        string name,\n        address indexed addr,\n        uint registrationFeeUSDWei,\n        uint registrationFeeWei,\n        uint claps,\n        uint reward\n    );\n    event RewardedAmount(uint rewardedAmount);\n\n    constructor () public {\n        owner = msg.sender;\n    }\n\n    function () external payable {}\n\n    function decommission() public {\n        require(msg.sender == owner, NOT_OWNER);\n        selfdestruct(owner);\n    }\n\n    function assess(\n        string memory eventURL,\n        uint registrationFeeUSDWei,\n        uint ETHPriceUSDWei,\n        string[] memory names,\n        address payable[] memory addresses,\n        uint[] memory claps\n    ) public {\n        require(msg.sender == owner, NOT_OWNER);\n        require(ETHPriceUSDWei > 0, INVALID_ETH_PRICE);\n        require(names.length == addresses.length, NAMES_DIFFER_ADDRESSES);\n        require(addresses.length == claps.length, ADDRESSES_DIFFER_CLAPS);\n        uint registrationFeeWei =\n            registrationFeeUSDWei.mul(1 ether).div(ETHPriceUSDWei);\n        uint totalFeesWei = registrationFeeWei.mul(addresses.length);\n        require(address(this).balance >= totalFeesWei, INSUFFICIENT_VALUE);\n        uint totalClaps = 0;\n        for (uint i = 0; i < claps.length; i = i.add(1)) {\n            totalClaps = totalClaps.add(claps[i]);\n        }\n        require(totalClaps > 0, NO_CLAPS);\n        uint[] memory rewards = new uint[](claps.length);\n        for (uint i = 0; i < claps.length; i = i.add(1)) {\n            rewards[i] = claps[i].mul(totalFeesWei).div(totalClaps);\n        }\n        emit Assessment(\n            now,\n            eventURL,\n            registrationFeeUSDWei,\n            ETHPriceUSDWei,\n            names,\n            addresses,\n            claps,\n            registrationFeeWei,\n            totalFeesWei,\n            totalClaps,\n            rewards\n        );\n        uint rewardedAmount = 0;\n        for (uint i = 0; i < addresses.length; i = i.add(1)) {\n            if (rewards[i] > 0 && addresses[i].send(rewards[i])) {\n                emit Transfer(\n                    names[i],\n                    addresses[i],\n                    registrationFeeUSDWei,\n                    registrationFeeWei,\n                    claps[i],\n                    rewards[i]\n                );\n                rewardedAmount += rewards[i];\n            }\n        }\n        emit RewardedAmount(rewardedAmount);\n    }\n}\n",
  "sourcePath": "/home/e18r/code/coinosis/contracts/Coinosis.sol",
  "compiler": {
    "name": "solc",
    "version": "0.5.16+commit.9c3226ce.Emscripten.clang"
  },
  "schemaVersion": "3.2.0",
  "updatedAt": "2020-06-18T16:58:51.960Z",
  "networkType": "ethereum",
  "devdoc": {
    "methods": {}
  },
  "userdoc": {
    "methods": {}
  }
}