{
  "contractName": "Event",
  "abi": [
    {
      "inputs": [
        {
          "internalType": "string",
          "name": "_id",
          "type": "string"
        },
        {
          "internalType": "uint64",
          "name": "_fee",
          "type": "uint64"
        },
        {
          "internalType": "uint32",
          "name": "_end",
          "type": "uint32"
        }
      ],
      "payable": false,
      "stateMutability": "nonpayable",
      "type": "constructor"
    },
    {
      "anonymous": false,
      "inputs": [
        {
          "indexed": false,
          "internalType": "uint256",
          "name": "totalReward",
          "type": "uint256"
        }
      ],
      "name": "Distribution",
      "type": "event"
    },
    {
      "anonymous": false,
      "inputs": [
        {
          "indexed": true,
          "internalType": "address",
          "name": "attendee",
          "type": "address"
        },
        {
          "indexed": false,
          "internalType": "uint256",
          "name": "reward",
          "type": "uint256"
        }
      ],
      "name": "Transfer",
      "type": "event"
    },
    {
      "constant": true,
      "inputs": [],
      "name": "CLAPS_PER_ATTENDEE",
      "outputs": [
        {
          "internalType": "uint8",
          "name": "",
          "type": "uint8"
        }
      ],
      "payable": false,
      "stateMutability": "view",
      "type": "function"
    },
    {
      "constant": true,
      "inputs": [],
      "name": "allowedClaps",
      "outputs": [
        {
          "internalType": "uint256",
          "name": "",
          "type": "uint256"
        }
      ],
      "payable": false,
      "stateMutability": "view",
      "type": "function"
    },
    {
      "constant": true,
      "inputs": [
        {
          "internalType": "uint256",
          "name": "",
          "type": "uint256"
        }
      ],
      "name": "attendees",
      "outputs": [
        {
          "internalType": "address payable",
          "name": "",
          "type": "address"
        }
      ],
      "payable": false,
      "stateMutability": "view",
      "type": "function"
    },
    {
      "constant": true,
      "inputs": [
        {
          "internalType": "address",
          "name": "",
          "type": "address"
        }
      ],
      "name": "claps",
      "outputs": [
        {
          "internalType": "uint256",
          "name": "",
          "type": "uint256"
        }
      ],
      "payable": false,
      "stateMutability": "view",
      "type": "function"
    },
    {
      "constant": true,
      "inputs": [],
      "name": "end",
      "outputs": [
        {
          "internalType": "uint32",
          "name": "",
          "type": "uint32"
        }
      ],
      "payable": false,
      "stateMutability": "view",
      "type": "function"
    },
    {
      "constant": true,
      "inputs": [],
      "name": "fee",
      "outputs": [
        {
          "internalType": "uint64",
          "name": "",
          "type": "uint64"
        }
      ],
      "payable": false,
      "stateMutability": "view",
      "type": "function"
    },
    {
      "constant": true,
      "inputs": [],
      "name": "id",
      "outputs": [
        {
          "internalType": "string",
          "name": "",
          "type": "string"
        }
      ],
      "payable": false,
      "stateMutability": "view",
      "type": "function"
    },
    {
      "constant": true,
      "inputs": [
        {
          "internalType": "address",
          "name": "",
          "type": "address"
        }
      ],
      "name": "states",
      "outputs": [
        {
          "internalType": "uint8",
          "name": "",
          "type": "uint8"
        }
      ],
      "payable": false,
      "stateMutability": "view",
      "type": "function"
    },
    {
      "constant": true,
      "inputs": [],
      "name": "totalClaps",
      "outputs": [
        {
          "internalType": "uint256",
          "name": "",
          "type": "uint256"
        }
      ],
      "payable": false,
      "stateMutability": "view",
      "type": "function"
    },
    {
      "constant": true,
      "inputs": [],
      "name": "getAttendees",
      "outputs": [
        {
          "internalType": "address payable[]",
          "name": "",
          "type": "address[]"
        }
      ],
      "payable": false,
      "stateMutability": "view",
      "type": "function"
    },
    {
      "constant": false,
      "inputs": [],
      "name": "register",
      "outputs": [],
      "payable": true,
      "stateMutability": "payable",
      "type": "function"
    },
    {
      "constant": false,
      "inputs": [
        {
          "internalType": "address[]",
          "name": "_attendees",
          "type": "address[]"
        },
        {
          "internalType": "uint256[]",
          "name": "_claps",
          "type": "uint256[]"
        }
      ],
      "name": "clap",
      "outputs": [],
      "payable": false,
      "stateMutability": "nonpayable",
      "type": "function"
    },
    {
      "constant": false,
      "inputs": [],
      "name": "distribute",
      "outputs": [],
      "payable": false,
      "stateMutability": "nonpayable",
      "type": "function"
    }
  ],
  "bytecode": "0x60806040523480156200001157600080fd5b5060405162001d0a38038062001d0a833981810160405260608110156200003757600080fd5b81019080805160405193929190846401000000008211156200005857600080fd5b838201915060208201858111156200006f57600080fd5b82518660018202830111640100000000821117156200008d57600080fd5b8083526020830192505050908051906020019080838360005b83811015620000c3578082015181840152602081019050620000a6565b50505050905090810190601f168015620000f15780820380516001836020036101000a031916815260200191505b5060405260200180519060200190929190805190602001909291905050508063ffffffff1642106040518060400160405280600e81526020017f6576656e742d66696e697368656400000000000000000000000000000000000081525090620001f8576040517f08c379a00000000000000000000000000000000000000000000000000000000081526004018080602001828103825283818151815260200191508051906020019080838360005b83811015620001bc5780820151818401526020810190506200019f565b50505050905090810190601f168015620001ea5780820380516001836020036101000a031916815260200191505b509250505060405180910390fd5b5082600090805190602001906200021192919062000265565b5081600160006101000a81548167ffffffffffffffff021916908367ffffffffffffffff16021790555080600160086101000a81548163ffffffff021916908363ffffffff16021790555050505062000314565b828054600181600116156101000203166002900490600052602060002090601f016020900481019282601f10620002a857805160ff1916838001178555620002d9565b82800160010185558215620002d9579182015b82811115620002d8578251825591602001919060010190620002bb565b5b509050620002e89190620002ec565b5090565b6200031191905b808211156200030d576000816000905550600101620002f3565b5090565b90565b6119e680620003246000396000f3fe6080604052600436106100c25760003560e01c80634165a1bb1161007f578063ddca3f4311610059578063ddca3f43146104cd578063e4fc6b6d1461050c578063e9258b7714610523578063efbe1c1c1461054e576100c2565b80634165a1bb146103a65780637fe338b514610412578063af640d0f1461043d576100c2565b806302a22337146100c75780630e0c353d146101325780631635c2ce146101ad5780631aa3a008146101de5780631c7ab8e5146101e857806335dfb1ef1461024d575b600080fd5b3480156100d357600080fd5b50610116600480360360208110156100ea57600080fd5b81019080803573ffffffffffffffffffffffffffffffffffffffff169060200190929190505050610585565b604051808260ff1660ff16815260200191505060405180910390f35b34801561013e57600080fd5b5061016b6004803603602081101561015557600080fd5b81019080803590602001909291905050506105a5565b604051808273ffffffffffffffffffffffffffffffffffffffff1673ffffffffffffffffffffffffffffffffffffffff16815260200191505060405180910390f35b3480156101b957600080fd5b506101c26105e1565b604051808260ff1660ff16815260200191505060405180910390f35b6101e66105e6565b005b3480156101f457600080fd5b506102376004803603602081101561020b57600080fd5b81019080803573ffffffffffffffffffffffffffffffffffffffff169060200190929190505050610ad7565b6040518082815260200191505060405180910390f35b34801561025957600080fd5b506103a46004803603604081101561027057600080fd5b810190808035906020019064010000000081111561028d57600080fd5b82018360208201111561029f57600080fd5b803590602001918460208302840111640100000000831117156102c157600080fd5b919080806020026020016040519081016040528093929190818152602001838360200280828437600081840152601f19601f8201169050808301925050505050505091929192908035906020019064010000000081111561032157600080fd5b82018360208201111561033357600080fd5b8035906020019184602083028401116401000000008311171561035557600080fd5b919080806020026020016040519081016040528093929190818152602001838360200280828437600081840152601f19601f820116905080830192505050505050509192919290505050610aef565b005b3480156103b257600080fd5b506103bb611046565b6040518080602001828103825283818151815260200191508051906020019060200280838360005b838110156103fe5780820151818401526020810190506103e3565b505050509050019250505060405180910390f35b34801561041e57600080fd5b506104276110d4565b6040518082815260200191505060405180910390f35b34801561044957600080fd5b506104526110da565b6040518080602001828103825283818151815260200191508051906020019080838360005b83811015610492578082015181840152602081019050610477565b50505050905090810190601f1680156104bf5780820380516001836020036101000a031916815260200191505b509250505060405180910390f35b3480156104d957600080fd5b506104e2611178565b604051808267ffffffffffffffff1667ffffffffffffffff16815260200191505060405180910390f35b34801561051857600080fd5b50610521611192565b005b34801561052f57600080fd5b50610538611756565b6040518082815260200191505060405180910390f35b34801561055a57600080fd5b5061056361175c565b604051808263ffffffff1663ffffffff16815260200191505060405180910390f35b60036020528060005260406000206000915054906101000a900460ff1681565b600281815481106105b257fe5b906000526020600020016000915054906101000a900473ffffffffffffffffffffffffffffffffffffffff1681565b600381565b600160009054906101000a900467ffffffffffffffff1667ffffffffffffffff1634146040518060400160405280600981526020017f77726f6e672d6665650000000000000000000000000000000000000000000000815250906106e5576040517f08c379a00000000000000000000000000000000000000000000000000000000081526004018080602001828103825283818151815260200191508051906020019080838360005b838110156106aa57808201518184015260208101905061068f565b50505050905090810190601f1680156106d75780820380516001836020036101000a031916815260200191505b509250505060405180910390fd5b50600060ff16600360003373ffffffffffffffffffffffffffffffffffffffff1673ffffffffffffffffffffffffffffffffffffffff16815260200190815260200160002060009054906101000a900460ff1660ff16146040518060400160405280601281526020017f616c72656164792d72656769737465726564000000000000000000000000000081525090610818576040517f08c379a00000000000000000000000000000000000000000000000000000000081526004018080602001828103825283818151815260200191508051906020019080838360005b838110156107dd5780820151818401526020810190506107c2565b50505050905090810190601f16801561080a5780820380516001836020036101000a031916815260200191505b509250505060405180910390fd5b506064600280549050106040518060400160405280601281526020017f746f6f2d6d616e792d617474656e646565730000000000000000000000000000815250906108fe576040517f08c379a00000000000000000000000000000000000000000000000000000000081526004018080602001828103825283818151815260200191508051906020019080838360005b838110156108c35780820151818401526020810190506108a8565b50505050905090810190601f1680156108f05780820380516001836020036101000a031916815260200191505b509250505060405180910390fd5b50600160089054906101000a900463ffffffff1663ffffffff1642106040518060400160405280600e81526020017f6576656e742d66696e6973686564000000000000000000000000000000000000815250906109f6576040517f08c379a00000000000000000000000000000000000000000000000000000000081526004018080602001828103825283818151815260200191508051906020019080838360005b838110156109bb5780820151818401526020810190506109a0565b50505050905090810190601f1680156109e85780820380516001836020036101000a031916815260200191505b509250505060405180910390fd5b506001600360003373ffffffffffffffffffffffffffffffffffffffff1673ffffffffffffffffffffffffffffffffffffffff16815260200190815260200160002060006101000a81548160ff021916908360ff16021790555060023390806001815401808255809150509060018203906000526020600020016000909192909190916101000a81548173ffffffffffffffffffffffffffffffffffffffff021916908373ffffffffffffffffffffffffffffffffffffffff16021790555050610acf600360ff1660055461177290919063ffffffff16565b600581905550565b60046020528060005260406000206000915090505481565b600160ff16600360003373ffffffffffffffffffffffffffffffffffffffff1673ffffffffffffffffffffffffffffffffffffffff16815260200190815260200160002060009054906101000a900460ff1660ff16146040518060400160405280600c81526020017f756e617574686f72697a6564000000000000000000000000000000000000000081525090610c21576040517f08c379a00000000000000000000000000000000000000000000000000000000081526004018080602001828103825283818151815260200191508051906020019080838360005b83811015610be6578082015181840152602081019050610bcb565b50505050905090810190601f168015610c135780820380516001836020036101000a031916815260200191505b509250505060405180910390fd5b5080518251146040518060400160405280601181526020017f646966666572656e742d6c656e6774687300000000000000000000000000000081525090610d03576040517f08c379a00000000000000000000000000000000000000000000000000000000081526004018080602001828103825283818151815260200191508051906020019080838360005b83811015610cc8578082015181840152602081019050610cad565b50505050905090810190601f168015610cf55780820380516001836020036101000a031916815260200191505b509250505060405180910390fd5b506002600360003373ffffffffffffffffffffffffffffffffffffffff1673ffffffffffffffffffffffffffffffffffffffff16815260200190815260200160002060006101000a81548160ff021916908360ff160217905550600080905060008090505b8351811015610f4257610d97838281518110610d8057fe5b60200260200101518361177290919063ffffffff16565b91503373ffffffffffffffffffffffffffffffffffffffff16848281518110610dbc57fe5b602002602001015173ffffffffffffffffffffffffffffffffffffffff161415610de557610f27565b600060ff1660036000868481518110610dfa57fe5b602002602001015173ffffffffffffffffffffffffffffffffffffffff1673ffffffffffffffffffffffffffffffffffffffff16815260200190815260200160002060009054906101000a900460ff1660ff161415610e5857610f27565b610ed0838281518110610e6757fe5b602002602001015160046000878581518110610e7f57fe5b602002602001015173ffffffffffffffffffffffffffffffffffffffff1673ffffffffffffffffffffffffffffffffffffffff1681526020019081526020016000205461177290919063ffffffff16565b60046000868481518110610ee057fe5b602002602001015173ffffffffffffffffffffffffffffffffffffffff1673ffffffffffffffffffffffffffffffffffffffff168152602001908152602001600020819055505b610f3b60018261177290919063ffffffff16565b9050610d68565b506005548111156040518060400160405280600e81526020017f746f6f2d6d616e792d636c61707300000000000000000000000000000000000081525090611025576040517f08c379a00000000000000000000000000000000000000000000000000000000081526004018080602001828103825283818151815260200191508051906020019080838360005b83811015610fea578082015181840152602081019050610fcf565b50505050905090810190601f1680156110175780820380516001836020036101000a031916815260200191505b509250505060405180910390fd5b5061103b8160065461177290919063ffffffff16565b600681905550505050565b606060028054806020026020016040519081016040528092919081815260200182805480156110ca57602002820191906000526020600020905b8160009054906101000a900473ffffffffffffffffffffffffffffffffffffffff1673ffffffffffffffffffffffffffffffffffffffff1681526020019060010190808311611080575b5050505050905090565b60065481565b60008054600181600116156101000203166002900480601f0160208091040260200160405190810160405280929190818152602001828054600181600116156101000203166002900480156111705780601f1061114557610100808354040283529160200191611170565b820191906000526020600020905b81548152906001019060200180831161115357829003601f168201915b505050505081565b600160009054906101000a900467ffffffffffffffff1681565b600160089054906101000a900463ffffffff1663ffffffff164210156040518060400160405280601281526020017f6576656e742d6e6f742d66696e697368656400000000000000000000000000008152509061128a576040517f08c379a00000000000000000000000000000000000000000000000000000000081526004018080602001828103825283818151815260200191508051906020019080838360005b8381101561124f578082015181840152602081019050611234565b50505050905090810190601f16801561127c5780820380516001836020036101000a031916815260200191505b509250505060405180910390fd5b506000600654116040518060400160405280600881526020017f6e6f2d636c6170730000000000000000000000000000000000000000000000008152509061136d576040517f08c379a00000000000000000000000000000000000000000000000000000000081526004018080602001828103825283818151815260200191508051906020019080838360005b83811015611332578082015181840152602081019050611317565b50505050905090810190601f16801561135f5780820380516001836020036101000a031916815260200191505b509250505060405180910390fd5b5060004790507f646281a1f6e9956b914b633483bb33fe8d21acc7c1061352910df7243113cc6b816040518082815260200191505060405180910390a160008090505b60028054905081101561175257600360ff1660036000600284815481106113d357fe5b9060005260206000200160009054906101000a900473ffffffffffffffffffffffffffffffffffffffff1673ffffffffffffffffffffffffffffffffffffffff1673ffffffffffffffffffffffffffffffffffffffff16815260200190815260200160002060009054906101000a900460ff1660ff16141561145457611737565b6000600460006002848154811061146757fe5b9060005260206000200160009054906101000a900473ffffffffffffffffffffffffffffffffffffffff1673ffffffffffffffffffffffffffffffffffffffff1673ffffffffffffffffffffffffffffffffffffffff1681526020019081526020016000205414156114d857611737565b60006115776006546115698560046000600288815481106114f557fe5b9060005260206000200160009054906101000a900473ffffffffffffffffffffffffffffffffffffffff1673ffffffffffffffffffffffffffffffffffffffff1673ffffffffffffffffffffffffffffffffffffffff168152602001908152602001600020546117fa90919063ffffffff16565b61188090919063ffffffff16565b905060038060006002858154811061158b57fe5b9060005260206000200160009054906101000a900473ffffffffffffffffffffffffffffffffffffffff1673ffffffffffffffffffffffffffffffffffffffff1673ffffffffffffffffffffffffffffffffffffffff16815260200190815260200160002060006101000a81548160ff021916908360ff16021790555060006002838154811061161757fe5b9060005260206000200160009054906101000a900473ffffffffffffffffffffffffffffffffffffffff1673ffffffffffffffffffffffffffffffffffffffff168260405180600001905060006040518083038185875af1925050503d806000811461169f576040519150601f19603f3d011682016040523d82523d6000602084013e6116a4565b606091505b50509050801561173457600283815481106116bb57fe5b9060005260206000200160009054906101000a900473ffffffffffffffffffffffffffffffffffffffff1673ffffffffffffffffffffffffffffffffffffffff167f69ca02dd4edd7bf0a4abb9ed3b7af3f14778db5d61921c7dc7cd545266326de2836040518082815260200191505060405180910390a25b50505b61174b60018261177290919063ffffffff16565b90506113b0565b5050565b60055481565b600160089054906101000a900463ffffffff1681565b6000808284019050838110156117f0576040517f08c379a000000000000000000000000000000000000000000000000000000000815260040180806020018281038252601b8152602001807f536166654d6174683a206164646974696f6e206f766572666c6f77000000000081525060200191505060405180910390fd5b8091505092915050565b60008083141561180d576000905061187a565b600082840290508284828161181e57fe5b0414611875576040517f08c379a00000000000000000000000000000000000000000000000000000000081526004018080602001828103825260218152602001806119916021913960400191505060405180910390fd5b809150505b92915050565b60006118c283836040518060400160405280601a81526020017f536166654d6174683a206469766973696f6e206279207a65726f0000000000008152506118ca565b905092915050565b60008083118290611976576040517f08c379a00000000000000000000000000000000000000000000000000000000081526004018080602001828103825283818151815260200191508051906020019080838360005b8381101561193b578082015181840152602081019050611920565b50505050905090810190601f1680156119685780820380516001836020036101000a031916815260200191505b509250505060405180910390fd5b50600083858161198257fe5b04905080915050939250505056fe536166654d6174683a206d756c7469706c69636174696f6e206f766572666c6f77a265627a7a7231582057e83147570d3a0e1a248d5116139db538837111732a2bba73b10088a0cdc28364736f6c63430005100032",
  "source": "pragma solidity 0.5.16;\n\nimport \"@openzeppelin/contracts/math/SafeMath.sol\";\n\ncontract Event {\n\n    using SafeMath for uint256;\n\n    string constant private version = \"2.0.0\";\n    uint8 constant public CLAPS_PER_ATTENDEE = 3;\n\n    uint8 constant private ATTENDEE_UNREGISTERED = 0;\n    uint8 constant private ATTENDEE_REGISTERED = 1;\n    uint8 constant private ATTENDEE_CLAPPED = 2;\n    uint8 constant private ATTENDEE_REWARDED = 3;\n\n    string constant private WRONG_FEE = \"wrong-fee\";\n    string constant private ALREADY_REGISTERED = \"already-registered\";\n    string constant private UNAUTHORIZED = \"unauthorized\";\n    string constant private DIFFERENT_LENGTHS = \"different-lengths\";\n    string constant private TOO_MANY_ATTENDEES = \"too-many-attendees\";\n    string constant private TOO_MANY_CLAPS = \"too-many-claps\";\n    string constant private NO_CLAPS = \"no-claps\";\n    string constant private EVENT_FINISHED = \"event-finished\";\n    string constant private EVENT_NOT_FINISHED = \"event-not-finished\";\n\n    string public id;\n    uint64 public fee;\n    uint32 public end;\n    address payable[] public attendees;\n    mapping(address => uint8) public states;\n    mapping(address => uint256) public claps;\n    uint256 public allowedClaps;\n    uint256 public totalClaps;\n\n    event Distribution (uint256 totalReward);\n    event Transfer (address indexed attendee, uint256 reward);\n\n    constructor (string memory _id, uint64 _fee, uint32 _end) public {\n        require(block.timestamp < _end, EVENT_FINISHED);\n        id = _id;\n        fee = _fee;\n        end = _end;\n    }\n\n    function getAttendees () external view returns (address payable[] memory) {\n        return attendees;\n    }\n\n    function register () public payable {\n        require(msg.value == fee, WRONG_FEE);\n        require(\n            states[msg.sender] == ATTENDEE_UNREGISTERED,\n            ALREADY_REGISTERED\n        );\n        require(attendees.length < 100, TOO_MANY_ATTENDEES);\n        require(block.timestamp < end, EVENT_FINISHED);\n        states[msg.sender] = ATTENDEE_REGISTERED;\n        attendees.push(msg.sender);\n        allowedClaps = allowedClaps.add(CLAPS_PER_ATTENDEE);\n    }\n\n    function clap (address[] memory _attendees, uint256[] memory _claps)\n        public {\n        require(states[msg.sender] == ATTENDEE_REGISTERED, UNAUTHORIZED);\n        require(_attendees.length == _claps.length, DIFFERENT_LENGTHS);\n        states[msg.sender] = ATTENDEE_CLAPPED;\n        uint256 givenClaps = 0;\n        for (uint256 i = 0; i < _attendees.length; i = i.add(1)) {\n            givenClaps = givenClaps.add(_claps[i]);\n            if (_attendees[i] == msg.sender) continue;\n            if (states[_attendees[i]] == ATTENDEE_UNREGISTERED) continue;\n            claps[_attendees[i]] = claps[_attendees[i]].add(_claps[i]);\n        }\n        require(givenClaps <= allowedClaps, TOO_MANY_CLAPS);\n        totalClaps = totalClaps.add(givenClaps);\n    }\n\n    function distribute () external {\n        require(block.timestamp >= end, EVENT_NOT_FINISHED);\n        require(totalClaps > 0, NO_CLAPS);\n        uint256 totalReward = address(this).balance;\n        emit Distribution(totalReward);\n        for (uint256 i = 0; i < attendees.length; i = i.add(1)) {\n            if (states[attendees[i]] == ATTENDEE_REWARDED) continue;\n            if (claps[attendees[i]] == 0) continue;\n            uint256 reward = claps[attendees[i]]\n                .mul(totalReward)\n                .div(totalClaps);\n            states[attendees[i]] = ATTENDEE_REWARDED;\n            (bool success, ) = attendees[i].call.value(reward)(\"\");\n            if (success) {\n                emit Transfer(attendees[i], reward);\n            }\n        }\n    }\n}\n",
  "sourcePath": "/home/e18r/code/coinosis/contracts/Event.sol",
  "compiler": {
    "name": "solc",
    "version": "0.5.16+commit.9c3226ce.Emscripten.clang"
  },
  "schemaVersion": "3.2.0",
  "updatedAt": "2020-06-03T23:48:13.008Z",
  "devdoc": {
    "methods": {}
  },
  "userdoc": {
    "methods": {}
  }
}