{
  "contractName": "Event",
  "abi": [
    {
      "inputs": [
        {
          "internalType": "uint64",
          "name": "_fee",
          "type": "uint64"
        },
        {
          "internalType": "uint32",
          "name": "_end",
          "type": "uint32"
        }
      ],
      "payable": false,
      "stateMutability": "nonpayable",
      "type": "constructor"
    },
    {
      "anonymous": false,
      "inputs": [
        {
          "indexed": false,
          "internalType": "uint256",
          "name": "totalReward",
          "type": "uint256"
        }
      ],
      "name": "Distribution",
      "type": "event"
    },
    {
      "anonymous": false,
      "inputs": [
        {
          "indexed": true,
          "internalType": "address",
          "name": "attendee",
          "type": "address"
        },
        {
          "indexed": false,
          "internalType": "uint256",
          "name": "reward",
          "type": "uint256"
        }
      ],
      "name": "Transfer",
      "type": "event"
    },
    {
      "constant": true,
      "inputs": [
        {
          "internalType": "uint256",
          "name": "",
          "type": "uint256"
        }
      ],
      "name": "attendees",
      "outputs": [
        {
          "internalType": "address payable",
          "name": "",
          "type": "address"
        }
      ],
      "payable": false,
      "stateMutability": "view",
      "type": "function"
    },
    {
      "constant": true,
      "inputs": [
        {
          "internalType": "address",
          "name": "",
          "type": "address"
        }
      ],
      "name": "claps",
      "outputs": [
        {
          "internalType": "uint256",
          "name": "",
          "type": "uint256"
        }
      ],
      "payable": false,
      "stateMutability": "view",
      "type": "function"
    },
    {
      "constant": true,
      "inputs": [],
      "name": "end",
      "outputs": [
        {
          "internalType": "uint32",
          "name": "",
          "type": "uint32"
        }
      ],
      "payable": false,
      "stateMutability": "view",
      "type": "function"
    },
    {
      "constant": true,
      "inputs": [],
      "name": "fee",
      "outputs": [
        {
          "internalType": "uint64",
          "name": "",
          "type": "uint64"
        }
      ],
      "payable": false,
      "stateMutability": "view",
      "type": "function"
    },
    {
      "constant": true,
      "inputs": [
        {
          "internalType": "address",
          "name": "",
          "type": "address"
        }
      ],
      "name": "states",
      "outputs": [
        {
          "internalType": "uint8",
          "name": "",
          "type": "uint8"
        }
      ],
      "payable": false,
      "stateMutability": "view",
      "type": "function"
    },
    {
      "constant": true,
      "inputs": [],
      "name": "totalClaps",
      "outputs": [
        {
          "internalType": "uint256",
          "name": "",
          "type": "uint256"
        }
      ],
      "payable": false,
      "stateMutability": "view",
      "type": "function"
    },
    {
      "constant": true,
      "inputs": [],
      "name": "version",
      "outputs": [
        {
          "internalType": "bytes5",
          "name": "",
          "type": "bytes5"
        }
      ],
      "payable": false,
      "stateMutability": "view",
      "type": "function"
    },
    {
      "constant": true,
      "inputs": [],
      "name": "getAttendees",
      "outputs": [
        {
          "internalType": "address payable[]",
          "name": "",
          "type": "address[]"
        }
      ],
      "payable": false,
      "stateMutability": "view",
      "type": "function"
    },
    {
      "constant": false,
      "inputs": [],
      "name": "register",
      "outputs": [],
      "payable": true,
      "stateMutability": "payable",
      "type": "function"
    },
    {
      "constant": false,
      "inputs": [
        {
          "internalType": "address[]",
          "name": "_attendees",
          "type": "address[]"
        },
        {
          "internalType": "uint256[]",
          "name": "_claps",
          "type": "uint256[]"
        }
      ],
      "name": "clap",
      "outputs": [],
      "payable": false,
      "stateMutability": "nonpayable",
      "type": "function"
    },
    {
      "constant": false,
      "inputs": [],
      "name": "distribute",
      "outputs": [],
      "payable": false,
      "stateMutability": "nonpayable",
      "type": "function"
    }
  ],
  "bytecode": "0x608060405234801561001057600080fd5b50604051610c90380380610c908339818101604052604081101561003357600080fd5b50805160209091015163ffffffff8116421061004e57600080fd5b6000805463ffffffff909216680100000000000000000263ffffffff60401b196001600160401b039094166001600160401b03199093169290921792909216179055610bf18061009f6000396000f3fe60806040526004361061008c5760003560e01c806302a22337146100915780630e0c353d146100da5780631aa3a008146101205780631c7ab8e51461012a57806335dfb1ef1461016f5780634165a1bb1461029f57806354fd4d50146103045780637fe338b514610336578063ddca3f431461034b578063e4fc6b6d1461037c578063efbe1c1c14610391575b600080fd5b34801561009d57600080fd5b506100c4600480360360208110156100b457600080fd5b50356001600160a01b03166103bf565b6040805160ff9092168252519081900360200190f35b3480156100e657600080fd5b50610104600480360360208110156100fd57600080fd5b50356103d4565b604080516001600160a01b039092168252519081900360200190f35b6101286103fb565b005b34801561013657600080fd5b5061015d6004803603602081101561014d57600080fd5b50356001600160a01b0316610407565b60408051918252519081900360200190f35b34801561017b57600080fd5b506101286004803603604081101561019257600080fd5b810190602081018135600160201b8111156101ac57600080fd5b8201836020820111156101be57600080fd5b803590602001918460208302840111600160201b831117156101df57600080fd5b9190808060200260200160405190810160405280939291908181526020018383602002808284376000920191909152509295949360208101935035915050600160201b81111561022e57600080fd5b82018360208201111561024057600080fd5b803590602001918460208302840111600160201b8311171561026157600080fd5b919080806020026020016040519081016040528093929190818152602001838360200280828437600092019190915250929550610419945050505050565b3480156102ab57600080fd5b506102b4610428565b60408051602080825283518183015283519192839290830191858101910280838360005b838110156102f05781810151838201526020016102d8565b505050509050019250505060405180910390f35b34801561031057600080fd5b5061031961048a565b604080516001600160d81b03199092168252519081900360200190f35b34801561034257600080fd5b5061015d610496565b34801561035757600080fd5b5061036061049c565b604080516001600160401b039092168252519081900360200190f35b34801561038857600080fd5b506101286104ab565b34801561039d57600080fd5b506103a661072b565b6040805163ffffffff9092168252519081900360200190f35b60026020526000908152604090205460ff1681565b600181815481106103e157fe5b6000918252602090912001546001600160a01b0316905081565b610405333461073e565b565b60036020526000908152604090205481565b610424338383610809565b5050565b6060600180548060200260200160405190810160405280929190818152602001828054801561048057602002820191906000526020600020905b81546001600160a01b03168152600190910190602001808311610462575b5050505050905090565b640322e302e360dc1b81565b60045481565b6000546001600160401b031681565b600054600160401b900463ffffffff164210156104c757600080fd5b6000600454116104d657600080fd5b604080514780825291517f646281a1f6e9956b914b633483bb33fe8d21acc7c1061352910df7243113cc6b9181900360200190a160005b60015481101561042457600360ff16600260006001848154811061052d57fe5b60009182526020808320909101546001600160a01b0316835282019290925260400190205460ff16141561056057610713565b600360006001838154811061057157fe5b60009182526020808320909101546001600160a01b0316835282019290925260400190205461059f57610713565b60006105f96004546105ed8560036000600188815481106105bc57fe5b60009182526020808320909101546001600160a01b031683528201929092526040019020549063ffffffff610a0016565b9063ffffffff610a6216565b90506003600260006001858154811061060e57fe5b6000918252602080832091909101546001600160a01b031683528201929092526040018120805460ff191660ff9390931692909217909155600180548490811061065457fe5b60009182526020822001546040516001600160a01b039091169184919081818185875af1925050503d80600081146106a8576040519150601f19603f3d011682016040523d82523d6000602084013e6106ad565b606091505b50509050801561071057600183815481106106c457fe5b600091825260209182902001546040805185815290516001600160a01b03909216927f69ca02dd4edd7bf0a4abb9ed3b7af3f14778db5d61921c7dc7cd545266326de292918290030190a25b50505b61072481600163ffffffff610aa116565b905061050d565b600054600160401b900463ffffffff1681565b6000546001600160401b0316811461075557600080fd5b6001600160a01b03821660009081526002602052604090205460ff161561077b57600080fd5b60015460641161078a57600080fd5b600054600160401b900463ffffffff1642106107a557600080fd5b506001600160a01b03166000818152600260205260408120805460ff191660019081179091558054808201825591527fb10e2d527612073b26eecdfd717e6a320cf44b4afac2b0732d9fcbe2b7fa0cf60180546001600160a01b0319169091179055565b6001600160a01b03831660009081526002602052604090205460ff1660011461083157600080fd5b805182511461083f57600080fd5b6001600160a01b03831660009081526002602081905260408220805460ff19169091179055805b83518110156109c35761089583828151811061087e57fe5b602002602001015183610aa190919063ffffffff16565b9150846001600160a01b03168482815181106108ad57fe5b60200260200101516001600160a01b031614156108c9576109ab565b600060ff16600260008684815181106108de57fe5b6020908102919091018101516001600160a01b031682528101919091526040016000205460ff161415610910576109ab565b61096e83828151811061091f57fe5b60200260200101516003600087858151811061093757fe5b60200260200101516001600160a01b03166001600160a01b0316815260200190815260200160002054610aa190919063ffffffff16565b6003600086848151811061097e57fe5b60200260200101516001600160a01b03166001600160a01b03168152602001908152602001600020819055505b6109bc81600163ffffffff610aa116565b9050610866565b506001546109d890600363ffffffff610a0016565b8111156109e457600080fd5b6004546109f7908263ffffffff610aa116565b60045550505050565b600082610a0f57506000610a5c565b82820282848281610a1c57fe5b0414610a595760405162461bcd60e51b8152600401808060200182810382526021815260200180610b9c6021913960400191505060405180910390fd5b90505b92915050565b6000610a5983836040518060400160405280601a815260200179536166654d6174683a206469766973696f6e206279207a65726f60301b815250610af9565b600082820183811015610a59576040805162461bcd60e51b815260206004820152601b60248201527a536166654d6174683a206164646974696f6e206f766572666c6f7760281b604482015290519081900360640190fd5b60008183610b855760405162461bcd60e51b81526004018080602001828103825283818151815260200191508051906020019080838360005b83811015610b4a578181015183820152602001610b32565b50505050905090810190601f168015610b775780820380516001836020036101000a031916815260200191505b509250505060405180910390fd5b506000838581610b9157fe5b049594505050505056fe536166654d6174683a206d756c7469706c69636174696f6e206f766572666c6f77a265627a7a7231582054349d713ab7c32f3d5bb907d3f4c87cade5df2f63ae771a363e328919248e5c64736f6c63430005100032",
  "source": "pragma solidity 0.5.16;\n\nimport \"@openzeppelin/contracts/math/SafeMath.sol\";\n\ncontract Event {\n\n    using SafeMath for uint256;\n\n    bytes5 constant public version = \"2.0.0\";\n    uint8 constant private CLAPS_PER_ATTENDEE = 3;\n    uint8 constant private MAX_ATTENDEES = 100;\n\n    uint8 constant private ATTENDEE_UNREGISTERED = 0;\n    uint8 constant private ATTENDEE_REGISTERED = 1;\n    uint8 constant private ATTENDEE_CLAPPED = 2;\n    uint8 constant private ATTENDEE_REWARDED = 3;\n\n    uint64 public fee;\n    uint32 public end;\n    address payable[] public attendees;\n    mapping(address => uint8) public states;\n    mapping(address => uint256) public claps;\n    uint256 public totalClaps;\n\n    event Distribution (uint256 totalReward);\n    event Transfer (address indexed attendee, uint256 reward);\n\n    constructor (uint64 _fee, uint32 _end) public {\n        require(block.timestamp < _end);\n        fee = _fee;\n        end = _end;\n    }\n\n    function getAttendees () external view returns (address payable[] memory) {\n        return attendees;\n    }\n\n    function register (address payable _attendee, uint256 _fee) internal {\n        require(_fee == fee);\n        require(states[_attendee] == ATTENDEE_UNREGISTERED);\n        require(attendees.length < MAX_ATTENDEES);\n        require(block.timestamp < end);\n        states[_attendee] = ATTENDEE_REGISTERED;\n        attendees.push(_attendee);\n    }\n\n    function register () public payable {\n        register(msg.sender, msg.value);\n    }\n\n    function clap (\n        address _clapper,\n        address[] memory _attendees,\n        uint256[] memory _claps\n    ) internal {\n        require(states[_clapper] == ATTENDEE_REGISTERED);\n        require(_attendees.length == _claps.length);\n        states[_clapper] = ATTENDEE_CLAPPED;\n        uint256 givenClaps;\n        for (uint256 i; i < _attendees.length; i = i.add(1)) {\n            givenClaps = givenClaps.add(_claps[i]);\n            if (_attendees[i] == _clapper) continue;\n            if (states[_attendees[i]] == ATTENDEE_UNREGISTERED) continue;\n            claps[_attendees[i]] = claps[_attendees[i]].add(_claps[i]);\n        }\n        require(givenClaps <= attendees.length.mul(CLAPS_PER_ATTENDEE));\n        totalClaps = totalClaps.add(givenClaps);\n    }\n\n    function clap (address[] memory _attendees, uint256[] memory _claps)\n        public {\n        clap(msg.sender, _attendees, _claps);\n    }\n\n    function distribute () external {\n        require(block.timestamp >= end);\n        require(totalClaps > 0);\n        uint256 totalReward = address(this).balance;\n        emit Distribution(totalReward);\n        for (uint256 i; i < attendees.length; i = i.add(1)) {\n            if (states[attendees[i]] == ATTENDEE_REWARDED) continue;\n            if (claps[attendees[i]] == 0) continue;\n            uint256 reward = claps[attendees[i]]\n                .mul(totalReward)\n                .div(totalClaps);\n            states[attendees[i]] = ATTENDEE_REWARDED;\n            (bool success, ) = attendees[i].call.value(reward)(\"\");\n            if (success) {\n                emit Transfer(attendees[i], reward);\n            }\n        }\n    }\n}\n",
  "sourcePath": "/home/e18r/code/coinosis/contracts/Event.sol",
  "compiler": {
    "name": "solc",
    "version": "0.5.16+commit.9c3226ce.Emscripten.clang"
  },
  "schemaVersion": "3.2.0",
  "updatedAt": "2020-06-10T20:09:19.220Z",
  "devdoc": {
    "methods": {}
  },
  "userdoc": {
    "methods": {}
  }
}