{
  "contractName": "Event",
  "abi": [
    {
      "inputs": [
        {
          "internalType": "uint64",
          "name": "_fee",
          "type": "uint64"
        },
        {
          "internalType": "uint32",
          "name": "_end",
          "type": "uint32"
        }
      ],
      "payable": false,
      "stateMutability": "nonpayable",
      "type": "constructor"
    },
    {
      "anonymous": false,
      "inputs": [
        {
          "indexed": false,
          "internalType": "uint256",
          "name": "totalReward",
          "type": "uint256"
        }
      ],
      "name": "Distribution",
      "type": "event"
    },
    {
      "anonymous": false,
      "inputs": [
        {
          "indexed": true,
          "internalType": "address",
          "name": "attendee",
          "type": "address"
        },
        {
          "indexed": false,
          "internalType": "uint256",
          "name": "reward",
          "type": "uint256"
        }
      ],
      "name": "Transfer",
      "type": "event"
    },
    {
      "constant": true,
      "inputs": [
        {
          "internalType": "uint256",
          "name": "",
          "type": "uint256"
        }
      ],
      "name": "attendees",
      "outputs": [
        {
          "internalType": "address payable",
          "name": "",
          "type": "address"
        }
      ],
      "payable": false,
      "stateMutability": "view",
      "type": "function"
    },
    {
      "constant": true,
      "inputs": [
        {
          "internalType": "address",
          "name": "",
          "type": "address"
        }
      ],
      "name": "claps",
      "outputs": [
        {
          "internalType": "uint256",
          "name": "",
          "type": "uint256"
        }
      ],
      "payable": false,
      "stateMutability": "view",
      "type": "function"
    },
    {
      "constant": true,
      "inputs": [],
      "name": "end",
      "outputs": [
        {
          "internalType": "uint32",
          "name": "",
          "type": "uint32"
        }
      ],
      "payable": false,
      "stateMutability": "view",
      "type": "function"
    },
    {
      "constant": true,
      "inputs": [],
      "name": "fee",
      "outputs": [
        {
          "internalType": "uint64",
          "name": "",
          "type": "uint64"
        }
      ],
      "payable": false,
      "stateMutability": "view",
      "type": "function"
    },
    {
      "constant": true,
      "inputs": [
        {
          "internalType": "address",
          "name": "",
          "type": "address"
        }
      ],
      "name": "states",
      "outputs": [
        {
          "internalType": "uint8",
          "name": "",
          "type": "uint8"
        }
      ],
      "payable": false,
      "stateMutability": "view",
      "type": "function"
    },
    {
      "constant": true,
      "inputs": [],
      "name": "totalClaps",
      "outputs": [
        {
          "internalType": "uint256",
          "name": "",
          "type": "uint256"
        }
      ],
      "payable": false,
      "stateMutability": "view",
      "type": "function"
    },
    {
      "constant": true,
      "inputs": [],
      "name": "version",
      "outputs": [
        {
          "internalType": "bytes5",
          "name": "",
          "type": "bytes5"
        }
      ],
      "payable": false,
      "stateMutability": "view",
      "type": "function"
    },
    {
      "constant": true,
      "inputs": [],
      "name": "getAttendees",
      "outputs": [
        {
          "internalType": "address payable[]",
          "name": "",
          "type": "address[]"
        }
      ],
      "payable": false,
      "stateMutability": "view",
      "type": "function"
    },
    {
      "constant": false,
      "inputs": [],
      "name": "register",
      "outputs": [],
      "payable": true,
      "stateMutability": "payable",
      "type": "function"
    },
    {
      "constant": false,
      "inputs": [
        {
          "internalType": "address[]",
          "name": "_attendees",
          "type": "address[]"
        },
        {
          "internalType": "uint256[]",
          "name": "_claps",
          "type": "uint256[]"
        }
      ],
      "name": "clap",
      "outputs": [],
      "payable": false,
      "stateMutability": "nonpayable",
      "type": "function"
    },
    {
      "constant": false,
      "inputs": [],
      "name": "distribute",
      "outputs": [],
      "payable": false,
      "stateMutability": "nonpayable",
      "type": "function"
    }
  ],
  "bytecode": "0x608060405234801561001057600080fd5b50604051611a2a380380611a2a8339818101604052604081101561003357600080fd5b8101908080519060200190929190805190602001909291905050508063ffffffff1642106040518060400160405280600e81526020017f6576656e742d66696e697368656400000000000000000000000000000000000081525090610133576040517f08c379a00000000000000000000000000000000000000000000000000000000081526004018080602001828103825283818151815260200191508051906020019080838360005b838110156100f85780820151818401526020810190506100dd565b50505050905090810190601f1680156101255780820380516001836020036101000a031916815260200191505b509250505060405180910390fd5b50816000806101000a81548167ffffffffffffffff021916908367ffffffffffffffff16021790555080600060086101000a81548163ffffffff021916908363ffffffff160217905550505061189c8061018e6000396000f3fe60806040526004361061009c5760003560e01c80634165a1bb116100645780634165a1bb1461034f57806354fd4d50146103bb5780637fe338b514610422578063ddca3f431461044d578063e4fc6b6d1461048c578063efbe1c1c146104a35761009c565b806302a22337146100a15780630e0c353d1461010c5780631aa3a008146101875780631c7ab8e51461019157806335dfb1ef146101f6575b600080fd5b3480156100ad57600080fd5b506100f0600480360360208110156100c457600080fd5b81019080803573ffffffffffffffffffffffffffffffffffffffff1690602001909291905050506104da565b604051808260ff1660ff16815260200191505060405180910390f35b34801561011857600080fd5b506101456004803603602081101561012f57600080fd5b81019080803590602001909291905050506104fa565b604051808273ffffffffffffffffffffffffffffffffffffffff1673ffffffffffffffffffffffffffffffffffffffff16815260200191505060405180910390f35b61018f610536565b005b34801561019d57600080fd5b506101e0600480360360208110156101b457600080fd5b81019080803573ffffffffffffffffffffffffffffffffffffffff169060200190929190505050610a0a565b6040518082815260200191505060405180910390f35b34801561020257600080fd5b5061034d6004803603604081101561021957600080fd5b810190808035906020019064010000000081111561023657600080fd5b82018360208201111561024857600080fd5b8035906020019184602083028401116401000000008311171561026a57600080fd5b919080806020026020016040519081016040528093929190818152602001838360200280828437600081840152601f19601f820116905080830192505050505050509192919290803590602001906401000000008111156102ca57600080fd5b8201836020820111156102dc57600080fd5b803590602001918460208302840111640100000000831117156102fe57600080fd5b919080806020026020016040519081016040528093929190818152602001838360200280828437600081840152601f19601f820116905080830192505050505050509192919290505050610a22565b005b34801561035b57600080fd5b50610364610f7f565b6040518080602001828103825283818151815260200191508051906020019060200280838360005b838110156103a757808201518184015260208101905061038c565b505050509050019250505060405180910390f35b3480156103c757600080fd5b506103d061100d565b60405180827affffffffffffffffffffffffffffffffffffffffffffffffffffff19167affffffffffffffffffffffffffffffffffffffffffffffffffffff1916815260200191505060405180910390f35b34801561042e57600080fd5b50610437611031565b6040518082815260200191505060405180910390f35b34801561045957600080fd5b50610462611037565b604051808267ffffffffffffffff1667ffffffffffffffff16815260200191505060405180910390f35b34801561049857600080fd5b506104a1611050565b005b3480156104af57600080fd5b506104b8611612565b604051808263ffffffff1663ffffffff16815260200191505060405180910390f35b60026020528060005260406000206000915054906101000a900460ff1681565b6001818154811061050757fe5b906000526020600020016000915054906101000a900473ffffffffffffffffffffffffffffffffffffffff1681565b6000809054906101000a900467ffffffffffffffff1667ffffffffffffffff1634146040518060400160405280600981526020017f77726f6e672d666565000000000000000000000000000000000000000000000081525090610634576040517f08c379a00000000000000000000000000000000000000000000000000000000081526004018080602001828103825283818151815260200191508051906020019080838360005b838110156105f95780820151818401526020810190506105de565b50505050905090810190601f1680156106265780820380516001836020036101000a031916815260200191505b509250505060405180910390fd5b50600060ff16600260003373ffffffffffffffffffffffffffffffffffffffff1673ffffffffffffffffffffffffffffffffffffffff16815260200190815260200160002060009054906101000a900460ff1660ff16146040518060400160405280601281526020017f616c72656164792d72656769737465726564000000000000000000000000000081525090610767576040517f08c379a00000000000000000000000000000000000000000000000000000000081526004018080602001828103825283818151815260200191508051906020019080838360005b8381101561072c578082015181840152602081019050610711565b50505050905090810190601f1680156107595780820380516001836020036101000a031916815260200191505b509250505060405180910390fd5b50606460ff16600180549050106040518060400160405280601281526020017f746f6f2d6d616e792d617474656e64656573000000000000000000000000000081525090610850576040517f08c379a00000000000000000000000000000000000000000000000000000000081526004018080602001828103825283818151815260200191508051906020019080838360005b838110156108155780820151818401526020810190506107fa565b50505050905090810190601f1680156108425780820380516001836020036101000a031916815260200191505b509250505060405180910390fd5b50600060089054906101000a900463ffffffff1663ffffffff1642106040518060400160405280600e81526020017f6576656e742d66696e697368656400000000000000000000000000000000000081525090610948576040517f08c379a00000000000000000000000000000000000000000000000000000000081526004018080602001828103825283818151815260200191508051906020019080838360005b8381101561090d5780820151818401526020810190506108f2565b50505050905090810190601f16801561093a5780820380516001836020036101000a031916815260200191505b509250505060405180910390fd5b506001600260003373ffffffffffffffffffffffffffffffffffffffff1673ffffffffffffffffffffffffffffffffffffffff16815260200190815260200160002060006101000a81548160ff021916908360ff16021790555060013390806001815401808255809150509060018203906000526020600020016000909192909190916101000a81548173ffffffffffffffffffffffffffffffffffffffff021916908373ffffffffffffffffffffffffffffffffffffffff16021790555050565b60036020528060005260406000206000915090505481565b600160ff16600260003373ffffffffffffffffffffffffffffffffffffffff1673ffffffffffffffffffffffffffffffffffffffff16815260200190815260200160002060009054906101000a900460ff1660ff16146040518060400160405280600c81526020017f756e617574686f72697a6564000000000000000000000000000000000000000081525090610b54576040517f08c379a00000000000000000000000000000000000000000000000000000000081526004018080602001828103825283818151815260200191508051906020019080838360005b83811015610b19578082015181840152602081019050610afe565b50505050905090810190601f168015610b465780820380516001836020036101000a031916815260200191505b509250505060405180910390fd5b5080518251146040518060400160405280601181526020017f646966666572656e742d6c656e6774687300000000000000000000000000000081525090610c36576040517f08c379a00000000000000000000000000000000000000000000000000000000081526004018080602001828103825283818151815260200191508051906020019080838360005b83811015610bfb578082015181840152602081019050610be0565b50505050905090810190601f168015610c285780820380516001836020036101000a031916815260200191505b509250505060405180910390fd5b5060028060003373ffffffffffffffffffffffffffffffffffffffff1673ffffffffffffffffffffffffffffffffffffffff16815260200190815260200160002060006101000a81548160ff021916908360ff1602179055506000805b83518160ff161015610e7257610cc8838260ff1681518110610cb157fe5b60200260200101518361162890919063ffffffff16565b91503373ffffffffffffffffffffffffffffffffffffffff16848260ff1681518110610cf057fe5b602002602001015173ffffffffffffffffffffffffffffffffffffffff161415610d1957610e67565b600060ff1660026000868460ff1681518110610d3157fe5b602002602001015173ffffffffffffffffffffffffffffffffffffffff1673ffffffffffffffffffffffffffffffffffffffff16815260200190815260200160002060009054906101000a900460ff1660ff161415610d8f57610e67565b610e0d838260ff1681518110610da157fe5b602002602001015160036000878560ff1681518110610dbc57fe5b602002602001015173ffffffffffffffffffffffffffffffffffffffff1673ffffffffffffffffffffffffffffffffffffffff1681526020019081526020016000205461162890919063ffffffff16565b60036000868460ff1681518110610e2057fe5b602002602001015173ffffffffffffffffffffffffffffffffffffffff1673ffffffffffffffffffffffffffffffffffffffff168152602001908152602001600020819055505b600181019050610c93565b50600360ff16600180549050028111156040518060400160405280600e81526020017f746f6f2d6d616e792d636c61707300000000000000000000000000000000000081525090610f5e576040517f08c379a00000000000000000000000000000000000000000000000000000000081526004018080602001828103825283818151815260200191508051906020019080838360005b83811015610f23578082015181840152602081019050610f08565b50505050905090810190601f168015610f505780820380516001836020036101000a031916815260200191505b509250505060405180910390fd5b50610f748160045461162890919063ffffffff16565b600481905550505050565b6060600180548060200260200160405190810160405280929190818152602001828054801561100357602002820191906000526020600020905b8160009054906101000a900473ffffffffffffffffffffffffffffffffffffffff1673ffffffffffffffffffffffffffffffffffffffff1681526020019060010190808311610fb9575b5050505050905090565b7f322e302e3000000000000000000000000000000000000000000000000000000081565b60045481565b6000809054906101000a900467ffffffffffffffff1681565b600060089054906101000a900463ffffffff1663ffffffff164210156040518060400160405280601281526020017f6576656e742d6e6f742d66696e6973686564000000000000000000000000000081525090611148576040517f08c379a00000000000000000000000000000000000000000000000000000000081526004018080602001828103825283818151815260200191508051906020019080838360005b8381101561110d5780820151818401526020810190506110f2565b50505050905090810190601f16801561113a5780820380516001836020036101000a031916815260200191505b509250505060405180910390fd5b506000600454116040518060400160405280600881526020017f6e6f2d636c6170730000000000000000000000000000000000000000000000008152509061122b576040517f08c379a00000000000000000000000000000000000000000000000000000000081526004018080602001828103825283818151815260200191508051906020019080838360005b838110156111f05780820151818401526020810190506111d5565b50505050905090810190601f16801561121d5780820380516001836020036101000a031916815260200191505b509250505060405180910390fd5b5060004790507f646281a1f6e9956b914b633483bb33fe8d21acc7c1061352910df7243113cc6b816040518082815260200191505060405180910390a160005b60018054905081101561160e57600360ff16600260006001848154811061128e57fe5b9060005260206000200160009054906101000a900473ffffffffffffffffffffffffffffffffffffffff1673ffffffffffffffffffffffffffffffffffffffff1673ffffffffffffffffffffffffffffffffffffffff16815260200190815260200160002060009054906101000a900460ff1660ff16141561130f576115f3565b6000600360006001848154811061132257fe5b9060005260206000200160009054906101000a900473ffffffffffffffffffffffffffffffffffffffff1673ffffffffffffffffffffffffffffffffffffffff1673ffffffffffffffffffffffffffffffffffffffff168152602001908152602001600020541415611393576115f3565b60006114326004546114248560036000600188815481106113b057fe5b9060005260206000200160009054906101000a900473ffffffffffffffffffffffffffffffffffffffff1673ffffffffffffffffffffffffffffffffffffffff1673ffffffffffffffffffffffffffffffffffffffff168152602001908152602001600020546116b090919063ffffffff16565b61173690919063ffffffff16565b90506003600260006001858154811061144757fe5b9060005260206000200160009054906101000a900473ffffffffffffffffffffffffffffffffffffffff1673ffffffffffffffffffffffffffffffffffffffff1673ffffffffffffffffffffffffffffffffffffffff16815260200190815260200160002060006101000a81548160ff021916908360ff1602179055506000600183815481106114d357fe5b9060005260206000200160009054906101000a900473ffffffffffffffffffffffffffffffffffffffff1673ffffffffffffffffffffffffffffffffffffffff168260405180600001905060006040518083038185875af1925050503d806000811461155b576040519150601f19603f3d011682016040523d82523d6000602084013e611560565b606091505b5050905080156115f0576001838154811061157757fe5b9060005260206000200160009054906101000a900473ffffffffffffffffffffffffffffffffffffffff1673ffffffffffffffffffffffffffffffffffffffff167f69ca02dd4edd7bf0a4abb9ed3b7af3f14778db5d61921c7dc7cd545266326de2836040518082815260200191505060405180910390a25b50505b61160760018261162890919063ffffffff16565b905061126b565b5050565b600060089054906101000a900463ffffffff1681565b6000808284019050838110156116a6576040517f08c379a000000000000000000000000000000000000000000000000000000000815260040180806020018281038252601b8152602001807f536166654d6174683a206164646974696f6e206f766572666c6f77000000000081525060200191505060405180910390fd5b8091505092915050565b6000808314156116c35760009050611730565b60008284029050828482816116d457fe5b041461172b576040517f08c379a00000000000000000000000000000000000000000000000000000000081526004018080602001828103825260218152602001806118476021913960400191505060405180910390fd5b809150505b92915050565b600061177883836040518060400160405280601a81526020017f536166654d6174683a206469766973696f6e206279207a65726f000000000000815250611780565b905092915050565b6000808311829061182c576040517f08c379a00000000000000000000000000000000000000000000000000000000081526004018080602001828103825283818151815260200191508051906020019080838360005b838110156117f15780820151818401526020810190506117d6565b50505050905090810190601f16801561181e5780820380516001836020036101000a031916815260200191505b509250505060405180910390fd5b50600083858161183857fe5b04905080915050939250505056fe536166654d6174683a206d756c7469706c69636174696f6e206f766572666c6f77a265627a7a7231582084f74d8d5c99d333388dcca065130945e206d14d434d90ccfa940646d5db61f664736f6c63430005100032",
  "source": "pragma solidity 0.5.16;\n\nimport \"@openzeppelin/contracts/math/SafeMath.sol\";\n\ncontract Event {\n\n    using SafeMath for uint256;\n\n    bytes5 constant public version = \"2.0.0\";\n    uint8 constant private CLAPS_PER_ATTENDEE = 3;\n    uint8 constant private MAX_ATTENDEES = 100;\n\n    uint8 constant private ATTENDEE_UNREGISTERED = 0;\n    uint8 constant private ATTENDEE_REGISTERED = 1;\n    uint8 constant private ATTENDEE_CLAPPED = 2;\n    uint8 constant private ATTENDEE_REWARDED = 3;\n\n    string constant private WRONG_FEE = \"wrong-fee\";\n    string constant private ALREADY_REGISTERED = \"already-registered\";\n    string constant private UNAUTHORIZED = \"unauthorized\";\n    string constant private DIFFERENT_LENGTHS = \"different-lengths\";\n    string constant private TOO_MANY_ATTENDEES = \"too-many-attendees\";\n    string constant private TOO_MANY_CLAPS = \"too-many-claps\";\n    string constant private NO_CLAPS = \"no-claps\";\n    string constant private EVENT_FINISHED = \"event-finished\";\n    string constant private EVENT_NOT_FINISHED = \"event-not-finished\";\n\n    uint64 public fee;\n    uint32 public end;\n    address payable[] public attendees;\n    mapping(address => uint8) public states;\n    mapping(address => uint256) public claps;\n    uint256 public totalClaps;\n\n    event Distribution (uint256 totalReward);\n    event Transfer (address indexed attendee, uint256 reward);\n\n    constructor (uint64 _fee, uint32 _end) public {\n        require(block.timestamp < _end, EVENT_FINISHED);\n        fee = _fee;\n        end = _end;\n    }\n\n    function getAttendees () external view returns (address payable[] memory) {\n        return attendees;\n    }\n\n    function register () public payable {\n        require(msg.value == fee, WRONG_FEE);\n        require(\n            states[msg.sender] == ATTENDEE_UNREGISTERED,\n            ALREADY_REGISTERED\n        );\n        require(attendees.length < MAX_ATTENDEES, TOO_MANY_ATTENDEES);\n        require(block.timestamp < end, EVENT_FINISHED);\n        states[msg.sender] = ATTENDEE_REGISTERED;\n        attendees.push(msg.sender);\n    }\n\n    function clap (address[] memory _attendees, uint256[] memory _claps)\n        public {\n        require(states[msg.sender] == ATTENDEE_REGISTERED, UNAUTHORIZED);\n        require(_attendees.length == _claps.length, DIFFERENT_LENGTHS);\n        states[msg.sender] = ATTENDEE_CLAPPED;\n        uint256 givenClaps;\n        for (uint8 i; i < _attendees.length; i += 1) {\n            givenClaps = givenClaps.add(_claps[i]);\n            if (_attendees[i] == msg.sender) continue;\n            if (states[_attendees[i]] == ATTENDEE_UNREGISTERED) continue;\n            claps[_attendees[i]] = claps[_attendees[i]].add(_claps[i]);\n        }\n        require(\n            givenClaps <= attendees.length * CLAPS_PER_ATTENDEE,\n            TOO_MANY_CLAPS\n        );\n        totalClaps = totalClaps.add(givenClaps);\n    }\n\n    function distribute () external {\n        require(block.timestamp >= end, EVENT_NOT_FINISHED);\n        require(totalClaps > 0, NO_CLAPS);\n        uint256 totalReward = address(this).balance;\n        emit Distribution(totalReward);\n        for (uint256 i; i < attendees.length; i = i.add(1)) {\n            if (states[attendees[i]] == ATTENDEE_REWARDED) continue;\n            if (claps[attendees[i]] == 0) continue;\n            uint256 reward = claps[attendees[i]]\n                .mul(totalReward)\n                .div(totalClaps);\n            states[attendees[i]] = ATTENDEE_REWARDED;\n            (bool success, ) = attendees[i].call.value(reward)(\"\");\n            if (success) {\n                emit Transfer(attendees[i], reward);\n            }\n        }\n    }\n}\n",
  "sourcePath": "/home/e18r/code/coinosis/contracts/Event.sol",
  "compiler": {
    "name": "solc",
    "version": "0.5.16+commit.9c3226ce.Emscripten.clang"
  },
  "schemaVersion": "3.2.0",
  "updatedAt": "2020-06-09T23:59:21.678Z",
  "devdoc": {
    "methods": {}
  },
  "userdoc": {
    "methods": {}
  }
}