{
  "contractName": "Event",
  "abi": [
    {
      "inputs": [
        {
          "internalType": "uint64",
          "name": "_fee",
          "type": "uint64"
        },
        {
          "internalType": "uint32",
          "name": "_end",
          "type": "uint32"
        }
      ],
      "payable": false,
      "stateMutability": "nonpayable",
      "type": "constructor"
    },
    {
      "anonymous": false,
      "inputs": [
        {
          "indexed": false,
          "internalType": "uint256",
          "name": "totalReward",
          "type": "uint256"
        }
      ],
      "name": "Distribution",
      "type": "event"
    },
    {
      "anonymous": false,
      "inputs": [
        {
          "indexed": true,
          "internalType": "address",
          "name": "attendee",
          "type": "address"
        },
        {
          "indexed": false,
          "internalType": "uint256",
          "name": "reward",
          "type": "uint256"
        }
      ],
      "name": "Transfer",
      "type": "event"
    },
    {
      "constant": true,
      "inputs": [
        {
          "internalType": "address",
          "name": "",
          "type": "address"
        }
      ],
      "name": "claps",
      "outputs": [
        {
          "internalType": "uint256",
          "name": "",
          "type": "uint256"
        }
      ],
      "payable": false,
      "stateMutability": "view",
      "type": "function"
    },
    {
      "constant": true,
      "inputs": [],
      "name": "end",
      "outputs": [
        {
          "internalType": "uint32",
          "name": "",
          "type": "uint32"
        }
      ],
      "payable": false,
      "stateMutability": "view",
      "type": "function"
    },
    {
      "constant": true,
      "inputs": [],
      "name": "fee",
      "outputs": [
        {
          "internalType": "uint64",
          "name": "",
          "type": "uint64"
        }
      ],
      "payable": false,
      "stateMutability": "view",
      "type": "function"
    },
    {
      "constant": true,
      "inputs": [
        {
          "internalType": "address",
          "name": "",
          "type": "address"
        }
      ],
      "name": "states",
      "outputs": [
        {
          "internalType": "uint8",
          "name": "",
          "type": "uint8"
        }
      ],
      "payable": false,
      "stateMutability": "view",
      "type": "function"
    },
    {
      "constant": true,
      "inputs": [],
      "name": "totalClaps",
      "outputs": [
        {
          "internalType": "uint256",
          "name": "",
          "type": "uint256"
        }
      ],
      "payable": false,
      "stateMutability": "view",
      "type": "function"
    },
    {
      "constant": true,
      "inputs": [],
      "name": "version",
      "outputs": [
        {
          "internalType": "bytes5",
          "name": "",
          "type": "bytes5"
        }
      ],
      "payable": false,
      "stateMutability": "view",
      "type": "function"
    },
    {
      "constant": true,
      "inputs": [],
      "name": "getAttendees",
      "outputs": [
        {
          "internalType": "address payable[]",
          "name": "",
          "type": "address[]"
        }
      ],
      "payable": false,
      "stateMutability": "view",
      "type": "function"
    },
    {
      "constant": false,
      "inputs": [],
      "name": "register",
      "outputs": [],
      "payable": true,
      "stateMutability": "payable",
      "type": "function"
    },
    {
      "constant": false,
      "inputs": [
        {
          "internalType": "address[]",
          "name": "_attendees",
          "type": "address[]"
        },
        {
          "internalType": "uint256[]",
          "name": "_claps",
          "type": "uint256[]"
        }
      ],
      "name": "clap",
      "outputs": [],
      "payable": false,
      "stateMutability": "nonpayable",
      "type": "function"
    },
    {
      "constant": false,
      "inputs": [],
      "name": "distribute",
      "outputs": [],
      "payable": false,
      "stateMutability": "nonpayable",
      "type": "function"
    }
  ],
  "bytecode": "0x608060405234801561001057600080fd5b50604051610c1c380380610c1c8339818101604052604081101561003357600080fd5b50805160209091015163ffffffff8116421061004e57600080fd5b6000805463ffffffff909216680100000000000000000263ffffffff60401b196001600160401b039094166001600160401b03199093169290921792909216179055610b7d8061009f6000396000f3fe6080604052600436106100815760003560e01c806302a22337146100865780631aa3a008146100cf5780631c7ab8e5146100d957806335dfb1ef1461011e5780634165a1bb146101e957806354fd4d501461024e5780637fe338b514610280578063ddca3f4314610295578063e4fc6b6d146102c6578063efbe1c1c146102db575b600080fd5b34801561009257600080fd5b506100b9600480360360208110156100a957600080fd5b50356001600160a01b0316610309565b6040805160ff9092168252519081900360200190f35b6100d761031e565b005b3480156100e557600080fd5b5061010c600480360360208110156100fc57600080fd5b50356001600160a01b031661032a565b60408051918252519081900360200190f35b34801561012a57600080fd5b506100d76004803603604081101561014157600080fd5b810190602081018135600160201b81111561015b57600080fd5b82018360208201111561016d57600080fd5b803590602001918460208302840111600160201b8311171561018e57600080fd5b919390929091602081019035600160201b8111156101ab57600080fd5b8201836020820111156101bd57600080fd5b803590602001918460208302840111600160201b831117156101de57600080fd5b50909250905061033c565b3480156101f557600080fd5b506101fe6103b0565b60408051602080825283518183015283519192839290830191858101910280838360005b8381101561023a578181015183820152602001610222565b505050509050019250505060405180910390f35b34801561025a57600080fd5b50610263610412565b604080516001600160d81b03199092168252519081900360200190f35b34801561028c57600080fd5b5061010c61041e565b3480156102a157600080fd5b506102aa610424565b604080516001600160401b039092168252519081900360200190f35b3480156102d257600080fd5b506100d7610433565b3480156102e757600080fd5b506102f06106b7565b6040805163ffffffff9092168252519081900360200190f35b60026020526000908152604090205460ff1681565b61032833346106ca565b565b60036020526000908152604090205481565b6103aa338585808060200260200160405190810160405280939291908181526020018383602002808284376000920191909152505060408051602080890282810182019093528882529093508892508791829185019084908082843760009201919091525061079592505050565b50505050565b6060600180548060200260200160405190810160405280929190818152602001828054801561040857602002820191906000526020600020905b81546001600160a01b031681526001909101906020018083116103ea575b5050505050905090565b640322e302e360dc1b81565b60045481565b6000546001600160401b031681565b600054600160401b900463ffffffff1642101561044f57600080fd5b60006004541161045e57600080fd5b604080514780825291517f646281a1f6e9956b914b633483bb33fe8d21acc7c1061352910df7243113cc6b9181900360200190a160005b6001548110156106b357600360ff1660026000600184815481106104b557fe5b60009182526020808320909101546001600160a01b0316835282019290925260400190205460ff1614156104e85761069b565b60036000600183815481106104f957fe5b60009182526020808320909101546001600160a01b031683528201929092526040019020546105275761069b565b600061058160045461057585600360006001888154811061054457fe5b60009182526020808320909101546001600160a01b031683528201929092526040019020549063ffffffff61098c16565b9063ffffffff6109ee16565b90506003600260006001858154811061059657fe5b6000918252602080832091909101546001600160a01b031683528201929092526040018120805460ff191660ff939093169290921790915560018054849081106105dc57fe5b60009182526020822001546040516001600160a01b039091169184919081818185875af1925050503d8060008114610630576040519150601f19603f3d011682016040523d82523d6000602084013e610635565b606091505b505090508015610698576001838154811061064c57fe5b600091825260209182902001546040805185815290516001600160a01b03909216927f69ca02dd4edd7bf0a4abb9ed3b7af3f14778db5d61921c7dc7cd545266326de292918290030190a25b50505b6106ac81600163ffffffff610a2d16565b9050610495565b5050565b600054600160401b900463ffffffff1681565b6000546001600160401b031681146106e157600080fd5b6001600160a01b03821660009081526002602052604090205460ff161561070757600080fd5b60015460641161071657600080fd5b600054600160401b900463ffffffff16421061073157600080fd5b506001600160a01b03166000818152600260205260408120805460ff191660019081179091558054808201825591527fb10e2d527612073b26eecdfd717e6a320cf44b4afac2b0732d9fcbe2b7fa0cf60180546001600160a01b0319169091179055565b6001600160a01b03831660009081526002602052604090205460ff166001146107bd57600080fd5b80518251146107cb57600080fd5b6001600160a01b03831660009081526002602081905260408220805460ff19169091179055805b835181101561094f5761082183828151811061080a57fe5b602002602001015183610a2d90919063ffffffff16565b9150846001600160a01b031684828151811061083957fe5b60200260200101516001600160a01b0316141561085557610937565b600060ff166002600086848151811061086a57fe5b6020908102919091018101516001600160a01b031682528101919091526040016000205460ff16141561089c57610937565b6108fa8382815181106108ab57fe5b6020026020010151600360008785815181106108c357fe5b60200260200101516001600160a01b03166001600160a01b0316815260200190815260200160002054610a2d90919063ffffffff16565b6003600086848151811061090a57fe5b60200260200101516001600160a01b03166001600160a01b03168152602001908152602001600020819055505b61094881600163ffffffff610a2d16565b90506107f2565b5060015461096490600363ffffffff61098c16565b81111561097057600080fd5b600454610983908263ffffffff610a2d16565b60045550505050565b60008261099b575060006109e8565b828202828482816109a857fe5b04146109e55760405162461bcd60e51b8152600401808060200182810382526021815260200180610b286021913960400191505060405180910390fd5b90505b92915050565b60006109e583836040518060400160405280601a815260200179536166654d6174683a206469766973696f6e206279207a65726f60301b815250610a85565b6000828201838110156109e5576040805162461bcd60e51b815260206004820152601b60248201527a536166654d6174683a206164646974696f6e206f766572666c6f7760281b604482015290519081900360640190fd5b60008183610b115760405162461bcd60e51b81526004018080602001828103825283818151815260200191508051906020019080838360005b83811015610ad6578181015183820152602001610abe565b50505050905090810190601f168015610b035780820380516001836020036101000a031916815260200191505b509250505060405180910390fd5b506000838581610b1d57fe5b049594505050505056fe536166654d6174683a206d756c7469706c69636174696f6e206f766572666c6f77a265627a7a72315820c7ff8f7aea276df8ca9f599109ef8c3457b2456c060c359a3b9f31d714e66cbf64736f6c63430005100032",
  "source": "pragma solidity 0.5.16;\n\nimport \"@openzeppelin/contracts/math/SafeMath.sol\";\n\ncontract Event {\n\n    using SafeMath for uint256;\n\n    bytes5 constant public version = \"2.0.0\";\n    uint8 constant private CLAPS_PER_ATTENDEE = 3;\n    uint8 constant private MAX_ATTENDEES = 100;\n\n    uint8 constant private ATTENDEE_UNREGISTERED = 0;\n    uint8 constant private ATTENDEE_REGISTERED = 1;\n    uint8 constant private ATTENDEE_CLAPPED = 2;\n    uint8 constant private ATTENDEE_REWARDED = 3;\n\n    uint64 public fee;\n    uint32 public end;\n    address payable[] private attendees;\n    mapping(address => uint8) public states;\n    mapping(address => uint256) public claps;\n    uint256 public totalClaps;\n\n    event Distribution (uint256 totalReward);\n    event Transfer (address indexed attendee, uint256 reward);\n\n    constructor (uint64 _fee, uint32 _end) public {\n        require(block.timestamp < _end);\n        fee = _fee;\n        end = _end;\n    }\n\n    function getAttendees () external view returns (address payable[] memory) {\n        return attendees;\n    }\n\n    function register (address payable _attendee, uint256 _fee) internal {\n        require(_fee == fee);\n        require(states[_attendee] == ATTENDEE_UNREGISTERED);\n        require(attendees.length < MAX_ATTENDEES);\n        require(block.timestamp < end);\n        states[_attendee] = ATTENDEE_REGISTERED;\n        attendees.push(_attendee);\n    }\n\n    function register () external payable {\n        register(msg.sender, msg.value);\n    }\n\n    function clap (\n        address _clapper,\n        address[] memory _attendees,\n        uint256[] memory _claps\n    ) internal {\n        require(states[_clapper] == ATTENDEE_REGISTERED);\n        require(_attendees.length == _claps.length);\n        states[_clapper] = ATTENDEE_CLAPPED;\n        uint256 givenClaps;\n        for (uint256 i; i < _attendees.length; i = i.add(1)) {\n            givenClaps = givenClaps.add(_claps[i]);\n            if (_attendees[i] == _clapper) continue;\n            if (states[_attendees[i]] == ATTENDEE_UNREGISTERED) continue;\n            claps[_attendees[i]] = claps[_attendees[i]].add(_claps[i]);\n        }\n        require(givenClaps <= attendees.length.mul(CLAPS_PER_ATTENDEE));\n        totalClaps = totalClaps.add(givenClaps);\n    }\n\n    function clap (address[] calldata _attendees, uint256[] calldata _claps)\n        external {\n        clap(msg.sender, _attendees, _claps);\n    }\n\n    function distribute () external {\n        require(block.timestamp >= end);\n        require(totalClaps > 0);\n        uint256 totalReward = address(this).balance;\n        emit Distribution(totalReward);\n        for (uint256 i; i < attendees.length; i = i.add(1)) {\n            if (states[attendees[i]] == ATTENDEE_REWARDED) continue;\n            if (claps[attendees[i]] == 0) continue;\n            uint256 reward = claps[attendees[i]]\n                .mul(totalReward)\n                .div(totalClaps);\n            states[attendees[i]] = ATTENDEE_REWARDED;\n            (bool success, ) = attendees[i].call.value(reward)(\"\");\n            if (success) {\n                emit Transfer(attendees[i], reward);\n            }\n        }\n    }\n}\n",
  "sourcePath": "/home/e18r/code/coinosis/contracts/Event.sol",
  "compiler": {
    "name": "solc",
    "version": "0.5.16+commit.9c3226ce.Emscripten.clang"
  },
  "schemaVersion": "3.2.0",
  "updatedAt": "2020-06-10T21:21:50.989Z",
  "devdoc": {
    "methods": {}
  },
  "userdoc": {
    "methods": {}
  }
}