{
  "contractName": "Event",
  "abi": [
    {
      "inputs": [
        {
          "internalType": "string",
          "name": "_id",
          "type": "string"
        },
        {
          "internalType": "uint64",
          "name": "_fee",
          "type": "uint64"
        }
      ],
      "payable": false,
      "stateMutability": "nonpayable",
      "type": "constructor"
    },
    {
      "anonymous": false,
      "inputs": [
        {
          "indexed": false,
          "internalType": "uint256",
          "name": "totalReward",
          "type": "uint256"
        }
      ],
      "name": "Distribution",
      "type": "event"
    },
    {
      "anonymous": false,
      "inputs": [
        {
          "indexed": true,
          "internalType": "address",
          "name": "attendee",
          "type": "address"
        },
        {
          "indexed": false,
          "internalType": "uint256",
          "name": "reward",
          "type": "uint256"
        }
      ],
      "name": "Transfer",
      "type": "event"
    },
    {
      "constant": true,
      "inputs": [],
      "name": "CLAPS_PER_ATTENDEE",
      "outputs": [
        {
          "internalType": "uint8",
          "name": "",
          "type": "uint8"
        }
      ],
      "payable": false,
      "stateMutability": "view",
      "type": "function"
    },
    {
      "constant": true,
      "inputs": [],
      "name": "allowedClaps",
      "outputs": [
        {
          "internalType": "uint256",
          "name": "",
          "type": "uint256"
        }
      ],
      "payable": false,
      "stateMutability": "view",
      "type": "function"
    },
    {
      "constant": true,
      "inputs": [
        {
          "internalType": "uint256",
          "name": "",
          "type": "uint256"
        }
      ],
      "name": "attendees",
      "outputs": [
        {
          "internalType": "address payable",
          "name": "",
          "type": "address"
        }
      ],
      "payable": false,
      "stateMutability": "view",
      "type": "function"
    },
    {
      "constant": true,
      "inputs": [
        {
          "internalType": "address",
          "name": "",
          "type": "address"
        }
      ],
      "name": "claps",
      "outputs": [
        {
          "internalType": "uint256",
          "name": "",
          "type": "uint256"
        }
      ],
      "payable": false,
      "stateMutability": "view",
      "type": "function"
    },
    {
      "constant": true,
      "inputs": [],
      "name": "fee",
      "outputs": [
        {
          "internalType": "uint64",
          "name": "",
          "type": "uint64"
        }
      ],
      "payable": false,
      "stateMutability": "view",
      "type": "function"
    },
    {
      "constant": true,
      "inputs": [],
      "name": "id",
      "outputs": [
        {
          "internalType": "string",
          "name": "",
          "type": "string"
        }
      ],
      "payable": false,
      "stateMutability": "view",
      "type": "function"
    },
    {
      "constant": true,
      "inputs": [
        {
          "internalType": "address",
          "name": "",
          "type": "address"
        }
      ],
      "name": "states",
      "outputs": [
        {
          "internalType": "uint8",
          "name": "",
          "type": "uint8"
        }
      ],
      "payable": false,
      "stateMutability": "view",
      "type": "function"
    },
    {
      "constant": true,
      "inputs": [],
      "name": "totalClaps",
      "outputs": [
        {
          "internalType": "uint256",
          "name": "",
          "type": "uint256"
        }
      ],
      "payable": false,
      "stateMutability": "view",
      "type": "function"
    },
    {
      "constant": false,
      "inputs": [],
      "name": "register",
      "outputs": [],
      "payable": true,
      "stateMutability": "payable",
      "type": "function"
    },
    {
      "constant": false,
      "inputs": [
        {
          "internalType": "address[]",
          "name": "_attendees",
          "type": "address[]"
        },
        {
          "internalType": "uint256[]",
          "name": "_claps",
          "type": "uint256[]"
        }
      ],
      "name": "clap",
      "outputs": [],
      "payable": false,
      "stateMutability": "nonpayable",
      "type": "function"
    },
    {
      "constant": false,
      "inputs": [],
      "name": "distribute",
      "outputs": [],
      "payable": false,
      "stateMutability": "nonpayable",
      "type": "function"
    }
  ],
  "bytecode": "0x60806040523480156200001157600080fd5b506040516200189e3803806200189e833981810160405260408110156200003757600080fd5b81019080805160405193929190846401000000008211156200005857600080fd5b838201915060208201858111156200006f57600080fd5b82518660018202830111640100000000821117156200008d57600080fd5b8083526020830192505050908051906020019080838360005b83811015620000c3578082015181840152602081019050620000a6565b50505050905090810190601f168015620000f15780820380516001836020036101000a031916815260200191505b506040526020018051906020019092919050505081600090805190602001906200011d92919062000157565b5080600160006101000a81548167ffffffffffffffff021916908367ffffffffffffffff1602179055506000600581905550505062000206565b828054600181600116156101000203166002900490600052602060002090601f016020900481019282601f106200019a57805160ff1916838001178555620001cb565b82800160010185558215620001cb579182015b82811115620001ca578251825591602001919060010190620001ad565b5b509050620001da9190620001de565b5090565b6200020391905b80821115620001ff576000816000905550600101620001e5565b5090565b90565b61168880620002166000396000f3fe60806040526004361061009c5760003560e01c806335dfb1ef1161006457806335dfb1ef146102275780637fe338b514610380578063af640d0f146103ab578063ddca3f431461043b578063e4fc6b6d1461047a578063e9258b77146104915761009c565b806302a22337146100a15780630e0c353d1461010c5780631635c2ce146101875780631aa3a008146101b85780631c7ab8e5146101c2575b600080fd5b3480156100ad57600080fd5b506100f0600480360360208110156100c457600080fd5b81019080803573ffffffffffffffffffffffffffffffffffffffff1690602001909291905050506104bc565b604051808260ff1660ff16815260200191505060405180910390f35b34801561011857600080fd5b506101456004803603602081101561012f57600080fd5b81019080803590602001909291905050506104dc565b604051808273ffffffffffffffffffffffffffffffffffffffff1673ffffffffffffffffffffffffffffffffffffffff16815260200191505060405180910390f35b34801561019357600080fd5b5061019c610518565b604051808260ff1660ff16815260200191505060405180910390f35b6101c061051d565b005b3480156101ce57600080fd5b50610211600480360360208110156101e557600080fd5b81019080803573ffffffffffffffffffffffffffffffffffffffff169060200190929190505050610916565b6040518082815260200191505060405180910390f35b34801561023357600080fd5b5061037e6004803603604081101561024a57600080fd5b810190808035906020019064010000000081111561026757600080fd5b82018360208201111561027957600080fd5b8035906020019184602083028401116401000000008311171561029b57600080fd5b919080806020026020016040519081016040528093929190818152602001838360200280828437600081840152601f19601f820116905080830192505050505050509192919290803590602001906401000000008111156102fb57600080fd5b82018360208201111561030d57600080fd5b8035906020019184602083028401116401000000008311171561032f57600080fd5b919080806020026020016040519081016040528093929190818152602001838360200280828437600081840152601f19601f82011690508083019250505050505050919291929050505061092e565b005b34801561038c57600080fd5b50610395610e85565b6040518082815260200191505060405180910390f35b3480156103b757600080fd5b506103c0610e8b565b6040518080602001828103825283818151815260200191508051906020019080838360005b838110156104005780820151818401526020810190506103e5565b50505050905090810190601f16801561042d5780820380516001836020036101000a031916815260200191505b509250505060405180910390f35b34801561044757600080fd5b50610450610f29565b604051808267ffffffffffffffff1667ffffffffffffffff16815260200191505060405180910390f35b34801561048657600080fd5b5061048f610f43565b005b34801561049d57600080fd5b506104a661140e565b6040518082815260200191505060405180910390f35b60036020528060005260406000206000915054906101000a900460ff1681565b600281815481106104e957fe5b906000526020600020016000915054906101000a900473ffffffffffffffffffffffffffffffffffffffff1681565b600381565b600160009054906101000a900467ffffffffffffffff1667ffffffffffffffff1634146040518060400160405280600981526020017f77726f6e672d66656500000000000000000000000000000000000000000000008152509061061c576040517f08c379a00000000000000000000000000000000000000000000000000000000081526004018080602001828103825283818151815260200191508051906020019080838360005b838110156105e15780820151818401526020810190506105c6565b50505050905090810190601f16801561060e5780820380516001836020036101000a031916815260200191505b509250505060405180910390fd5b50600060ff16600360003373ffffffffffffffffffffffffffffffffffffffff1673ffffffffffffffffffffffffffffffffffffffff16815260200190815260200160002060009054906101000a900460ff1660ff16146040518060400160405280601281526020017f616c72656164792d7265676973746572656400000000000000000000000000008152509061074f576040517f08c379a00000000000000000000000000000000000000000000000000000000081526004018080602001828103825283818151815260200191508051906020019080838360005b838110156107145780820151818401526020810190506106f9565b50505050905090810190601f1680156107415780820380516001836020036101000a031916815260200191505b509250505060405180910390fd5b506064600280549050106040518060400160405280601281526020017f746f6f2d6d616e792d617474656e64656573000000000000000000000000000081525090610835576040517f08c379a00000000000000000000000000000000000000000000000000000000081526004018080602001828103825283818151815260200191508051906020019080838360005b838110156107fa5780820151818401526020810190506107df565b50505050905090810190601f1680156108275780820380516001836020036101000a031916815260200191505b509250505060405180910390fd5b506001600360003373ffffffffffffffffffffffffffffffffffffffff1673ffffffffffffffffffffffffffffffffffffffff16815260200190815260200160002060006101000a81548160ff021916908360ff16021790555060023390806001815401808255809150509060018203906000526020600020016000909192909190916101000a81548173ffffffffffffffffffffffffffffffffffffffff021916908373ffffffffffffffffffffffffffffffffffffffff1602179055505061090e600360ff1660055461141490919063ffffffff16565b600581905550565b60046020528060005260406000206000915090505481565b600160ff16600360003373ffffffffffffffffffffffffffffffffffffffff1673ffffffffffffffffffffffffffffffffffffffff16815260200190815260200160002060009054906101000a900460ff1660ff16146040518060400160405280600c81526020017f756e617574686f72697a6564000000000000000000000000000000000000000081525090610a60576040517f08c379a00000000000000000000000000000000000000000000000000000000081526004018080602001828103825283818151815260200191508051906020019080838360005b83811015610a25578082015181840152602081019050610a0a565b50505050905090810190601f168015610a525780820380516001836020036101000a031916815260200191505b509250505060405180910390fd5b5080518251146040518060400160405280601181526020017f646966666572656e742d6c656e6774687300000000000000000000000000000081525090610b42576040517f08c379a00000000000000000000000000000000000000000000000000000000081526004018080602001828103825283818151815260200191508051906020019080838360005b83811015610b07578082015181840152602081019050610aec565b50505050905090810190601f168015610b345780820380516001836020036101000a031916815260200191505b509250505060405180910390fd5b506002600360003373ffffffffffffffffffffffffffffffffffffffff1673ffffffffffffffffffffffffffffffffffffffff16815260200190815260200160002060006101000a81548160ff021916908360ff160217905550600080905060008090505b8351811015610d8157610bd6838281518110610bbf57fe5b60200260200101518361141490919063ffffffff16565b91503373ffffffffffffffffffffffffffffffffffffffff16848281518110610bfb57fe5b602002602001015173ffffffffffffffffffffffffffffffffffffffff161415610c2457610d66565b600060ff1660036000868481518110610c3957fe5b602002602001015173ffffffffffffffffffffffffffffffffffffffff1673ffffffffffffffffffffffffffffffffffffffff16815260200190815260200160002060009054906101000a900460ff1660ff161415610c9757610d66565b610d0f838281518110610ca657fe5b602002602001015160046000878581518110610cbe57fe5b602002602001015173ffffffffffffffffffffffffffffffffffffffff1673ffffffffffffffffffffffffffffffffffffffff1681526020019081526020016000205461141490919063ffffffff16565b60046000868481518110610d1f57fe5b602002602001015173ffffffffffffffffffffffffffffffffffffffff1673ffffffffffffffffffffffffffffffffffffffff168152602001908152602001600020819055505b610d7a60018261141490919063ffffffff16565b9050610ba7565b506005548111156040518060400160405280600e81526020017f746f6f2d6d616e792d636c61707300000000000000000000000000000000000081525090610e64576040517f08c379a00000000000000000000000000000000000000000000000000000000081526004018080602001828103825283818151815260200191508051906020019080838360005b83811015610e29578082015181840152602081019050610e0e565b50505050905090810190601f168015610e565780820380516001836020036101000a031916815260200191505b509250505060405180910390fd5b50610e7a8160065461141490919063ffffffff16565b600681905550505050565b60065481565b60008054600181600116156101000203166002900480601f016020809104026020016040519081016040528092919081815260200182805460018160011615610100020316600290048015610f215780601f10610ef657610100808354040283529160200191610f21565b820191906000526020600020905b815481529060010190602001808311610f0457829003601f168201915b505050505081565b600160009054906101000a900467ffffffffffffffff1681565b6000600654116040518060400160405280600881526020017f6e6f2d636c61707300000000000000000000000000000000000000000000000081525090611025576040517f08c379a00000000000000000000000000000000000000000000000000000000081526004018080602001828103825283818151815260200191508051906020019080838360005b83811015610fea578082015181840152602081019050610fcf565b50505050905090810190601f1680156110175780820380516001836020036101000a031916815260200191505b509250505060405180910390fd5b5060004790507f646281a1f6e9956b914b633483bb33fe8d21acc7c1061352910df7243113cc6b816040518082815260200191505060405180910390a160008090505b60028054905081101561140a57600360ff16600360006002848154811061108b57fe5b9060005260206000200160009054906101000a900473ffffffffffffffffffffffffffffffffffffffff1673ffffffffffffffffffffffffffffffffffffffff1673ffffffffffffffffffffffffffffffffffffffff16815260200190815260200160002060009054906101000a900460ff1660ff16141561110c576113ef565b6000600460006002848154811061111f57fe5b9060005260206000200160009054906101000a900473ffffffffffffffffffffffffffffffffffffffff1673ffffffffffffffffffffffffffffffffffffffff1673ffffffffffffffffffffffffffffffffffffffff168152602001908152602001600020541415611190576113ef565b600061122f6006546112218560046000600288815481106111ad57fe5b9060005260206000200160009054906101000a900473ffffffffffffffffffffffffffffffffffffffff1673ffffffffffffffffffffffffffffffffffffffff1673ffffffffffffffffffffffffffffffffffffffff1681526020019081526020016000205461149c90919063ffffffff16565b61152290919063ffffffff16565b905060038060006002858154811061124357fe5b9060005260206000200160009054906101000a900473ffffffffffffffffffffffffffffffffffffffff1673ffffffffffffffffffffffffffffffffffffffff1673ffffffffffffffffffffffffffffffffffffffff16815260200190815260200160002060006101000a81548160ff021916908360ff1602179055506000600283815481106112cf57fe5b9060005260206000200160009054906101000a900473ffffffffffffffffffffffffffffffffffffffff1673ffffffffffffffffffffffffffffffffffffffff168260405180600001905060006040518083038185875af1925050503d8060008114611357576040519150601f19603f3d011682016040523d82523d6000602084013e61135c565b606091505b5050905080156113ec576002838154811061137357fe5b9060005260206000200160009054906101000a900473ffffffffffffffffffffffffffffffffffffffff1673ffffffffffffffffffffffffffffffffffffffff167f69ca02dd4edd7bf0a4abb9ed3b7af3f14778db5d61921c7dc7cd545266326de2836040518082815260200191505060405180910390a25b50505b61140360018261141490919063ffffffff16565b9050611068565b5050565b60055481565b600080828401905083811015611492576040517f08c379a000000000000000000000000000000000000000000000000000000000815260040180806020018281038252601b8152602001807f536166654d6174683a206164646974696f6e206f766572666c6f77000000000081525060200191505060405180910390fd5b8091505092915050565b6000808314156114af576000905061151c565b60008284029050828482816114c057fe5b0414611517576040517f08c379a00000000000000000000000000000000000000000000000000000000081526004018080602001828103825260218152602001806116336021913960400191505060405180910390fd5b809150505b92915050565b600061156483836040518060400160405280601a81526020017f536166654d6174683a206469766973696f6e206279207a65726f00000000000081525061156c565b905092915050565b60008083118290611618576040517f08c379a00000000000000000000000000000000000000000000000000000000081526004018080602001828103825283818151815260200191508051906020019080838360005b838110156115dd5780820151818401526020810190506115c2565b50505050905090810190601f16801561160a5780820380516001836020036101000a031916815260200191505b509250505060405180910390fd5b50600083858161162457fe5b04905080915050939250505056fe536166654d6174683a206d756c7469706c69636174696f6e206f766572666c6f77a265627a7a72315820239942ccb3c0ac7ac01f760c6ca0b8a00aa32ce808d8b86f5fc932cd2cdefd1364736f6c63430005100032",
  "source": "pragma solidity 0.5.16;\n\nimport \"@openzeppelin/contracts/math/SafeMath.sol\";\n\ncontract Event {\n\n    using SafeMath for uint256;\n\n    string constant private version = \"2.0.0\";\n    uint8 constant public CLAPS_PER_ATTENDEE = 3;\n\n    uint8 constant private ATTENDEE_UNREGISTERED = 0;\n    uint8 constant private ATTENDEE_REGISTERED = 1;\n    uint8 constant private ATTENDEE_CLAPPED = 2;\n    uint8 constant private ATTENDEE_REWARDED = 3;\n\n    string constant private WRONG_FEE = \"wrong-fee\";\n    string constant private ALREADY_REGISTERED = \"already-registered\";\n    string constant private UNAUTHORIZED = \"unauthorized\";\n    string constant private DIFFERENT_LENGTHS = \"different-lengths\";\n    string constant private TOO_MANY_ATTENDEES = \"too-many-attendees\";\n    string constant private TOO_MANY_CLAPS = \"too-many-claps\";\n    string constant private NO_CLAPS = \"no-claps\";\n\n    string public id;\n    uint64 public fee;\n    address payable[] public attendees;\n    mapping(address => uint8) public states;\n    mapping(address => uint256) public claps;\n    uint256 public allowedClaps;\n    uint256 public totalClaps;\n\n    event Distribution (uint256 totalReward);\n    event Transfer (address indexed attendee, uint256 reward);\n\n    constructor (string memory _id, uint64 _fee) public {\n        id = _id;\n        fee = _fee;\n        allowedClaps = 0;\n    }\n\n    function register () public payable {\n        require(msg.value == fee, WRONG_FEE);\n        require(\n            states[msg.sender] == ATTENDEE_UNREGISTERED,\n            ALREADY_REGISTERED\n        );\n        require(attendees.length < 100, TOO_MANY_ATTENDEES);\n        states[msg.sender] = ATTENDEE_REGISTERED;\n        attendees.push(msg.sender);\n        allowedClaps = allowedClaps.add(CLAPS_PER_ATTENDEE);\n    }\n\n    function clap (address[] memory _attendees, uint256[] memory _claps)\n        public {\n        require(states[msg.sender] == ATTENDEE_REGISTERED, UNAUTHORIZED);\n        require(_attendees.length == _claps.length, DIFFERENT_LENGTHS);\n        states[msg.sender] = ATTENDEE_CLAPPED;\n        uint256 givenClaps = 0;\n        for (uint256 i = 0; i < _attendees.length; i = i.add(1)) {\n            givenClaps = givenClaps.add(_claps[i]);\n            if (_attendees[i] == msg.sender) continue;\n            if (states[_attendees[i]] == ATTENDEE_UNREGISTERED) continue;\n            claps[_attendees[i]] = claps[_attendees[i]].add(_claps[i]);\n        }\n        require(givenClaps <= allowedClaps, TOO_MANY_CLAPS);\n        totalClaps = totalClaps.add(givenClaps);\n    }\n\n    function distribute () external {\n        require(totalClaps > 0, NO_CLAPS);\n        uint256 totalReward = address(this).balance;\n        emit Distribution(totalReward);\n        for (uint256 i = 0; i < attendees.length; i = i.add(1)) {\n            if (states[attendees[i]] == ATTENDEE_REWARDED) continue;\n            if (claps[attendees[i]] == 0) continue;\n            uint256 reward = claps[attendees[i]]\n                .mul(totalReward)\n                .div(totalClaps);\n            states[attendees[i]] = ATTENDEE_REWARDED;\n            (bool success, ) = attendees[i].call.value(reward)(\"\");\n            if (success) {\n                emit Transfer(attendees[i], reward);\n            }\n        }\n    }\n}\n",
  "sourcePath": "/home/e18r/code/coinosis/contracts/Event.sol",
  "compiler": {
    "name": "solc",
    "version": "0.5.16+commit.9c3226ce.Emscripten.clang"
  },
  "schemaVersion": "3.2.0",
  "updatedAt": "2020-05-31T01:16:45.382Z",
  "devdoc": {
    "methods": {}
  },
  "userdoc": {
    "methods": {}
  }
}