{
  "contractName": "ProxyEvent",
  "abi": [
    {
      "inputs": [
        {
          "internalType": "uint64",
          "name": "_fee",
          "type": "uint64"
        },
        {
          "internalType": "uint32",
          "name": "_end",
          "type": "uint32"
        }
      ],
      "payable": false,
      "stateMutability": "nonpayable",
      "type": "constructor"
    },
    {
      "anonymous": false,
      "inputs": [
        {
          "indexed": false,
          "internalType": "uint256",
          "name": "totalReward",
          "type": "uint256"
        }
      ],
      "name": "Distribution",
      "type": "event"
    },
    {
      "anonymous": false,
      "inputs": [
        {
          "indexed": true,
          "internalType": "address",
          "name": "attendee",
          "type": "address"
        },
        {
          "indexed": false,
          "internalType": "uint256",
          "name": "reward",
          "type": "uint256"
        }
      ],
      "name": "Transfer",
      "type": "event"
    },
    {
      "constant": true,
      "inputs": [
        {
          "internalType": "uint256",
          "name": "",
          "type": "uint256"
        }
      ],
      "name": "attendees",
      "outputs": [
        {
          "internalType": "address payable",
          "name": "",
          "type": "address"
        }
      ],
      "payable": false,
      "stateMutability": "view",
      "type": "function"
    },
    {
      "constant": false,
      "inputs": [
        {
          "internalType": "address[]",
          "name": "_attendees",
          "type": "address[]"
        },
        {
          "internalType": "uint256[]",
          "name": "_claps",
          "type": "uint256[]"
        }
      ],
      "name": "clap",
      "outputs": [],
      "payable": false,
      "stateMutability": "nonpayable",
      "type": "function"
    },
    {
      "constant": true,
      "inputs": [
        {
          "internalType": "address",
          "name": "",
          "type": "address"
        }
      ],
      "name": "claps",
      "outputs": [
        {
          "internalType": "uint256",
          "name": "",
          "type": "uint256"
        }
      ],
      "payable": false,
      "stateMutability": "view",
      "type": "function"
    },
    {
      "constant": false,
      "inputs": [],
      "name": "distribute",
      "outputs": [],
      "payable": false,
      "stateMutability": "nonpayable",
      "type": "function"
    },
    {
      "constant": true,
      "inputs": [],
      "name": "end",
      "outputs": [
        {
          "internalType": "uint32",
          "name": "",
          "type": "uint32"
        }
      ],
      "payable": false,
      "stateMutability": "view",
      "type": "function"
    },
    {
      "constant": true,
      "inputs": [],
      "name": "fee",
      "outputs": [
        {
          "internalType": "uint64",
          "name": "",
          "type": "uint64"
        }
      ],
      "payable": false,
      "stateMutability": "view",
      "type": "function"
    },
    {
      "constant": true,
      "inputs": [],
      "name": "getAttendees",
      "outputs": [
        {
          "internalType": "address payable[]",
          "name": "",
          "type": "address[]"
        }
      ],
      "payable": false,
      "stateMutability": "view",
      "type": "function"
    },
    {
      "constant": true,
      "inputs": [
        {
          "internalType": "address",
          "name": "",
          "type": "address"
        }
      ],
      "name": "proxy",
      "outputs": [
        {
          "internalType": "address",
          "name": "",
          "type": "address"
        }
      ],
      "payable": false,
      "stateMutability": "view",
      "type": "function"
    },
    {
      "constant": false,
      "inputs": [],
      "name": "register",
      "outputs": [],
      "payable": true,
      "stateMutability": "payable",
      "type": "function"
    },
    {
      "constant": true,
      "inputs": [
        {
          "internalType": "address",
          "name": "",
          "type": "address"
        }
      ],
      "name": "states",
      "outputs": [
        {
          "internalType": "uint8",
          "name": "",
          "type": "uint8"
        }
      ],
      "payable": false,
      "stateMutability": "view",
      "type": "function"
    },
    {
      "constant": true,
      "inputs": [],
      "name": "totalClaps",
      "outputs": [
        {
          "internalType": "uint256",
          "name": "",
          "type": "uint256"
        }
      ],
      "payable": false,
      "stateMutability": "view",
      "type": "function"
    },
    {
      "constant": true,
      "inputs": [],
      "name": "version",
      "outputs": [
        {
          "internalType": "bytes5",
          "name": "",
          "type": "bytes5"
        }
      ],
      "payable": false,
      "stateMutability": "view",
      "type": "function"
    },
    {
      "constant": false,
      "inputs": [
        {
          "internalType": "address payable",
          "name": "_attendee",
          "type": "address"
        }
      ],
      "name": "registerFor",
      "outputs": [],
      "payable": true,
      "stateMutability": "payable",
      "type": "function"
    },
    {
      "constant": false,
      "inputs": [
        {
          "internalType": "address",
          "name": "_clapper",
          "type": "address"
        },
        {
          "internalType": "address[]",
          "name": "_attendees",
          "type": "address[]"
        },
        {
          "internalType": "uint256[]",
          "name": "_claps",
          "type": "uint256[]"
        }
      ],
      "name": "clapFor",
      "outputs": [],
      "payable": false,
      "stateMutability": "nonpayable",
      "type": "function"
    }
  ],
  "bytecode": "0x608060405234801561001057600080fd5b50604051610ed2380380610ed28339818101604052604081101561003357600080fd5b508051602090910151818163ffffffff8116421061005057600080fd5b6000805463ffffffff909216680100000000000000000263ffffffff60401b196001600160401b039094166001600160401b031990931692909217929092161790555050610e2f806100a36000396000f3fe6080604052600436106100ad5760003560e01c806302a22337146100b257806306713c3e146100fb5780630e0c353d1461014a5780631aa3a008146101745780631c7ab8e51461017e57806335dfb1ef146101c35780634165a1bb146102f357806354fd4d50146103585780637fe338b51461038a578063ddca3f431461039f578063e30e3834146103d0578063e4fc6b6d146103f6578063efbe1c1c1461040b578063f3f2570b14610439575b600080fd5b3480156100be57600080fd5b506100e5600480360360208110156100d557600080fd5b50356001600160a01b0316610579565b6040805160ff9092168252519081900360200190f35b34801561010757600080fd5b5061012e6004803603602081101561011e57600080fd5b50356001600160a01b031661058e565b604080516001600160a01b039092168252519081900360200190f35b34801561015657600080fd5b5061012e6004803603602081101561016d57600080fd5b50356105a9565b61017c6105d0565b005b34801561018a57600080fd5b506101b1600480360360208110156101a157600080fd5b50356001600160a01b03166105dc565b60408051918252519081900360200190f35b3480156101cf57600080fd5b5061017c600480360360408110156101e657600080fd5b810190602081018135600160201b81111561020057600080fd5b82018360208201111561021257600080fd5b803590602001918460208302840111600160201b8311171561023357600080fd5b9190808060200260200160405190810160405280939291908181526020018383602002808284376000920191909152509295949360208101935035915050600160201b81111561028257600080fd5b82018360208201111561029457600080fd5b803590602001918460208302840111600160201b831117156102b557600080fd5b9190808060200260200160405190810160405280939291908181526020018383602002808284376000920191909152509295506105ee945050505050565b3480156102ff57600080fd5b506103086105fd565b60408051602080825283518183015283519192839290830191858101910280838360005b8381101561034457818101518382015260200161032c565b505050509050019250505060405180910390f35b34801561036457600080fd5b5061036d61065f565b604080516001600160d81b03199092168252519081900360200190f35b34801561039657600080fd5b506101b161066b565b3480156103ab57600080fd5b506103b4610671565b604080516001600160401b039092168252519081900360200190f35b61017c600480360360208110156103e657600080fd5b50356001600160a01b0316610680565b34801561040257600080fd5b5061017c6106b3565b34801561041757600080fd5b50610420610933565b6040805163ffffffff9092168252519081900360200190f35b34801561044557600080fd5b5061017c6004803603606081101561045c57600080fd5b6001600160a01b038235169190810190604081016020820135600160201b81111561048657600080fd5b82018360208201111561049857600080fd5b803590602001918460208302840111600160201b831117156104b957600080fd5b9190808060200260200160405190810160405280939291908181526020018383602002808284376000920191909152509295949360208101935035915050600160201b81111561050857600080fd5b82018360208201111561051a57600080fd5b803590602001918460208302840111600160201b8311171561053b57600080fd5b919080806020026020016040519081016040528093929190818152602001838360200280828437600092019190915250929550610946945050505050565b60026020526000908152604090205460ff1681565b6005602052600090815260409020546001600160a01b031681565b600181815481106105b657fe5b6000918252602090912001546001600160a01b0316905081565b6105da333461097c565b565b60036020526000908152604090205481565b6105f9338383610a47565b5050565b6060600180548060200260200160405190810160405280929190818152602001828054801561065557602002820191906000526020600020905b81546001600160a01b03168152600190910190602001808311610637575b5050505050905090565b640322e302e360dc1b81565b60045481565b6000546001600160401b031681565b61068a813461097c565b6001600160a01b0316600090815260056020526040902080546001600160a01b03191633179055565b600054600160401b900463ffffffff164210156106cf57600080fd5b6000600454116106de57600080fd5b604080514780825291517f646281a1f6e9956b914b633483bb33fe8d21acc7c1061352910df7243113cc6b9181900360200190a160005b6001548110156105f957600360ff16600260006001848154811061073557fe5b60009182526020808320909101546001600160a01b0316835282019290925260400190205460ff1614156107685761091b565b600360006001838154811061077957fe5b60009182526020808320909101546001600160a01b031683528201929092526040019020546107a75761091b565b60006108016004546107f58560036000600188815481106107c457fe5b60009182526020808320909101546001600160a01b031683528201929092526040019020549063ffffffff610c3e16565b9063ffffffff610ca016565b90506003600260006001858154811061081657fe5b6000918252602080832091909101546001600160a01b031683528201929092526040018120805460ff191660ff9390931692909217909155600180548490811061085c57fe5b60009182526020822001546040516001600160a01b039091169184919081818185875af1925050503d80600081146108b0576040519150601f19603f3d011682016040523d82523d6000602084013e6108b5565b606091505b50509050801561091857600183815481106108cc57fe5b600091825260209182902001546040805185815290516001600160a01b03909216927f69ca02dd4edd7bf0a4abb9ed3b7af3f14778db5d61921c7dc7cd545266326de292918290030190a25b50505b61092c81600163ffffffff610cdf16565b9050610715565b600054600160401b900463ffffffff1681565b6001600160a01b0383811660009081526005602052604090205416331461096c57600080fd5b610977838383610a47565b505050565b6000546001600160401b0316811461099357600080fd5b6001600160a01b03821660009081526002602052604090205460ff16156109b957600080fd5b6001546064116109c857600080fd5b600054600160401b900463ffffffff1642106109e357600080fd5b506001600160a01b03166000818152600260205260408120805460ff191660019081179091558054808201825591527fb10e2d527612073b26eecdfd717e6a320cf44b4afac2b0732d9fcbe2b7fa0cf60180546001600160a01b0319169091179055565b6001600160a01b03831660009081526002602052604090205460ff16600114610a6f57600080fd5b8051825114610a7d57600080fd5b6001600160a01b03831660009081526002602081905260408220805460ff19169091179055805b8351811015610c0157610ad3838281518110610abc57fe5b602002602001015183610cdf90919063ffffffff16565b9150846001600160a01b0316848281518110610aeb57fe5b60200260200101516001600160a01b03161415610b0757610be9565b600060ff1660026000868481518110610b1c57fe5b6020908102919091018101516001600160a01b031682528101919091526040016000205460ff161415610b4e57610be9565b610bac838281518110610b5d57fe5b602002602001015160036000878581518110610b7557fe5b60200260200101516001600160a01b03166001600160a01b0316815260200190815260200160002054610cdf90919063ffffffff16565b60036000868481518110610bbc57fe5b60200260200101516001600160a01b03166001600160a01b03168152602001908152602001600020819055505b610bfa81600163ffffffff610cdf16565b9050610aa4565b50600154610c1690600363ffffffff610c3e16565b811115610c2257600080fd5b600454610c35908263ffffffff610cdf16565b60045550505050565b600082610c4d57506000610c9a565b82820282848281610c5a57fe5b0414610c975760405162461bcd60e51b8152600401808060200182810382526021815260200180610dda6021913960400191505060405180910390fd5b90505b92915050565b6000610c9783836040518060400160405280601a815260200179536166654d6174683a206469766973696f6e206279207a65726f60301b815250610d37565b600082820183811015610c97576040805162461bcd60e51b815260206004820152601b60248201527a536166654d6174683a206164646974696f6e206f766572666c6f7760281b604482015290519081900360640190fd5b60008183610dc35760405162461bcd60e51b81526004018080602001828103825283818151815260200191508051906020019080838360005b83811015610d88578181015183820152602001610d70565b50505050905090810190601f168015610db55780820380516001836020036101000a031916815260200191505b509250505060405180910390fd5b506000838581610dcf57fe5b049594505050505056fe536166654d6174683a206d756c7469706c69636174696f6e206f766572666c6f77a265627a7a72315820a50e637f456995d3ccc14e4751f577a340c838933b5b005262b1bc303be2cc3f64736f6c63430005100032",
  "source": "pragma solidity 0.5.16;\n\nimport \"./Event.sol\";\n\ncontract ProxyEvent is Event {\n\n    bytes5 constant public version = \"2.0.0\";\n    mapping(address => address) public proxy;\n\n    constructor(uint64 _fee, uint32 _end) Event(_fee, _end) public {}\n\n    function registerFor (address payable _attendee) public payable {\n        register(_attendee, msg.value);\n        proxy[_attendee] = msg.sender;\n    }\n\n    function clapFor (\n        address _clapper,\n        address[] memory _attendees,\n        uint256[] memory _claps\n    ) public {\n        require(proxy[_clapper] == msg.sender);\n        clap(_clapper, _attendees, _claps);\n    }\n}\n",
  "sourcePath": "/home/e18r/code/coinosis/contracts/ProxyEvent.sol",
  "compiler": {
    "name": "solc",
    "version": "0.5.16+commit.9c3226ce.Emscripten.clang"
  },
  "schemaVersion": "3.2.0",
  "updatedAt": "2020-06-10T20:09:19.225Z",
  "devdoc": {
    "methods": {}
  },
  "userdoc": {
    "methods": {}
  }
}