{
  "contractName": "ProxyEvent",
  "abi": [
    {
      "inputs": [
        {
          "internalType": "uint64",
          "name": "_fee",
          "type": "uint64"
        },
        {
          "internalType": "uint32",
          "name": "_end",
          "type": "uint32"
        }
      ],
      "payable": false,
      "stateMutability": "nonpayable",
      "type": "constructor"
    },
    {
      "anonymous": false,
      "inputs": [
        {
          "indexed": false,
          "internalType": "uint256",
          "name": "totalReward",
          "type": "uint256"
        }
      ],
      "name": "Distribution",
      "type": "event"
    },
    {
      "anonymous": false,
      "inputs": [
        {
          "indexed": true,
          "internalType": "address",
          "name": "attendee",
          "type": "address"
        },
        {
          "indexed": false,
          "internalType": "uint256",
          "name": "reward",
          "type": "uint256"
        }
      ],
      "name": "Transfer",
      "type": "event"
    },
    {
      "constant": false,
      "inputs": [
        {
          "internalType": "address[]",
          "name": "_attendees",
          "type": "address[]"
        },
        {
          "internalType": "uint256[]",
          "name": "_claps",
          "type": "uint256[]"
        }
      ],
      "name": "clap",
      "outputs": [],
      "payable": false,
      "stateMutability": "nonpayable",
      "type": "function"
    },
    {
      "constant": true,
      "inputs": [
        {
          "internalType": "address",
          "name": "",
          "type": "address"
        }
      ],
      "name": "claps",
      "outputs": [
        {
          "internalType": "uint256",
          "name": "",
          "type": "uint256"
        }
      ],
      "payable": false,
      "stateMutability": "view",
      "type": "function"
    },
    {
      "constant": false,
      "inputs": [],
      "name": "distribute",
      "outputs": [],
      "payable": false,
      "stateMutability": "nonpayable",
      "type": "function"
    },
    {
      "constant": true,
      "inputs": [],
      "name": "end",
      "outputs": [
        {
          "internalType": "uint32",
          "name": "",
          "type": "uint32"
        }
      ],
      "payable": false,
      "stateMutability": "view",
      "type": "function"
    },
    {
      "constant": true,
      "inputs": [],
      "name": "fee",
      "outputs": [
        {
          "internalType": "uint64",
          "name": "",
          "type": "uint64"
        }
      ],
      "payable": false,
      "stateMutability": "view",
      "type": "function"
    },
    {
      "constant": true,
      "inputs": [],
      "name": "getAttendees",
      "outputs": [
        {
          "internalType": "address payable[]",
          "name": "",
          "type": "address[]"
        }
      ],
      "payable": false,
      "stateMutability": "view",
      "type": "function"
    },
    {
      "constant": true,
      "inputs": [
        {
          "internalType": "address",
          "name": "",
          "type": "address"
        }
      ],
      "name": "proxy",
      "outputs": [
        {
          "internalType": "address",
          "name": "",
          "type": "address"
        }
      ],
      "payable": false,
      "stateMutability": "view",
      "type": "function"
    },
    {
      "constant": false,
      "inputs": [],
      "name": "register",
      "outputs": [],
      "payable": true,
      "stateMutability": "payable",
      "type": "function"
    },
    {
      "constant": true,
      "inputs": [
        {
          "internalType": "address",
          "name": "",
          "type": "address"
        }
      ],
      "name": "states",
      "outputs": [
        {
          "internalType": "uint8",
          "name": "",
          "type": "uint8"
        }
      ],
      "payable": false,
      "stateMutability": "view",
      "type": "function"
    },
    {
      "constant": true,
      "inputs": [],
      "name": "totalClaps",
      "outputs": [
        {
          "internalType": "uint256",
          "name": "",
          "type": "uint256"
        }
      ],
      "payable": false,
      "stateMutability": "view",
      "type": "function"
    },
    {
      "constant": true,
      "inputs": [],
      "name": "version",
      "outputs": [
        {
          "internalType": "bytes5",
          "name": "",
          "type": "bytes5"
        }
      ],
      "payable": false,
      "stateMutability": "view",
      "type": "function"
    },
    {
      "constant": false,
      "inputs": [
        {
          "internalType": "address payable",
          "name": "_attendee",
          "type": "address"
        }
      ],
      "name": "registerFor",
      "outputs": [],
      "payable": true,
      "stateMutability": "payable",
      "type": "function"
    },
    {
      "constant": false,
      "inputs": [
        {
          "internalType": "address",
          "name": "_clapper",
          "type": "address"
        },
        {
          "internalType": "address[]",
          "name": "_attendees",
          "type": "address[]"
        },
        {
          "internalType": "uint256[]",
          "name": "_claps",
          "type": "uint256[]"
        }
      ],
      "name": "clapFor",
      "outputs": [],
      "payable": false,
      "stateMutability": "nonpayable",
      "type": "function"
    }
  ],
  "bytecode": "0x608060405234801561001057600080fd5b50604051610e7a380380610e7a8339818101604052604081101561003357600080fd5b508051602090910151818163ffffffff8116421061005057600080fd5b6000805463ffffffff909216680100000000000000000263ffffffff60401b196001600160401b039094166001600160401b031990931692909217929092161790555050610dd7806100a36000396000f3fe6080604052600436106100a25760003560e01c806302a22337146100a757806306713c3e146100f05780631aa3a0081461013f5780631c7ab8e51461014957806335dfb1ef1461018e5780634165a1bb1461025957806354fd4d50146102be5780637fe338b5146102f0578063ddca3f4314610305578063e30e383414610336578063e4fc6b6d1461035c578063efbe1c1c14610371578063f3f2570b1461039f575b600080fd5b3480156100b357600080fd5b506100da600480360360208110156100ca57600080fd5b50356001600160a01b031661047a565b6040805160ff9092168252519081900360200190f35b3480156100fc57600080fd5b506101236004803603602081101561011357600080fd5b50356001600160a01b031661048f565b604080516001600160a01b039092168252519081900360200190f35b6101476104aa565b005b34801561015557600080fd5b5061017c6004803603602081101561016c57600080fd5b50356001600160a01b03166104b6565b60408051918252519081900360200190f35b34801561019a57600080fd5b50610147600480360360408110156101b157600080fd5b810190602081018135600160201b8111156101cb57600080fd5b8201836020820111156101dd57600080fd5b803590602001918460208302840111600160201b831117156101fe57600080fd5b919390929091602081019035600160201b81111561021b57600080fd5b82018360208201111561022d57600080fd5b803590602001918460208302840111600160201b8311171561024e57600080fd5b5090925090506104c8565b34801561026557600080fd5b5061026e61053c565b60408051602080825283518183015283519192839290830191858101910280838360005b838110156102aa578181015183820152602001610292565b505050509050019250505060405180910390f35b3480156102ca57600080fd5b506102d361059e565b604080516001600160d81b03199092168252519081900360200190f35b3480156102fc57600080fd5b5061017c6105aa565b34801561031157600080fd5b5061031a6105b0565b604080516001600160401b039092168252519081900360200190f35b6101476004803603602081101561034c57600080fd5b50356001600160a01b03166105bf565b34801561036857600080fd5b506101476105f2565b34801561037d57600080fd5b50610386610876565b6040805163ffffffff9092168252519081900360200190f35b3480156103ab57600080fd5b50610147600480360360608110156103c257600080fd5b6001600160a01b038235169190810190604081016020820135600160201b8111156103ec57600080fd5b8201836020820111156103fe57600080fd5b803590602001918460208302840111600160201b8311171561041f57600080fd5b919390929091602081019035600160201b81111561043c57600080fd5b82018360208201111561044e57600080fd5b803590602001918460208302840111600160201b8311171561046f57600080fd5b509092509050610889565b60026020526000908152604090205460ff1681565b6005602052600090815260409020546001600160a01b031681565b6104b43334610924565b565b60036020526000908152604090205481565b61053633858580806020026020016040519081016040528093929190818152602001838360200280828437600092019190915250506040805160208089028281018201909352888252909350889250879182918501908490808284376000920191909152506109ef92505050565b50505050565b6060600180548060200260200160405190810160405280929190818152602001828054801561059457602002820191906000526020600020905b81546001600160a01b03168152600190910190602001808311610576575b5050505050905090565b640322e302e360dc1b81565b60045481565b6000546001600160401b031681565b6105c98134610924565b6001600160a01b0316600090815260056020526040902080546001600160a01b03191633179055565b600054600160401b900463ffffffff1642101561060e57600080fd5b60006004541161061d57600080fd5b604080514780825291517f646281a1f6e9956b914b633483bb33fe8d21acc7c1061352910df7243113cc6b9181900360200190a160005b60015481101561087257600360ff16600260006001848154811061067457fe5b60009182526020808320909101546001600160a01b0316835282019290925260400190205460ff1614156106a75761085a565b60036000600183815481106106b857fe5b60009182526020808320909101546001600160a01b031683528201929092526040019020546106e65761085a565b600061074060045461073485600360006001888154811061070357fe5b60009182526020808320909101546001600160a01b031683528201929092526040019020549063ffffffff610be616565b9063ffffffff610c4816565b90506003600260006001858154811061075557fe5b6000918252602080832091909101546001600160a01b031683528201929092526040018120805460ff191660ff9390931692909217909155600180548490811061079b57fe5b60009182526020822001546040516001600160a01b039091169184919081818185875af1925050503d80600081146107ef576040519150601f19603f3d011682016040523d82523d6000602084013e6107f4565b606091505b505090508015610857576001838154811061080b57fe5b600091825260209182902001546040805185815290516001600160a01b03909216927f69ca02dd4edd7bf0a4abb9ed3b7af3f14778db5d61921c7dc7cd545266326de292918290030190a25b50505b61086b81600163ffffffff610c8716565b9050610654565b5050565b600054600160401b900463ffffffff1681565b6001600160a01b038581166000908152600560205260409020541633146108af57600080fd5b61091d85858580806020026020016040519081016040528093929190818152602001838360200280828437600092019190915250506040805160208089028281018201909352888252909350889250879182918501908490808284376000920191909152506109ef92505050565b5050505050565b6000546001600160401b0316811461093b57600080fd5b6001600160a01b03821660009081526002602052604090205460ff161561096157600080fd5b60015460641161097057600080fd5b600054600160401b900463ffffffff16421061098b57600080fd5b506001600160a01b03166000818152600260205260408120805460ff191660019081179091558054808201825591527fb10e2d527612073b26eecdfd717e6a320cf44b4afac2b0732d9fcbe2b7fa0cf60180546001600160a01b0319169091179055565b6001600160a01b03831660009081526002602052604090205460ff16600114610a1757600080fd5b8051825114610a2557600080fd5b6001600160a01b03831660009081526002602081905260408220805460ff19169091179055805b8351811015610ba957610a7b838281518110610a6457fe5b602002602001015183610c8790919063ffffffff16565b9150846001600160a01b0316848281518110610a9357fe5b60200260200101516001600160a01b03161415610aaf57610b91565b600060ff1660026000868481518110610ac457fe5b6020908102919091018101516001600160a01b031682528101919091526040016000205460ff161415610af657610b91565b610b54838281518110610b0557fe5b602002602001015160036000878581518110610b1d57fe5b60200260200101516001600160a01b03166001600160a01b0316815260200190815260200160002054610c8790919063ffffffff16565b60036000868481518110610b6457fe5b60200260200101516001600160a01b03166001600160a01b03168152602001908152602001600020819055505b610ba281600163ffffffff610c8716565b9050610a4c565b50600154610bbe90600363ffffffff610be616565b811115610bca57600080fd5b600454610bdd908263ffffffff610c8716565b60045550505050565b600082610bf557506000610c42565b82820282848281610c0257fe5b0414610c3f5760405162461bcd60e51b8152600401808060200182810382526021815260200180610d826021913960400191505060405180910390fd5b90505b92915050565b6000610c3f83836040518060400160405280601a815260200179536166654d6174683a206469766973696f6e206279207a65726f60301b815250610cdf565b600082820183811015610c3f576040805162461bcd60e51b815260206004820152601b60248201527a536166654d6174683a206164646974696f6e206f766572666c6f7760281b604482015290519081900360640190fd5b60008183610d6b5760405162461bcd60e51b81526004018080602001828103825283818151815260200191508051906020019080838360005b83811015610d30578181015183820152602001610d18565b50505050905090810190601f168015610d5d5780820380516001836020036101000a031916815260200191505b509250505060405180910390fd5b506000838581610d7757fe5b049594505050505056fe536166654d6174683a206d756c7469706c69636174696f6e206f766572666c6f77a265627a7a723158201eb1dcde019eb88e2c5d1d6746d2280c15d347ca1becc9927a949b0c1613775c64736f6c63430005100032",
  "source": "pragma solidity 0.5.16;\n\nimport \"./Event.sol\";\n\ncontract ProxyEvent is Event {\n\n    bytes5 constant public version = \"2.0.0\";\n    mapping(address => address) public proxy;\n\n    constructor(uint64 _fee, uint32 _end) Event(_fee, _end) public {}\n\n    function registerFor (address payable _attendee) external payable {\n        register(_attendee, msg.value);\n        proxy[_attendee] = msg.sender;\n    }\n\n    function clapFor (\n        address _clapper,\n        address[] calldata _attendees,\n        uint256[] calldata _claps\n    ) external {\n        require(proxy[_clapper] == msg.sender);\n        clap(_clapper, _attendees, _claps);\n    }\n}\n",
  "sourcePath": "/home/e18r/code/coinosis/contracts/ProxyEvent.sol",
  "compiler": {
    "name": "solc",
    "version": "0.5.16+commit.9c3226ce.Emscripten.clang"
  },
  "schemaVersion": "3.2.0",
  "updatedAt": "2020-06-10T21:21:50.992Z",
  "devdoc": {
    "methods": {}
  },
  "userdoc": {
    "methods": {}
  }
}